:100000000C943F030C9477030C9477030C947703C0
:100010000C9477030C9477030C9477030C94770378
:100020000C9477030C9477030C9410130C9485189C
:100030000C9430280C9477030C9477030C9477037A
:100040000C9477030C9477030C9477030C94770348
:100050000C9477030C94D4120C9477030C947703CC
:100060000C9477030C9477030C9477030C94770328
:100070000C9477030C9477030C9477030C94770318
:100080000C9477030C9477030C9477030C94770308
:100090000C9477030C9477030C9477030C947703F8
:1000A0000C9477030C9477030C94770305A84CCD3C
:1000B000B2D44EB93836A9020C50B9918688083CA2
:1000C000A6AAAA2ABE000000803F4F0051000000EF
:1000D0005000520000004F0052000000500051003C
:1000E00000000D000E0000000700090000001400D1
:1000F0001A0000000F002D0000000631FF0974A156
:10010000010975150026FF00952075088102C005BC
:10011000010902A10185020901A1000509190129AE
:1001200008150025019508750181020501093009AE
:10013000311581257F9502750881060938158125BD
:100140007F950175088106050C0A38021581257F07
:10015000950175088106C0C005010980A1018503CC
:1001600019012AB700150126B70095017510810005
:10017000C0050C0901A101850419012AA00215017D
:1001800026A002950175108100C00660FF0961A1DB
:10019000010962150026FF00952075088102096398
:1001A000150026FF00952075089102C0050109067B
:1001B000A101050719E029E715002501950875013A
:1001C00081029501750881010507190029FF1500B5
:1001D00026FF0095067508810005081901290515F7
:1001E000002501950575019102950175039101C0E6
:1001F00000000000000000000000000000000000FF
:1002000000000000000000000000000000000000EE
:10021000000000007E0F00D4FFFFFFC70000007841
:1002200000000000000000002A2B28000000000051
:100230000000000000000000000000290000000095
:100240002C1E3420212224342627252E362D373803
:10025000271E1F202122232425263333362E37380C
:100260001F0405060708090A0B0C0D0E0F101112CA
:10027000131415161718191A1B1C1D2F3130232D96
:10028000350405060708090A0B0C0D0E0F10111294
:10029000131415161718191A1B1C1D2F3130354C45
:1002A00044454255473A2064697361626C65642E27
:1002B0000A0044454255473A20656E61626C6564A8
:1002C0002E0A004F6E6573686F743A20616374691B
:1002D00076653A2025640A000A002530325820004D
:1002E0006B6579626F6172645F7265706F72743A88
:1002F0002025303258207C200073757370656E6441
:10030000696E67206B6579626F6172640D0A000A1D
:10031000002530313662003A200025303258000A7C
:10032000722F632030313233343536373839414219
:10033000434445460A006C65645F7461736B3A2000
:10034000253032580A0014001A0008001500170062
:10035000000000001C0018000C0012001300040034
:100360001600070009000A00000000000B000D0045
:100370000E000F002D001D001B00060019000500D7
:10038000D100D20011001000360037003800294497
:10039000000000002B282C229041914528422A433E
:1003A00000000000097E1E021F022002210222021C
:1003B000000000000000260227022F003000230268
:1003C0002402250231003102000000003300330214
:1003D000340034022E000000000000000000000085
:1003E00001000100350035022F0230022E0201000B
:1003F00000000100010001000100010001000100F6
:1004000001000000010055002400250026005700CF
:100410000000000000000000000000000000540088
:1004200021002200230056000000000000005000C0
:10043000520051004F0027001E001F0020006300E3
:100440000100010000005004520451044F04010057
:100450000000010001000100010001000100010095
:100460000100000001003A003B003C003D003E005E
:10047000000000003F004000410042004300000037
:10048000000000000000000000000000000000006C
:10049000000000000000000000000000000000005C
:1004A0000100010000000000000000000000010049
:1004B0000000010001000100010001000100010035
:1004C0000100000001000C7E01000100010001009C
:1004D00000000000047E007E017E0100010001009A
:1004E0000100010001000100000000000100057E84
:1004F000067E010001000100010001000100010071
:10050000027E037E0100077E087E010001000100DB
:1005100000000100010001000100010001000A7E4D
:100520000B7E00000D7ED900DA00A900AA00D900D8
:10053000DA00A900AA00D900DA00A900AA00D900AF
:10054000DA00A900AA00017E007E067E057E290A47
:10055000002575002F002575005D2800256400200A
:1005600000256400200025640020002564007C0034
:1005700025303258006D6F7573656B6579205B624D
:10058000746E7C782079207620685D287265702FE3
:1005900061636C293A205B005B435D005B445D0056
:1005A0005B535D005B575D005B525D0009027400A8
:1005B000040100A0FA09040000010301010009215F
:1005C000110100012244000705810308000109040C
:1005D0000100020300000009211101000122220094
:1005E0000705820320000107050303200001090419
:1005F00002000103000000092111010001227B001B
:100600000705840320000109040300010300000022
:1006100009211101000122150007058503200001B1
:10062000120100020000000882870200000101029E
:10063000000118036D006500740065006F00720012
:100640006900740065003400300000002C0348008D
:1006500061007300680069006B007500720065003E
:100660002D0065006E00670069006E006500650082
:10067000720069006E006700000004030904112481
:100680001FBECFEFDAE0DEBFCDBF04B603FE18C059
:1006900080916A0390916B03A0916C03B0916D03FC
:1006A0008730904BA740B04B59F410926A031092D8
:1006B0006B0310926C0310926D03E0E0F8E3099570
:1006C00011E0A0E0B1E0E2E1F8E602C005900D9291
:1006D000A83DB107D9F723E0A8EDB1E001C01D9214
:1006E000AA36B207E1F70E9457280C9497330C946E
:1006F0000000FF93EF93E091D801F091D90130977A
:1007000009F00995EF91FF910895FC0185918030E2
:1007100011F0EFDFFBCF0895FF27E0E230E247FF63
:100720000CC0419597FF09C0EDE2609570958095EA
:100730009095611D711D811D911D27FF02C021959E
:1007400030E350E2AA27660F771F881F991FAA1F60
:10075000A41710F0A41B63955A95A9F7AA3008F0C6
:10076000A95FA05DAF93F3956115710581059105B2
:1007700041F7ED3211F4EF93F395F21718F43F932C
:10078000F395FBCF8F91B5DFFA95E1F70895E991E5
:10079000F9918591803021F0853219F0AADFF9CFE7
:1007A000089520E0E89455915532C1F3503311F487
:1007B000689455915A3348F4505390F3220F022E07
:1007C000220F220F200D250FF4CF0EF421958991D1
:1007D0009991533619F3533729F1533559F1BC0127
:1007E00088279927E8945C3621F489919991689437
:1007F0005591543639F446EF7EF077FF0DC08FEFF8
:100800009FEF0AC055374AE039F0583540E121F0F2
:10081000523642E009F00895FF93EF937DDFEF91A8
:10082000FF91B7CFFF93EF93FC0181918030B9F333
:1008300060DFFBCFFF93EF9368DFF1CFDF93CF93C0
:10084000CDB7DEB72596A3DFCF91DF91089596FF50
:100850000DC0892F99278F709927209166032770E3
:100860002817190619F482E890E0089588EC90E0C2
:100870000895482F2091630390911A0359E029139A
:1008800002C080E0089530E0529FF001539FF00DC8
:100890001124E55EFC4F8181681306C080814813F6
:1008A00003C085818111EECF2F5F3F4F2770E7CFC7
:1008B000E8EDF0E080818E7F80831092E20010925C
:1008C000DA001092E100A0EEB0E08C9181608C9390
:1008D00080818F77808319BCA7EDB0E08C918E7FEB
:1008E0008C9380818F7E80831092F80208952091EE
:1008F000E4003091E50095E6A9012091EC00822FFB
:10090000817020FF06C08091E80080FF06C080E073
:1009100008952091E80022FD1AC080910F038823DA
:1009200089F0853089F08091EB0085FD0FC0209122
:10093000E4003091E50042175307F9F29150E1F6D7
:1009400084E0089582E0089583E0089581E00895A9
:100950008091110387FF13C08091E80082FF06C0D9
:100960008091E8008B778093E80004C080910F03AA
:100970008111F2CF089580910F038823D9F38091DC
:10098000E80080FFF8CF8091E8008E77ECCF982FB9
:100990009093E900242F762F50E0891731F0709161
:1009A000EC002091ED005091F00021FD07C09F5F09
:1009B000973071F78093E90081E008953091EB0062
:1009C0003E7F3093EB003091ED003D7F3093ED00A2
:1009D0003091EB0031603093EB007093EC0020938A
:1009E000ED005093F0002091EE0027FDE0CF80E075
:1009F0000895B0E0A0E0EFEFF4E00C94D52FC8ED3F
:100A0000D0E088818F7E8883E7EDF0E0808181608F
:100A1000808384E082BF81E08093F80288818E7FAA
:100A2000888302EE10E0F80110821092DA0081EE65
:100A3000C82ED12CF601108288818F778883888117
:100A40008068888388818F7D888319BC10920F030A
:100A500010921003109204031092030390EEE92EFB
:100A6000F12CF70180818B7F80838881816088836E
:100A700042E060E080E00E94C704F60180818E7F42
:100A80008083F80180818160808380818860808399
:100A9000F70180818E7F8083888180618883CDB7D4
:100AA000DEB7E8E00C94F12FFC01809117039091E0
:100AB000180386179707A0F06115710529F4909126
:100AC000E8009E779093E80090E06115710551F47D
:100AD000911108C08091E80082FF34C080E0089541
:100AE000BC01F2CF80910F038823C1F18530C1F1A1
:100AF0008091E80083FD30C08091E80082FDEACF5C
:100B00008091E80080FFE1CF8091F3002091F20016
:100B1000382F6115710519F02830310558F091E032
:100B20002830310509F090E02091E8002E772093DD
:100B3000E800CBCF81918093F100615071092F5F64
:100B40003F4FE7CF80910F03882341F0853041F07C
:100B50008091E80083FFBECF81E0089582E0089590
:100B600083E0089508958091FA0208959C014FB79B
:100B7000F8948091F1029091F202A091F302B09169
:100B8000F4024FBF821B930B08952FB7F894609126
:100B9000F1027091F2028091F3029091F4022FBF62
:100BA0000895DC01FB0111969C91119781819813A6
:100BB00022C012968C911297882319F09281891382
:100BC0001AC013968C911397882319F09381891377
:100BD00012C015968C911597882319F09581891369
:100BE0000AC014969C91992321F081E02481291355
:100BF00003C080E001C081E0817008959C01FC0188
:100C000032969FEF80E04191461751F09F3F19F4D3
:100C1000411101C0982F8F5F8630A9F79F3F09F4DB
:100C20000895290F311D97FD3A95F90162830895C2
:100C3000A3E0B0E0EEE1F6E00C94DB2F2091EE02B1
:100C40003091EF0228173907A1F09093EF028093BB
:100C5000EE02E091EC02F091ED02309751F024E0C9
:100C600029839B838A830084F185E02DCE01019640
:100C700009952396E2E00C94F72FA3E0B0E0E3E4BB
:100C8000F6E00C94DB2F2091EA023091EB0228175A
:100C90003907A1F09093EB028093EA02E091EC0215
:100CA000F091ED02309751F023E029839B838A83F2
:100CB0000084F185E02DCE01019609952396E2E0AE
:100CC0000C94F72FE091EC02F091ED02309739F09F
:100CD00022E0DC012C930680F781E02D0995089530
:100CE000E091EC02F091ED02309729F00190F08153
:100CF000E02D0995089580E008958091DA0280FD45
:100D000016C081FD16C082FD16C08091D9028823CD
:100D1000A1F0883280F428E0829FC001112468E2AB
:100D200070E00E94AA2F862F672B39F0089582E089
:100D3000089584E0089588E0089581E00895809101
:100D4000DA0280FD14C081FD14C082FD16C08091BE
:100D5000DB02882381F08E3180F420E5829FC00180
:100D600011246EE170E00E94AA2F862F089584E17D
:100D7000089588E2089588E0089580E50895282F71
:100D800035EB2303C001112497FF04C0805891095B
:100D9000892F089580589F4FFBCFAC018091D502D9
:100DA0006091D602982F691301C00895292F30E071
:100DB000F901EE0FFF1FE353FD4F0190F081E02D8D
:100DC000E417F507C1F4F0E0E0E04830510540F4E5
:100DD00067E0649FF001659FF00D1124E55FFE4F11
:100DE00041E044839813E1CF2F5F3F4F23703327B7
:100DF0002093D50208952F5F3F4F922F9370D3CF4A
:100E00001092600210925F02EBE0F1E083E491E067
:100E10002581211102C01482168237968E179F07F2
:100E2000B9F7089590E06623A1F08E539E4FFC0120
:100E300020812F3F89F0E22FE295EF70F0E080A152
:100E400090E02F7002C0959587952A95E2F7817002
:100E5000089580549E4FEBCF80E0089590E0662384
:100E6000E9F08E539E4FFC0180818F3FB1F0E82F57
:100E7000E295EF70F0E041A18F7021E030E0B90120
:100E800002C0660F771F8A95E2F7CB01962F9095E7
:100E9000942391A392A1892B82A3089580549E4FFD
:100EA000E2CF90915902E92FF0E040915A029F0160
:100EB0002F5F3F4F2370332742171306A9F0E55ADF
:100EC000FD4F282F2F7780818078822B60FB87F958
:100ED00080839F5F937090935902809157028F5F38
:100EE0008093570281E0089580E008950E94DF0B0F
:100EF0000895F894E82FE295EF70F0E031A1282FE3
:100F00002F7081E090E001C0880F2A95EAF7982FB2
:100F10009095932391A392A1892B82A3789408950D
:100F200090911D0292FF10C041E0282F24712430BF
:100F300009F040E031E0282F2871283009F030E036
:100F4000431711F02CE0822793FF10C041E0282FB7
:100F50002471243109F040E031E0282F2871283134
:100F600009F030E0431711F02CE0822730911E0287
:100F700030FF10C051E0282F2171213009F050E0DE
:100F800041E0282F2871283009F040E0541711F073
:100F900029E0822731FF10C041E0282F2171213143
:100FA00009F040E031E0282F2871283109F030E0C5
:100FB000431711F029E0822794FD877E0895823837
:100FC0009105B9F1B0F48133910509F47DC048F47D
:100FD0008932910509F46DC08A32910509F47BC00C
:100FE00008958533910509F45FC08933910509F1AE
:100FF0000895833E9105D9F138F4803E910529F199
:10100000823E910579F10895863E9105D9F1873E9A
:10101000910509F43EC0843E910541F520911E02E0
:1010200021FF24C080911D0284FD19C087EE90E04D
:10103000089520911D02237009F05AC020911E02CC
:1010400023FF14C089E290E0089520911D0220FD45
:1010500038C030911E0230FF09C024FF43C090E029
:1010600080E0089520911D0222FDF7CF0895209180
:101070001D0222FD3AC030911E0230FD39C024FF0E
:10108000F5CFEDCF20911D0223FFF0CF24FDE7CF58
:10109000CDCF20911D0223FD2EC030911E0231FFC5
:1010A000EECF84EE90E0089520911D0225FFDECF63
:1010B000C9CF20911D0225FD21C020911E0223FFD2
:1010C000D5CF89E390E0D2CF20911D0226FFCECF6D
:1010D0008AE290E0089520911D0226FFC7CF81E3A8
:1010E00090E0089583EE90E0089582EE90E00895F8
:1010F00080EE90E0089586EE90E0089585E390E01C
:1011000008951F93CF93DF930E94DF07EC01C11571
:1011100080E5D807F0F5C11580E4D80708F09CC039
:10112000C03ED10520F5CD3CD10508F082C0C83ABB
:10113000D10578F4C53AD10508F073C0C130D105A6
:1011400019F1209709F1C430D105F0F4D0E0C0E0E6
:101150001BC0C33CD105D0F7C85AD0E0CC0FDD1F6F
:10116000C65BDE4F0990D881C02DD4640DC0C11577
:1011700080E2D80708F0D1C0C11581E0D80708F097
:101180005AC0C83ED10510F7CE01DF91CF911F9113
:101190000895C03682E5D80718F5C03482E5D8072F
:1011A00008F06BC0C03282E5D80708F05FC0C115F7
:1011B00082E5D80708F497C02C2F2695269580E263
:1011C000289F900111248C2F8370C1E0D0E002C0D1
:1011D000CC0FDD1F8A95E2F7C22BD32BDD68D4CF6D
:1011E000C03A82E5D80760F4C03882E5D80708F431
:1011F00059C0CF71D0E0DC2FCC27C46FD06AC4CFE8
:10120000C03C82E5D80708F462C0C03E82E5D8073A
:1012100008F09CCFDC2FCC27CC27DF71C06FD06AC1
:10122000B3CFC55AD0E0C95BDE4FC881D0E0D064EF
:10123000ABCFD065A9CF8D2F0E949007182FCE017C
:1012400099270E94DF07C12FD0E0DC2FCC27CC27C5
:10125000DF71C82BD92B98CFCE0199270E94DF07C9
:10126000CC27DF70C82BD92BD06A8ECFCF71D0E0BE
:10127000DC2FCC27C16FD06A87CF2C2F26952695DF
:10128000277080E2289F900111248C2F8370C1E089
:10129000D0E002C0CC0FDD1F8A95E2F7C22BD32B22
:1012A000DC6872CF2C2F26952695277080E2289F28
:1012B000900111248C2F8370C1E0D0E002C0CC0FCC
:1012C000DD1F8A95E2F7C22BD32BDA685DCF8C2F16
:1012D0008F710E949007C82FD0E0DC2FCC27CC273D
:1012E000DF71D06251CF8C2F8F710E94900755E033
:1012F000D695C7955A95E1F7CF70D0E0DC2FCC2773
:10130000282F30E084FF05C044E0220F331F4A95A8
:10131000E1F7C22BD32BD06937CF8D2F8F710E946D
:101320009007182FCE0199270E94DF07C12FD0E028
:10133000DC2FCC27CC27DF71C82BD92BD2CF8095BF
:1013400090910C02982390930C020895809163036E
:1013500090911A03981301C008958F5F8770FACF98
:10136000A82FA77023E0969587952A95E1F7FC01B1
:10137000EE0FFF1FE80FF91FE60FF71F50E040E0E8
:1013800080E0219130E00A2E02C0369527950A941C
:10139000E2F721703327042E01C0220F0A94EAF7E6
:1013A000822B4F5F5F4F4330510559F70895292F26
:1013B000943068F48C3090F490E067EE71E03CE09B
:1013C000239F800D911D11240E94B00908952C5F68
:1013D000223020F464EE71E090E0F6CF80E00895D2
:1013E000262F277091E001C0990F2A95EAF723E094
:1013F000769567952A95E1F7FB01EE0FFF1FE60F43
:10140000F71FE40FF51F50E040E0682F70E0819176
:10141000DF0111979B01042E02C0369527950A948F
:10142000E2F7217021952827292328272C934F5F45
:101430005F4F4330510559F70895282F862F943078
:1014400070F42C3058F4622F70E02CE0929F600D05
:10145000711D112447EE51E00E94F00908959C5F30
:101460009230E0F7622F70E044EE51E0F5CF8093C8
:101470001C02089590911C0221E030E0F90101C0A6
:10148000EE0F8A95EAF7D90102C0AA0FBB1F6A9531
:10149000E2F7EA2B01C0220F4A95EAF7892F8E2343
:1014A000E81305C0292B822F0E94370A0895209542
:1014B0002923F9CF21E030E001C0220F8A95EAF715
:1014C000209580911C0282230E94370A08959091F2
:1014D00002028095892380930202282F277069F4E5
:1014E000891759F090911E0292FF07C08695869544
:1014F00086950E945A0A10920202089521E030E077
:1015000001C0220F8A95EAF780911C02822B0E946B
:10151000370A089580931B020895829590E09C01FC
:10152000220F331F220F331F2C7C9595879595959D
:1015300087958373282B30E0C901880F991F8A7A19
:10154000359527952575822B08959C01832F8170F1
:1015500033FD88600895E4E6F3E085EA80838EE059
:101560008183E6E6F3E08081887F8260808308954E
:10157000CF9328E030E043E060E080E30E94882ED3
:10158000C82F811105C00E94602F8C2FCF91089524
:1015900085E08A95F1F70000F8CF9FB7F894109294
:1015A000F6029FBF90910F03943009F048C020913C
:1015B000E9002F703091EC00932F917030FD90E88E
:1015C000922B25E02093E9002091EB0020FF34C00E
:1015D0002091EE0027FF30C02091F502222321F058
:1015E0002091E80025FF28C01092F50226E03091F6
:1015F000E80035FF14C08093F1008091E80085FD7C
:1016000027C08091E80080FFFCCF8091E8008E77B2
:101610008093E8009F709093E90080E008953091F6
:101620000F03343049F43091EB0035FD05C02150F3
:1016300041F481E08093F5029F709093E9008FEF71
:101640000895EFE9FFE03197F1F700C00000CFCF38
:101650008FB7F89421E02093F6028FBFDBCF0F9372
:101660001F93CF93DF938B01EA0190910F03943086
:1016700061F58093E9008FEF9091E800815095FD2E
:1016800006C095ED9A95F1F700008111F5CF809194
:10169000E80085FF1AC00E947704811111C0809173
:1016A000E80085FD06C08091E8008E778093E80011
:1016B000F2CFF80181918F018093F100219779F7A2
:1016C0008091E8008E778093E800DF91CF911F91A1
:1016D0000F91089543E050E0BC0184E00E942F0B7D
:1016E000089546E050E0BC0184E00E942F0B08956D
:1016F000CF93DF93EC0148E050E0BC0181E00E9411
:101700002F0B88E0FE01ABEFB2E001900D928A95BD
:10171000E1F7DF91CF91089581E08093E00080E2CE
:101720008093D8001092C9008FE19EE40197F1F7F1
:1017300000C0000087E090EBDC0180936A03909387
:101740006B03A0936C03B0936D0388E19CE00FB62C
:10175000F894A895809360000FBE90936000FFCF2F
:10176000A2E0B0E0E6EBFBE00C94D82F182FF62EA9
:101770000E94B80A082F811106C000E0802F22962F
:10178000E5E00C94F42F103511F010921903106855
:101790001983FA8262E070E0CE0101960E94302F38
:1017A000892B59F78AEB8A95F1F700C00E94602FC8
:1017B00083E492E00197F1F700C00000DFCF60E022
:1017C0008436910550F067E784342FE2920728F4BD
:1017D00064E670E00E94962F61508FE00E94B00B8B
:1017E0000895CF93C82F0E94B80A8823C9F08C2F80
:1017F0000E94002F8FE792E00197F1F700C00000F0
:101800000E94182FC82F95E09A95F1F700000E94CA
:10181000602F85E68A95F1F700008C2FCF9108950F
:10182000C0E0FBCFCF93C82F6FEF811165E284E258
:1018300090E00E9426306FEFC11161E085E290E0F8
:101840000E9426306FEFC11166E286E290E00E94AE
:101850002630CF910895CF93DF93C0E3D2E060E0CC
:10186000CE010E9426302196C11584E0D807B9F731
:10187000DF91CF9108950F931F93CF93DF93142F90
:10188000022F853020F5623010F598E0899FE00145
:10189000112484E0689FB0011124C60FD71FC85FD0
:1018A000DD4F82E090E0442311F090E080E0632F70
:1018B0008C0F9D1F0E94263083E090E0112311F0D1
:1018C00081E090E0602F8C0F9D1F0E942630DF91F9
:1018D000CF911F910F9108951F93CF93DF93122FF4
:1018E0008530E0F46430D0F44C30C0F4C42FD0E044
:1018F000CC0FDD1F98E1699FC00DD11D112490E62A
:10190000899FC00DD11D1124632FCE0188960E949E
:101910002630612FCE0189960E942630DF91CF912B
:101920001F9108958F929F92AF92BF92DF92EF9294
:10193000FF920F931F93CF93DF9306E215E086E4A7
:10194000E82E83E0F82EC0E05701D0E015C0F40186
:10195000259134914D2D6D2F8C2F0E946C0C82E0BF
:10196000880E911CD3948CE0D812F1CF88E1A80E98
:10197000B11CDF5FD43019F04501D12CE8CFF8015C
:101980002591349141E060E08C2F0E943B0CF801DE
:1019900032962591349140E060E08C2F0E943B0C00
:1019A000F80134962591349141E061E08C2F0E943A
:1019B0003B0CF80136962591349140E061E08C2F84
:1019C0000E943B0C085F1F4FCF5F80E6E80EF11CC2
:1019D000C53009F0B9CFDF91CF911F910F91FF90E2
:1019E000EF90DF90BF90AF909F908F90089580E030
:1019F0000E94120C60E087E290E00E9426300E9474
:101A0000920C0E942B0C81E00E94120C089584E23B
:101A100090E00E940230853289F485E290E00E94D5
:101A20000230813059F486E290E00E94023091E069
:101A3000863209F090E0892F8170089580E0FCCF14
:101A4000FF920F931F93CF93DF93F42E853070F5A1
:101A5000623060F528E0829F8001112434E0639FAA
:101A6000B0011124060F171F085F1D4F82E090E0A0
:101A7000442311F090E080E0800F911F0E9402301B
:101A8000C82FD0E0DC2FCC2783E090E0FF2011F0BE
:101A900081E090E0800F911F0E9402309E01282B70
:101AA000C901CDB7DEB7E5E00C94F42F90E080E0FB
:101AB000F8CF0F931F93CF93DF93853030F56430C9
:101AC00020F54C3010F5C42FD0E0CC0FDD1F28E1FD
:101AD000629FC00DD11D112430E6839FC00DD11D22
:101AE0001124CE0188960E940230082F10E0102F9A
:101AF0000027CE0189960E9402309801282BC90147
:101B0000DF91CF911F910F91089590E080E0F8CF81
:101B1000743048F46C3070F4853060F4462F672FD1
:101B20000E94590D08957D3F41F4623018F441E060
:101B3000853050F090E080E008957C3FD9F7623026
:101B4000C8F78530B8F740E00E94200D0895CF9285
:101B5000DF92FF920F931F93CF93DF936C0100915D
:101B60001C0280911B02082BC4E0D0E010E0FC2E88
:101B7000C8010C2E02C0959587950A94E2F780FD66
:101B80000CC02197A0F7F12C8F2DDF91CF911F91E1
:101B90000F91FF90DF90CF900895B6018C2F0E9497
:101BA000880D0E948108019761F3EECFCF93DF93F8
:101BB000EC010E94A70DBE010E94880D0E948108C1
:101BC000DF91CF910895FC0184818823F9F087810A
:101BD0009085009791F00E94810892959F709630B1
:101BE000B9F080F4925F9F70923080F4803F19F0DA
:101BF00058F4883E58F481E00895808191810E94D4
:101C0000D60DEBCF9A5FEFCF843FA9F380E0089524
:101C1000883E88F3813FD1F7EECFA6E0B0E0E3E164
:101C2000FEE00C94DA2F9C01FC01878190850097DF
:101C3000E1F486E0DE01119601900D928A95E1F7BC
:101C4000F901258189819A81222399F0662389F0FF
:101C50000E94A70D182F682F89819A810E941D0A62
:101C600069817A81812F0E94880D2696E3E00C9489
:101C7000F62F0E94D709182FF3CFA8E1B0E0E3E4D4
:101C8000FEE00C94D92F4B8B5C8B6D8B7E8B8F8BF6
:101C9000988F8E01095F1F4F86E0F80111928A9597
:101CA000E9F780911903811133C060E080E50E945B
:101CB000B00B81112AC086E0FE013796DE01119635
:101CC00001900D928A95E1F786E0FE013196DE01E2
:101CD0001D9601900D928A95E1F78D8583FF3EC098
:101CE00086E0FE017396DE01179601900D928A95AB
:101CF000E1F72F81388549855A856B857C8580E0A1
:101D000090E06896E4E00C94F52F81E0809319034D
:101D10000E94B80A882379F280E50E94002FFAEB2E
:101D2000FA95F1F700C066E070E0C8010E94482F04
:101D30008F81877011F0109219030E94602F89859E
:101D40009A859195819591099A8789878B859C853C
:101D50009195819591099C878B87ADCF898187FD6E
:101D600003C010925602BCCF2B813C818D819E8195
:101D700040915602411103C041E040935602203881
:101D80004FEF34078CF02038310514F02FE730E0A6
:101D90008038EFEF9E0754F08038910514F08FE7FC
:101DA00090E02D8B8E8B9CCF20E8F2CF80E8F9CF8E
:101DB0000E94802E0E94B80A882309F450C025EDA5
:101DC0002A95F1F700000E94602F85ED8A95F1F7C2
:101DD00000006AE58AE30E94B00B882309F43FC043
:101DE0009FEF20E782E0915020408040E1F700C063
:101DF000000082E00E94F10B83E00E94F10B84E07E
:101E00000E94F10B85E00E94F10B86E00E94F10B2D
:101E10000E94602F8FE39CE90197F1F700C000005A
:101E20006FE08FE00E94B00B8FE99FE00197F1F720
:101E300000C0000060E080E10E94B00B60E081E142
:101E40000E94B00B62E083E60E94B00B80E00E942B
:101E5000F10B8FE30E94F10B8AE20E94F10B0895CF
:101E60000F931F93CF93DF9320910C028091610217
:101E7000282B80910302882381F0282B30E08CED01
:101E800091E0FC014191CF0141113F5FF1E0823EC1
:101E90009F07B9F73111109203022093DA0148E04D
:101EA00050E064E072E08AED91E00E948A33892B71
:101EB00009F44DC088E0EAEDF1E0A4E0B2E0019061
:101EC0000D928A95E1F7E091EC02F091ED023097E6
:101ED000F1F10280F381E02D8AED91E00995809186
:101EE000DC0282FF34C080FF0EC08091DA011F92B5
:101EF0008F9380EE92E09F938F930E941E040F9029
:101F00000F900F900F90CAEDD1E00AED12E0809192
:101F1000DC0280FF0BC08A811F928F931F930F9367
:101F20000E941E040F900F900F900F90219641E099
:101F3000C03ED40761F78091DC0280FF08C088EDC5
:101F400092E09F938F930E941E040F900F90DF9159
:101F5000CF911F910F910895882341F08095909122
:101F600061028923809361020E94300F08958823C3
:101F700039F090916102982B909361020E94300F8A
:101F80000895882321F00E949F090E94300F089530
:101F9000882339F090910C02982B90930C020E94A8
:101FA000300F0895CF9367E372E080E592E00E94DE
:101FB000D105C82F882321F080E592E00E946206B7
:101FC0009091510286E0E0E5F2E0DF01282F1D92BA
:101FD0002A95E9F790935102A7E3B2E001900D92A0
:101FE0008A95E1F781E0C11103C0911101C080E041
:101FF0008170CF910895A6E2B0E0E1E0F0E10C94A9
:10200000CB2F409150025091510260915202709139
:10201000530280915402909155020E943D0E2093EC
:1020200050023093510240935202509353026093F6
:1020300054027093550286E0E0E5F2E0DE01179667
:1020400001900D928A95E1F7C0905202BC2CB19498
:10205000B98686E0FE013796DE011D9601900D924D
:102060008A95E1F786E0FE013D96DE01119601902A
:102070000D928A95E1F786E0FE013196A0E5B2E087
:1020800001900D928A95E1F786E0E0E5F2E0DE014D
:10209000599601900D928A95E1F720905302009194
:1020A000540230905502C22880E009F422C11091F8
:1020B0006503E12FE695EF70F0E0EE0FFF1FEE55A0
:1020C000FE4F6081718190E080E00E94743125E3D1
:1020D0003AEF4EE85CE30E947F326B017C016B2D8E
:1020E000BB0C770B880B990B0E9476312B013C01BE
:1020F000C701B6010E94C7304B015C01622D022C62
:10210000000C770B880B990B0E9476316F8F78A3A8
:1021100089A39AA3C701B60190580E94EC326BA321
:102120007CA38DA39EA3A5019401C301B2010E94CB
:102130007F326B017C012BA13CA14DA15EA16F8D73
:1021400078A189A19AA10E947F329B01AC01C701AD
:10215000B6010E945A306B017C012BA13CA14DA11C
:102160005EA1C301B2010E947F322B013C012F8D81
:1021700038A149A15AA1C501B4010E947F329B0137
:10218000AC01C301B2010E945B302B013C01809184
:102190004E028111FBC080914D028111F7C017FFE3
:1021A0002EC0A7019601C701B6010E947F324B01E4
:1021B0005C01A3019201C301B2010E947F329B0125
:1021C000AC01C501B4010E945B300E94FA322DECD3
:1021D0003CEC4CEC5DE30E947F324B015C01AC01B6
:1021E0009B01C701B6010E947F326B017C01A501F2
:1021F0009401C301B2010E947F322B013C01A7016F
:10220000960160E070E08EEF92E40E94D0319B0175
:10221000AC0160E070E08EEF92EC0E94B1314B01B6
:102220005C01A301920160E070E08EEF92E40E94F5
:10223000D0319B01AC0160E070E08EEF92EC0E9427
:10224000B1316B017C012091490230914A024091E9
:102250004B0250914C02C501B4010E945B302B012E
:102260003C01209145023091460240914702509135
:102270004802C701B6010E945B304B015C01C301FB
:10228000B2010E943E316B017C01C501B4010E9484
:102290003E316F8F78A389A39AA3B6010D2C000C51
:1022A000880B990B0E9476319B01AC01C301B201EE
:1022B0000E945A306093490270934A0280934B0205
:1022C00090934C022F8D38A1B901330F880B990BD5
:1022D0000E9476319B01AC01C501B4010E945A30C5
:1022E00060934502709346028093470290934802A0
:1022F0008F8DCB8E8C8F0D8F3E8E86E0FE01799672
:10230000DE01179601900D928A95E1F786E0FE01B5
:102310003796DE01119601900D928A95E1F786E0DD
:10232000FE013196DE01539601900D928A95E1F7F8
:1023300086E0FE017396DE01179601900D928A9554
:10234000E1F786E0FE013796A0E5B2E001900D923C
:102350008A95E1F786E0E1EEF2E0DE011796019062
:102360000D928A95E1F7809151029885892B80938F
:1023700051020E94D20F8111EAC080914F02109247
:102380004F028170A696E2E10C94E72FA0906403BF
:102390008A2D829586958770312F3170A32EAA0CD5
:1023A000AA0CAA0CA82AAA9C5001112485E0A80E08
:1023B000B11CAA0CBB1CC701B6010E943E314B01E7
:1023C00077FF04C088249924861A970AC301B201B2
:1023D0000E943E319B0177FF04C022273327261B32
:1023E000370BC901880F991F881599050CF060C03B
:1023F00020914102309142024091430250914402A7
:10240000C701B6010E945B306B017C010E943E3126
:102410009B0177FF04C022273327261B370BA21608
:10242000B3065CF0C0924102D0924202E0924302B5
:10243000F092440200E0312C2CC0B5010B2C000CB2
:10244000880B990B0E9476319B01AC01C701B60144
:102450000E94CC300E943E31362EA69E9001A79E4F
:10246000300DB69E300D1124B901330F880B990B36
:102470000E9476319B01AC01C701B6010E945A301F
:10248000609341027093420280934302909344020E
:1024900000E08FEF15FD81E0839D302C11248FEF3C
:1024A00016FD81E0809F002D112480E0C12C21CFFA
:1024B00020913D0230913E0240913F0250914002F6
:1024C000C301B2010E945B306B017C010E943E316E
:1024D0009B0177FF04C022273327261B370BA21648
:1024E000B3064CF0C0923D02D0923E02E0923F0211
:1024F000F09240029FCFB5010B2C000C880B990B7A
:102500000E9476319B01AC01C701B6010E94CC301C
:102510000E943E31062FA69E9001A79E300DB69ECA
:10252000300D1124B901330F880B990B0E947631BD
:102530009B01AC01C701B6010E945A3060933D0275
:1025400070933E0280933F029093400274CF81E0EB
:1025500090E015CFCF93C82F80911E0282FB992760
:1025600090F99C17F9F0C0FB82F980931E026091EC
:102570001D0270911E0284E090E00E94443082E0CF
:102580000E94670A8091DC0280FF0CC01F92CF93EB
:1025900083EC92E09F938F930E941E040F900F9004
:1025A0000F900F90CF91089578941F921FB61F92AD
:1025B00011248F939F93AF93BF938091F1029091D9
:1025C000F202A091F302B091F4020196A11DB11D97
:1025D0008093F1029093F202A093F302B093F4027D
:1025E000BF91AF919F918F911F901FBE1F90189523
:1025F0002FB7F8948091F1029091F202A091F3022A
:10260000B091F4022FBF0895809344010E94F81204
:10261000909307038093060381E080930503089558
:102620001F920F920FB60F9211242F933F934F9347
:102630005F936F937F938F939F93AF93BF93CF934A
:10264000EF93FF938091E10082FF15C08091E2003B
:1026500082FF11C08091E1008B7F8093E100209187
:10266000F7022F5F822F62E30E948A2F992309F4D9
:10267000DDC02093F7028091DA0080FF2CC08091AA
:10268000D80080FF28C08091DA008E7F8093DA0026
:102690008091D90080FF00C180E189BD82E189BDC0
:1026A00009B400FEFDCF81E080930F0388E995E037
:1026B0009F938F930E941E048091F8020F900F90B9
:1026C000811109C00E9458040E94F9048091E2001F
:1026D00084608093E2008091E10080FF22C08091BD
:1026E000E20080FF1EC08091E2008E7F8093E200B6
:1026F0008091E20080618093E2008091D800806246
:102700008093D80019BC85E080930F0380EA95E0A0
:102710009F938F930E941E0483E00E9404130F90E6
:102720000F908091E10084FF39C08091E20084FF26
:1027300035C080E189BD82E189BD89B5C82FC170EE
:1027400080FFFBCF8091D8008F7D8093D80080914F
:10275000E1008F7E8093E1008091E2008F7E809384
:10276000E2008091E20081608093E200809110039A
:10277000882309F49FC084E080930F0384EA95E0E6
:102780009F938F930E941E0480910F030F900F90D0
:10279000843009F4C2E08C2F0E9404138091E10080
:1027A00083FF32C08091E20083FF2EC08091E10060
:1027B000877F8093E10082E080930F0310921003E3
:1027C0008091E1008E7F8093E1008091E2008E7F16
:1027D0008093E2008091E20080618093E20042E019
:1027E00060E080E00E94C7048091F00088608093E0
:1027F000F00088EA95E09F938F930E941E0481E089
:102800000E9404130F900F90FF91EF91CF91BF9111
:10281000AF919F918F917F916F915F914F913F9178
:102820002F910F900FBE0F901F9018951092F702E6
:102830008091F602882309F41ECF80910F03843023
:10284000C1F49091E9009F702091EC00822F81707B
:1028500020FD80E8892B95E09093E9009091EB00B2
:1028600090FF04C09091EE0097FD08C08F70809398
:10287000E9001092F602FFCE1092F1009091E8006C
:1028800095FDFACF9091E80090FFF0CF9091E8008D
:102890009E779093E800EACF19BC10920F038CE961
:1028A00095E09F938F930E941E041092F8020F9060
:1028B0000F9011CF8091E30087FD02C08C2F5CCF79
:1028C00083E05ACF8091DC0283FF96C085E795E0D4
:1028D0009F938F930E941E048091E2021F928F9318
:1028E00080E795E09F938F930E941E048EE695E00B
:1028F0009F938F930E941E048091E302282F082E3D
:10290000000C330B3F938F938BE695E09F938F934F
:102910000E941E0489E695E09F938F930E941E04F7
:102920008091E402282F082E000C330B3F938F93E5
:1029300086E695E09F938F930E941E0484E695E0BF
:102940009F938F930E941E048091E502282F082EEA
:10295000000C330B3F938F9381E695E09F938F9309
:102960000E941E048FE595E09F938F930E941E04A2
:102970008091E602282F082E000C330B3F938F9393
:102980008CE595E09F938F930E941E0489E595E066
:102990009F938F930E941E048DB79EB780960FB6AB
:1029A000F8949EBF0FBE8DBF8091DB021F928F9364
:1029B00086E595E09F938F930E941E0484E595E041
:1029C0009F938F930E941E048091DA021F928F932F
:1029D00081E595E09F938F930E941E048EE495E01D
:1029E0009F938F930E941E048DB79EB70C960FB6CF
:1029F000F8949EBF0FBE8DBF0E94F8129C0190916B
:102A0000E3028091E402982B21F03093E0022093BE
:102A1000DF029091E5028091E602982B21F030933D
:102A2000DE022093DD0281EE92E00E9462060895AC
:102A3000CF9310920C02C6E0ECEDF1E0DF018C2F99
:102A40001D928A95E9F790E080E00E943D0690E0B3
:102A500080E00E941806109261020E94300FE1EEA1
:102A6000F2E0DF011D92CA95E9F71092DB021092A5
:102A7000D9021092DA020E946214CF910895AAE25C
:102A8000B0E0E5E4F5E10C94D72F81E193E02091EB
:102A9000F100FC012193CF01F3E089319F07B9F7E1
:102AA00080911203833009F472C0B8F4813009F4C4
:102AB00049C0823009F4B3C08091E80083FF3BC174
:102AC00080911103909112039A3008F034C1E92FDC
:102AD000F0E0E756FC4C0C94BE2F8A3009F48EC00F
:102AE0008B3009F471C0893039F78091110381323C
:102AF00019F78091150390911603009711F0029732
:102B0000D9F68091E800877F8093E8008091E80003
:102B100082FF38C09091F3008091F200029731F467
:102B20008091F100813011F0863021F48091F10024
:102B30008093FA028091E8008B778093E8000E94EE
:102B4000A804BACF80911103813A09F0B5CF8091E2
:102B5000E800877F8093E800809115039091160329
:102B6000892B61F468E08BEF92E070E00E945405DD
:102B70008091E8008B778093E8009ECF60E090E042
:102B800080E0F3CF80910F038111C0CF95CF80916A
:102B90001103813A09F090CF8091150390911603AB
:102BA000892B09F089CF8091E800877F8093E80026
:102BB0008091E80080FFFCCF809145018093F10077
:102BC0008091E8008E77B9CF80911103813209F0AE
:102BD00073CF8091150390911603892B09F06CCF68
:102BE0008091E800877F8093E8000E94A80480918C
:102BF0001303809345010E9418155ECF8091110345
:102C0000813209F059CF8091E800877F8093E800F6
:102C10000E94A804809114038093F9024DCF809103
:102C20001103813A09F048CF8091E800877F8093B3
:102C3000E8008091E80080FFFCCF8091F902BECFD0
:102C4000803899F0823809F076C0809115038F7032
:102C5000873008F070C08093E9008091EB0085FB1D
:102C6000882780F91092E90006C0809103039091B3
:102C70000403911182609091E800977F9093E8009F
:102C80008093F1001092F1008091E8008E7738C2B5
:102C9000882309F425C2823009F04DC080911303C6
:102CA000811129C2809115038F702FEF280F2630D4
:102CB00008F041C08093E9002091EB0020FF1BC287
:102CC000933031F48091EB0080628093EB0013C26B
:102CD0009091EB0090619093EB0021E030E001C017
:102CE000220F8A95EAF72093EA001092EA00809179
:102CF000EB008860EACF81111EC0109113031F778B
:102D00008091E3008078812B8093E3008091E8003C
:102D1000877F8093E8000E94A8048091E80080FFEC
:102D2000FCCF8091E30080688093E30082E0111182
:102D300083E080930F038091E80083FF0AC08091B5
:102D4000E800877F8093E8008091EB0080628093A9
:102D5000EB00AA96E6E00C94F32F8058823058F7E7
:102D600020911303309114032C3D43E03407A1F567
:102D700083E08A838AE289834FB7F894DE01139651
:102D800020E03EE051E2E32FF0E050935700E49161
:102D900020FF03C0E295EF703F5FEF708E2F90E051
:102DA000EA30C0F0C7968D939D932F5F243159F779
:102DB0004FBF8091E800877F8093E8006AE270E06F
:102DC000CE0101960E9454058091E8008B77809394
:102DD000E800B1CFC096E7CF80911503909116031C
:102DE000432F55274330510549F178F441305105BF
:102DF00009F4F1C04230510509F09DCF04E710E01D
:102E00008CEAE82E85E0F82EC3C04132510509F462
:102E1000B2C04232510509F08ECF8430910508F0DE
:102E20008ACFFC01EE0FFF1FE853FE4FE080F180D8
:102E30008C539E4FFC01008110E090C0332721305D
:102E4000310509F44AC021153105E9F12230310577
:102E500009F44DC010E000E0F12CE12C4091170383
:102E600050911803809109038F5F80930903509359
:102E70000E0340930D034230510509F042C090917A
:102E80000A039F5F90930A03833008F45EC0209189
:102E90000C03223038F090910B0391116AC0821715
:102EA00009F465C090910A03853009F03DC04F3F99
:102EB000510509F042C0213009F03FC0923009F0BD
:102EC00052C083E037C0EAE7F6E0E4910E2F10E04D
:102ED0006AE7E62E66E0F62EC1CFECE4F6E0E49178
:102EE0000E2F10E05CE4E52E56E0F52EB7CFE2E3BE
:102EF000F6E0E4910E2F10E042E3E42E46E0F42EDB
:102F0000ADCF4430510531F490910B039F5F909306
:102F10000B03BACF4F3F510509F0B6CF90910C0388
:102F20009F5F90930C03B0CF843039F421111BC004
:102F3000923029F48093080308C0211114C0933003
:102F400021F480910B038130A9F30E94F812909331
:102F500007038093060381E08093050301151105A3
:102F600009F4E9CE15C080910B03982B71F781E02D
:102F7000E1CF82E0DFCF8430910508F0DCCE880F0E
:102F8000991FFC01E053FE4FE080F18009E010E062
:102F90008091E800877F8093E800809117039091EB
:102FA00018030817190708F4C80140E00097D1F486
:102FB000411118C08091E80082FD06CF80910F0377
:102FC000882309F401CF853009F4FECE8091E80012
:102FD00083FFF0CFF9CE02E110E090E2E92E96E017
:102FE000F92ED6CF20910F03222309F4EDCE253000
:102FF00009F4EACE2091E80023FDE6CE2091E80016
:1030000022FDD8CF2091E80020FFD0CF3091F300EF
:103010002091F200009719F02830310558F041E076
:103020002830310509F040E02091E8002E77209308
:10303000E800BCCFF70144914093F100FFEFEF1A95
:10304000FF0A01972F5F3F4FE5CF803809F073CE1D
:103050008091E800877F8093E8008091100380933F
:10306000F10012CE811167CE10911303123008F0D7
:1030700062CE8091E800877F8093E8001093100370
:103080000E94A804112311F084E005C08091E300A0
:1030900087FDFACF81E080930F0342E061EC81E08D
:1030A0000E94C70442E261EC84E00E94C70442E24D
:1030B00061EC82E00E94C70442E260EC83E00E947F
:1030C000C70442E261EC85E00E94C70480910F03CF
:1030D000843021F081E00E9404132DCE82E0FBCFEA
:1030E00080911303813009F026CE81E0933009F0FE
:1030F00080E0809304031092E9008091E800877FCC
:103100008093E8000E94A80416CE1F920F920FB67B
:103110000F9211242F933F934F935F936F937F935D
:103120008F939F93AF93BF93CF93DF93EF93FF93CF
:10313000D091E900DF708091EC00C82FC17080FD54
:10314000C0E81092E9008091F000877F8093F00042
:1031500078940E943F151092E9008091F0008860F9
:103160008093F000CD2BCF70C093E900FF91EF91D9
:10317000DF91CF91BF91AF919F918F917F916F918F
:103180005F914F913F912F910F900FBE0F901F9025
:1031900018950E9418152FEF84E39CE02150804081
:1031A0009040E1F700C0000088E19CE00FB6F89481
:1031B000A895809360000FBE90936000FFCF6623B8
:1031C00009F472C08D3C41F40E949F068195809362
:1031D000E4020E94621408958E3C19F40E949F0636
:1031E000F6CF8F3C31F40E949F0681958093E302D5
:1031F000F0CF803D19F40E949F06F8CF893D29F455
:103200000E947D068093E502E4CF8A3D21F40E946E
:103210007D068195F7CF8B3D31F40E947D06819527
:103220008093E602D6CF8C3D19F40E947D06F8CF3C
:103230009FE2980F983020F5282F215D330BA901CC
:1032400021E030E001C0220F4A95EAF79091E202B6
:10325000922B9093E202815D21E030E0A90102C04F
:10326000440F551F8A95E2F7CA0120915102662347
:1032700009F493C0822B809351020E94D20F0895CB
:103280008D3D31F48091DA0281608093DA02A1CF22
:103290008E3D21F48091DA028260F7CF8F3D19F5DF
:1032A0008091DA028460F1CF9091E3028D3C59F471
:1032B0002091E40227FF0DC01092E40291110BC08F
:1032C0001092DB0208C08E3CB1F42091E402121689
:1032D0009CF39923B1F09091E5022091E602922BA4
:1032E00011F41092D902482F415D550B4830510519
:1032F00008F4B1CF6ECF8F3C39F497FFEACF10922C
:10330000E3029091E402DACF803D19F41916BCF380
:10331000E0CF2091E502893D29F41216D4F61092EF
:10332000E502D7CF8A3D19F427FFD3CFF8CF2091FC
:10333000E6028B3D29F427FFCCCF1092E602C9CFDD
:103340008C3D19F41216CCF3C4CF2FE2280F28308D
:1033500088F4282F215D330BA90121E030E001C062
:10336000220F4A95EAF720953091E2022323209319
:10337000E202AFCF2091DA022E7F8D3D59F02091ED
:10338000DA022D7F8E3D31F08F3D09F0A2CF2091E2
:10339000DA022B7F2093DA029CCF809582236BCFB9
:1033A0008823D1F19CEF980F913A78F4ECEDF1E09D
:1033B0009191891303C0DF0111971C9291E0E23EC5
:1033C000F907B1F70E94300F089590E2980F9830F6
:1033D00050F4877091E001C0990F8A95EAF7892F20
:1033E0000E949F09EFCF9BE5980F933028F490E05F
:1033F00080E00E943D06089598E5980F9B3128F4DF
:1034000090E080E00E941806089593E3980F9331AE
:1034100018F460E00E94DF180895CF93C82F882326
:10342000B1F08CEF8C0F813A00F5ECEDF1E082EE1B
:1034300091E0DF012D91C21761F08A179B07D1F748
:103440006C2F8AED91E00E94FE050E94300FCF9113
:1034500008952191C21303C0DF0111971C928E17AA
:103460009F07B9F70E94300FEBCF80E28C0F8830B6
:1034700068F4C77021E030E001C0220FCA95EAF776
:1034800080910C02822B80930C02DFCFEBE5EC0FD6
:10349000E33040F4F0E0E95BFE4F808190E00E9471
:1034A0003D06D5CFE8E5EC0FEB3150F4F0E0EE0F40
:1034B000FF1FE65BFE4F808191810E941806C7CFF7
:1034C00083E38C0F833118F661E08C2F0E94DF18A4
:1034D000BECF1F93CF93DF93182FEB010E940D1ADD
:1034E000209739F4812F0E94D019DF91CF911F913D
:1034F00008958FE99FE00197F1F700C00000219740
:10350000EFCF70E060E0893311F460E570E00E9475
:10351000691A0895B0E0A0E0E0E9FAE10C94D52F33
:103520006B01C42FD22FFC0185818823A9F0409321
:10353000E9020E94F8129093E8028093E702C770B4
:1035400081E001C0880FCA95EAF70E94C80FCDB785
:10355000DEB7E8E00C94F12F1091E902141337C0A4
:103560008091E7029091E8020E94B6057C01C601B5
:103570000E942704E816F90650F5C0E2CD0F1D178A
:10358000C1F080E2810F883048F4177081E0012E8D
:1035900001C0880F0A94EAF70E94C10FC83048F4AE
:1035A00081E09D2F977001C0880F9A95EAF70E94DD
:1035B000C80F802F0E94811AC83048F6D77081E06A
:1035C00001C0880FDA95EAF70E94C10FC0CFC7701B
:1035D00081E001C0880FCA95EAF7F6CF0F931F93D9
:1035E000CF93DF93C82F8B010E94A50AD82F0E948A
:1035F000B70F8C2F0E940D1A0115110559F48C2F4D
:103600000E94D0198D2F0E94AC0FDF91CF911F9196
:103610000F9108958FE99FE00197F1F700C0000036
:1036200001501109E9CFA8E0B0E0E9E1FBE10C9419
:10363000CD2F7C01DC0114968C91882309F4AAC05B
:1036400061E0C7010E940D0E8C01F701858188237E
:1036500009F437C1980137572038310508F002C600
:10366000003108F087C08FEF93E00E940230811193
:1036700081C050E3A52E52E0B52E011148C0FE01D5
:10368000339686E0DF011D928A95E9F74AE0442EE1
:1036900085010F5F1F4FC5010E94023089831A8286
:1036A000882309F467C0813009F078C06501B2E071
:1036B000CB0ED11CC8010E9402308A83882309F4F2
:1036C00059C09FEF980F933080F5E3E0AE0EB11C28
:1036D000C6010E9402308B83882309F44BC01C82F0
:1036E0008E010F5F1F4FD8012C91222389F22130C8
:1036F00009F090C011969C91119712968C9191307F
:1037000009F04EC00E5F1F4F0E94811A4FC0A114D6
:10371000F4E0BF0679F1C5010E940230811101C0B9
:1037200001502FEFA21AB20AA8CF56018430C1F679
:1037300002E010E05601FFEFAF1ABF0AC6010E9477
:103740000230E1E0F0E0EC0FFD1FE00FF11F80839D
:10375000882381F08C3741F4E2E0F0E0EC0FFD1FAC
:10376000E00FF11F1082BCCF0F5F1F4F65010730C4
:10377000110501F780910202877061F0D70115965B
:103780008C91882339F080911E0282FF03C082E071
:103790000E94670A2896E0E10C94E92F5801A0CF17
:1037A000923039F40E5F1F4F0E940D1A0F5F1F4FAA
:1037B0009ACF933029F40E5F1F4F0E94D019F6CF95
:1037C000943019F00F5F1F4FF1CF0E5F1F4F30E0A5
:1037D00020E0B8016F5F7F4FF80141818053990B62
:1037E0008A30910560F02115310501F38FE99FE0E2
:1037F0000197F1F700C0000021503109F4CF429E3B
:10380000F001439EF00D11249C012E0F3F1F842FC9
:103810008B01DFCFE22FF0E0E05EFD4F5490822F6E
:1038200086958695869590E0FC01E05FFD4F64905B
:103830002770712C022E02C0759467940A94E2F7E7
:10384000A1E06A227724FC01E050FE4F8490912C85
:10385000022E02C0959487940A94E2F7B1E08B227D
:103860009924FC01E051FE4FC490D12C02C0D594A4
:10387000C7942A95E2F7E1E0CE22DD2461147104B9
:1038800019F081EE0E940D1A8114910419F086EE50
:103890000E940D1A70E060E0852D0E94691A811463
:1038A000910419F086EE0E94D0196114710419F088
:1038B00081EE0E94D019C114D10409F477CF8CE2B3
:1038C00023CFF801FE57EE30F10520F4ED55FC4C06
:1038D0000C94BE2FF801E851FC47E730F10508F0E1
:1038E00019C1EF54FC4C0C94BE2F882321F081E0C9
:1038F00080934E023FCF10924E023CCF2091640342
:10390000822F8F7190E04F96382F3F71207E232BAE
:10391000209364038F719927019624E6AC01249FBC
:10392000C001259F900D11240E94760723CF882384
:1039300009F420CF20916403822F8F7190E00196CB
:10394000382F3F71207E232B209364038F7199279A
:10395000019624E6DC012A9FC0012B9F900D1124C3
:10396000E3CF882309F406CF90916503892F97FB55
:1039700087F9805880936503FDCE882309F4FACE39
:1039800020916403922F92959695977030916503DC
:10399000832F8170880F880F880F892B90E0019604
:1039A000982F9295990F907E2F71292B2093640365
:1039B00083FB882780F93E7F832BDCCF882309F4A3
:1039C000D9CE20916403922F92959695977030915D
:1039D0006503832F8170880F880F880F892B90E0F3
:1039E0000F96DECF882309F4C5CE20916503822F80
:1039F00086958F7090E00E966FE070E00E94962F93
:103A00008F70880F217E282B20936503B3CE8823E7
:103A100009F4B0CE20916503822F86958F7090E0D7
:103A20000196EACF882309F4A5CE90916503892FEA
:103A30008F7D95FF80629ECF882309F49BCE909165
:103A40006503892F8F7B96FF806494CF882309F4C8
:103A500091CE8091660392E0980F93709F5F887F6C
:103A6000892B8093660386CE882309F483CE8091C8
:103A70006603982FF2CF882309F47CCE0E94AB0A0C
:103A8000809164038F7190E0019624E6FC012E9FE3
:103A9000C0012F9F900D112447CF882309F46ACECF
:103AA00040916403509165036091660370916703D0
:103AB0008FE090E00E9438305DCE06E221EE41EECC
:103AC0006AE17CE7C7010E948A1A54CE07E225EE1C
:103AD00045EE6BE17CE7F6CF06E221EE40EE68E1D1
:103AE0007CE7F0CF07E225EE44EE69E17CE7EACF20
:103AF00006E221EE42EE6CE17CE7E4CF07E225EE40
:103B000046EE6DE17CE7DECF08E221E045EE6EE1B6
:103B10007CE7D8CF882309F48EC31092E902C8014C
:103B20009057839708F071C384E090E00E941030B2
:103B300090931E0280931D02F801E150F047E2329B
:103B4000F10520F4E854FC4C0C94BE2F80911D022A
:103B5000816080931D0295C080911E0288608093D1
:103B60001E028FC080911D028260F3CF80911D02E2
:103B70008460EFCF80911D028860EBCF80911E02A0
:103B80008160EDCF80911E028260E9CF80911D029D
:103B90008061DFCF80911D028062DBCF80911D02AA
:103BA0008064D7CF0E94181580911D028068D1CF04
:103BB00080911D028C60CDCF80911E028360CFCF9B
:103BC00080911D028E7FC5CF80911E02877FC7CF57
:103BD00080911D028D7FBDCF80911D028B7FB9CF5B
:103BE00080911D02877FB5CF80911E028E7FB7CF57
:103BF00080911E028D7FB3CF80911D028F7EA9CF51
:103C000080911D028F7DA5CF80911D028F7BA1CF5A
:103C10000E94181580911D028F779BCF80911D0205
:103C2000837F97CF80911E028C7F99CF80911D0258
:103C300082FB992790F921E0922790FB82F990FB73
:103C400083F987CF80911E02982F909591708E7F77
:103C5000892B90FB81F983CF90911D02892F8F7B57
:103C600096FF806476CF0E94181590911D02892FCF
:103C700097FB87F980586DCF61E08EE090E00E945D
:103C8000263060911D0270911E0284E090E00E9437
:103C900044300E9418156ECD60E0EFCF90911D0268
:103CA000892F8F7E94FF806154CF90911D02892FC0
:103CB0008E7F90FF81604DCF90911E02892F877F6C
:103CC00093FF88604CCF85E3BFC281E00E947E0AEB
:103CD00003C081E00E945A0A43E062E081E00E9452
:103CE0003A0A48CD0330FCE71F0709F481C008F009
:103CF0004DC001303CE7130709F480C008F062C0F2
:103D000001151C4709F451C0F70187819085009780
:103D100009F482C00E9481088C01F701A580968079
:103D200092943FE0932280910202877001F1DA2C95
:103D3000AA20F1F0812F807F803461F080E2800F33
:103D40008830A8F0812F807E803221F4023078F014
:103D5000992069F080911E0282FF09C082E00E94D2
:103D6000670A809102028770DD24D3948111D12CDF
:103D7000C12EC2942FE0C222FBE0FC1508F4C3C0A0
:103D8000EC2DF0E0E652FC4C0C94BE2F0B358CE78A
:103D9000180709F43FC00C359CE7190789F10A356B
:103DA0001C4709F0B1CF81E032C00E941815BFEF67
:103DB000E4E3FCE0B150E040F040E1F700C0000077
:103DC0000E948C0B9091DC02892F8E7F90FF816086
:103DD0008093DC0280FF09C082EB92E09F938F9377
:103DE0000E941E040F900F90C5CC80EA92E0F6CF9F
:103DF0006FEF7FEF90E080E00E9444300E94C9188E
:103E000080911E0282FB882780F991E089270E9419
:103E1000AA127ACF80E0FBCF8581008111818823AF
:103E200069F0C8010E94A70DD82E682FC8010E9412
:103E30001D0AB8018D2D0E94880D6CCFC8010E940B
:103E4000D709D82EF6CF212F2F70B22E107F19F060
:103E5000B29490EFB922AA20B9F0BB2069F080E2B9
:103E6000800F883010F0011109C080910C02B82A2F
:103E7000B0920C020E94300F802F43C080916102EB
:103E8000B82AB0926102F6CF802F0E94D019BB20D1
:103E9000D1F180E2800F883010F0011104C08B2D29
:103EA0000E949F0906C0B09480916102B822B0922E
:103EB00061020E94300F27C0312F3F70B32E107F58
:103EC000103219F0B29480EFB822002351F0013083
:103ED00009F473C0AA2009F47FC0992009F441C0F5
:103EE000CBCF80911E0282FD38C0AA2081F1BB2079
:103EF00039F080910C028B2980930C020E94300FC4
:103F000080E00E940D1AEC2DE850FF0B349710F45E
:103F10000E947006DD20B1F08091020280FD12C087
:103F2000D70115961C928695869586950E947E0AE5
:103F3000C7010E94131B8091020286958695869583
:103F40000E945A0A60E0C7010E940D0E23CC80E057
:103F50000E94D019BB20B9F2A2CFAA2099F09110EB
:103F600004C08B2D0E94C80FCECF41E09412CBCF5E
:103F7000809103029B2D9823B91629F28B298093F7
:103F80000302C1CF9110BFCF8B2D0E94C10F909122
:103F900003028B2D892329F08B2D80958923809313
:103FA00003029091E3018B2D892309F4ACCF8B2D73
:103FB000809589238093E301A6CFAA2029F055E0BC
:103FC000591508F4A0CFCDCF84E0891508F49BCF14
:103FD0008B2D0E94C10F97CF9920D1F3093349F45B
:103FE0009FEFA7EEB3E09150A040B040E1F700C0D2
:103FF0000000802F0E94D01986CF812F869586954C
:10400000837061F0813009F07ECFC8019370A110F8
:1040100002C080E090E00E94180675CFC80193703E
:10402000A11002C080E090E00E943D066CCF6A2D96
:10403000802F0E94DF1867CF812F837089F5A11030
:1040400062CF402F429546954770440F440F802F12
:104050008F70042E01C0880F0A94EAF7202F207178
:1040600004FF07C02FE030E001C0220F4A95EAF7B5
:104070002095169516951370123069F050F4309112
:104080001B02113029F0822B83230E948A0A3BCF26
:10409000832B822BFACF282B80911B028227F5CF0E
:1040A0008695AA2011F0812F8170882309F42BCFE7
:1040B000402F429546954770440F440F802F8F70D4
:1040C000042E01C0880F0A94EAF7202F207104FF04
:1040D00007C02FE030E001C0220F4A95EAF7209593
:1040E000169516951370123069F050F430911C0239
:1040F000113029F0822B83230E94370A04CF832BAF
:10410000822BFACF282B80911C028227F5CF1F70BB
:10411000AA2029F0812F0E947E0A802F23CF802F92
:104120000E94C10F812F0E945A0AEDCE023F89F1F1
:1041300060F4003FB9F0013F81F0AA2009F455C0B6
:1041400091109ACE812F8F7128C0033F49F1043F0F
:10415000A1F790911E0292FD2FC0812F8F71AA208E
:1041600011F31BC0AA2081F0E4E0E91508F4CBCEDE
:104170001F7181E090E0012E01C0880F0A94EAF7D8
:1041800090911C028927B8CFF5E0F91508F4BBCE51
:10419000EFCF812F8F71A110C6CF0E947E0AB3CEC0
:1041A00080E0AA2009F4A8CF1F7181E0012E01C090
:1041B000880F0A94EAF7A0CFAA2061F0812F8F71AF
:1041C00092FFEBCF48E0849F90011124236020935D
:1041D0000202E3CF81E00E94670A51E0591508F01E
:1041E00092CE82E00E94670A8ECE992059F0093360
:1041F00009F0FFCE8FEF97EEA3E081509040A040F2
:10420000E1F7F5CE812F8F718ECF0631BCE71B070A
:1042100099F580910C028A7A91E009F490E09093EC
:10422000E20169E2811165E38AED91E00E94FE05F9
:104230000E94300F9FCA0631ECE71E0749F58091B6
:10424000E201811140CD89E2ECEDF1E022EE31E0B6
:104250009191891303C0DF0111971C922E173F071C
:10426000B9F7E6CFF801FE57EE30F10508F032CB92
:10427000EA51FC4C0C94BE2F0737FCE71F0709F4EA
:1042800024CD08372CE7120709F02CCD82E01ECD93
:1042900007373CE7130709F41CCD08374CE7140730
:1042A00009F032CD82E016CDB0E0A0E0EAE5F1E21F
:1042B0000C94D62F8091FF01807F09F051C080912E
:1042C000FE01882309F44CC0E091630389E0D82EF5
:1042D00080911A038E1709F443C00E2F10E0ED9D54
:1042E000F0011124E55EFC4F84818823F1F1D09E1A
:1042F000E001D19ED00D1124FE01E55EFC4F9181BD
:104300008091FA01981331C090818091F90198133E
:104310002CC08581811129C0E280F3808091FB014E
:104320009091FC01E81AF90A60E089EF91E00E949F
:104330000D0E0E942704E816F906B8F48091FF01DB
:104340008F7080618093FF01CF5DDC4F88818F701B
:104350008061888389EF91E00E94131B0E94A60967
:10436000CDB7DEB7E7E00C94F22FF8013196E77095
:10437000AFCFA8E1B0E0EFEBF1E20C94CE2F8C01CF
:1043800086E0F801DE01539601900D928A95E1F7DF
:10439000F801F480E58089EF882E81E0982E8091E5
:1043A000FD0181112AC0F11003C0FF24F3941CC049
:1043B000EE20F9F0C8010E94E30DF82E8823C9F021
:1043C00089E0F801A9EFB1E001900D928A95E1F73B
:1043D0008091FD01813031F48091F9019091FA01D1
:1043E0000E94D60D0E9454218F2D6896EFE00C9408
:1043F000EA2FC8010E94131BD8CFC280D380B0908F
:10440000FE018091FB019091FC013601681A790A46
:10441000BB2009F420C15080A18060E089EF91E0C9
:104420000E940D0E0E9427046816790608F0BDC090
:10443000FF2009F4BACF8091FF01382F307F2091FF
:10444000FA01F8019181311161C0FE2C29131DC0C0
:104450002091F9019081291318C0409100025091D8
:104460000102278130854217530779F4E11047C0D4
:104470008F7080618093FF0189EF91E00E94131B90
:104480008091FF01F8018683AFCFE11038C06A2D1B
:10449000852D0E9439046A2D852D0E943904E82E4D
:1044A0008111A2CF5B8AAC8A8B899C890E94D60D30
:1044B000292F22952F70243058F49F70223088F0D5
:1044C000992399F0F8019681907F79F4FE2C8CCF96
:1044D0002A5F2F70223068F0C8010E94131BEB2C5A
:1044E000F5CF992311F0882389F3805E883070F32B
:1044F000F3CF803F58F3815F833070F7E7CF80912F
:10450000FF0181608093FF01F12C6ECF29131EC043
:104510002091F9019081291319C040910002509116
:104520000102278130854217530781F4E1100EC044
:104530008683C8010E94131B89E0F801A9EFB1E04E
:1045400001900D928A95E1F7FB2C4ECFC8010E9495
:10455000E30D882309F44DCFEE2009F44ACF809172
:10456000FF018032B8F02091F9013091FA013B87C8
:104570002A87DD86CC869091FD019E871F86888BD9
:1045800080910002909101029A8B898BCE010A964C
:104590000E94131B89E0F801A9EFB1E001900D9290
:1045A0008A95E1F70E94542100CF8091FF01982F56
:1045B000907F51F489EF91E00E94131B89E0F40190
:1045C00011928A95E9F7A0CFFF2009F4EECE209151
:1045D000FA01F801918129131AC02091F901908103
:1045E000291315C0409100025091010227813085A6
:1045F0004217530761F4E1100AC08683C8010E9484
:10460000131B89E0F40111928A95E9F79DCFC80147
:104610000E94E30D882309F4ECCEEE2009F4E9CEE4
:104620008091FF01803208F4B5CF2091F9013091DB
:10463000FA013A832983DC82CB829091FD019D832C
:104640001E828F8380910002909101029987888752
:10465000CE0101969DCF60E089EF91E00E940D0EA2
:104660000E9427046816790608F0A8CFFF2009F4F5
:104670009CCEFE2CEE2009F4BCCE9091FA01F801FC
:104680008181981336C09091F9018081981331C0CF
:104690002091000230910102878190852817390707
:1046A00041F58091FB019091FC01C81AD90AF8EC00
:1046B000CF16D104A8F49091FF0190FD11C0907F16
:1046C00079F08091FF01F8018683903F31F0982FB7
:1046D000907F905F8F70892B8683C8010E94131B87
:1046E00089E0F801A9EFB1E001900D928A95E1F718
:1046F0007BCEC8010E94E30D81114CCF8091FF0158
:1047000081608093FF01C8010E94131B6DCEA2E15E
:10471000B0E0EDE8F3E20C94D92F0A871B872C87D1
:104720003D874E875F87688B798B8A8BCE010A968F
:104730000E94B92181110CC089E0FE013A96DE0188
:10474000119601900D928A95E1F78E8581110BC02B
:1047500019E08091630390911A03891331C0629626
:10476000E4E00C94F52F20911A0330E0C901019682
:1047700087709927409163034817190699F099E0CB
:10478000929FD001939FB00D1124A55EBC4FFE01F6
:10479000319601900D929A95E1F780931A030E9449
:1047A000A609D6CF0E94181510921A03109263031F
:1047B00089E0E9EFF1E0DF011D928A95E9F7C8CFC2
:1047C000819FC0011124855E9C4F0E94B9218823DE
:1047D00031F28091630390E001968770992780936E
:1047E0006303B7CFEF92FF920F931F93CF93DF93A3
:1047F00080916402882361F0E09163028DE0F82EDD
:1048000080916402E81748F01092640210926302EB
:10481000CDB7DEB7E6E00C94F32FEE24E394EE0E72
:10482000E0926302CE2FD0E0EF9DF0011124EB590E
:10483000FD4F84818823E1F087819085892B09F0E1
:104840005DC0818592858F3F980709F457C08530F8
:10485000910509F442C070F4049779F1FC9EF001CF
:10486000FD9EF00D1124EB59FD4F14821092610250
:10487000EE2DC6CF8630910569F0079779F78091C4
:1048800062028230C1F0833049F770E060E08FE46B
:1048900098E00AC080916202823049F08330F1F6DC
:1048A00070E060E080E598E00E94EE1AD7CF8AE4DD
:1048B0000E94811AD3CF8DE4FBCF809162028230B7
:1048C00039F0833059F670E060E082E598E0ECCF93
:1048D00070E060E08AE491E0E7CF8091620282308C
:1048E00041F0833009F0BACF70E060E081E598E0F4
:1048F000DBCF70E060E08DE491E0D6CF00811181E4
:1049000022813381448155816681778180850E942F
:104910008723A4CF1092D8021092D702109243019D
:104920008091D6028093D5020E9400070E94F22354
:104930000895B0E0A0E0EFE9F4E20C94CB2FC09131
:10494000D50297E0892E01E010E02DE0922E34E0B0
:10495000232E8091D6028C1309C00E94F2230E945C
:104960000007CDB7DEB7E2E10C94E72FD0E0FE01FF
:10497000EE0FFF1FE353FD4F80819181B0E0A0E077
:104980008830910538F4889ED001899EB00D11249D
:10499000A55FBE4F14962C911497211152C03090F0
:1049A000640245E652E030E020E0412C231508F097
:1049B00046C0FA01C384D4846D907C9011976FEF48
:1049C0007FEF512CA52CB12CF501EE0FFF1FE60D4A
:1049D000F71DE590F490CE14DF0409F4B501E1145D
:1049E000F10411F05394EECF6F3F760779F1F8019F
:1049F00002C0EE0FFF1F6A95E2F74E2AB801052CA0
:104A000002C0660F771F0A94E2F7615071094616DB
:104A10001706D1F412964D915C911397929EF00176
:104A2000939EF00D1124EB59FD4F5087478324824C
:104A30001082118292878187F1E01596FC930E9483
:104A4000CD062196C37085CFFA0114822F5F3F4FA8
:104A5000435F5F4FABCFA8E0B0E0E1E3F5E20C9439
:104A6000CF2F8E010F5F1F4F88E0F80111928A95BA
:104A7000E9F790E8E92E91E0F92E68016624639445
:104A8000712C30E9832E31E0932EF70181917F0163
:104A90008F3F09F445C0F894E82FE295EF70F0E0FD
:104AA00021A18F70A30102C0440F551F8A95E2F720
:104AB000CA01922F982B91A392A18095892382A35A
:104AC000789400C0E4E8F1E021E030E0B12CA12CC2
:104AD00041914F3F09F455C0A42FA295AF70B0E0AB
:104AE00090968C9190E04F7002C0959587954A956D
:104AF000E2F780FD46C0C901A82AB92A220F331F58
:104B00008E169F0629F7F701319780818F3F11F0AC
:104B10000E94790750EA5A95F1F7F601B182A08216
:104B2000F2E0CF0ED11C44E8E41641E0F40609F0AF
:104B3000ACCF48E050E0B80183E192E00E948A33B4
:104B4000892B09F449C088E0F801A3E1B2E00190A3
:104B50000D928A95E1F781E0809311020E94F8128C
:104B60009093100280930F0210E02091660327704B
:104B700080911C0281110AC0222381F010924D0203
:104B800010C090E080E0B8CF10E046C090E002C0D6
:104B9000959587952A95E2F780FFF0CF81E0809385
:104BA0004D028091120281110CC08091620282300C
:104BB00069F480911E02836080931E0281E08093DD
:104BC0001202812F2896EEE00C94EB2F8330C9F768
:104BD00080911E028C7FF0CF10911102112321F2DF
:104BE00080910F02909110020E94B605059708F47B
:104BF000BBCF48E050E063E172E08FE292E00E94B8
:104C00008A33892B09F288E0E3E1F2E0AFE2B2E017
:104C100001900D928A95E1F710921102A6CFAEE1B4
:104C2000B0E0E5E1F6E20C94CB2F4B8B5C8B6D8B07
:104C30007E8B8F8B988F911110926102188A198A3E
:104C40001A8A86E0FE017396DE011A9601900D9293
:104C50008A95E1F78E85882389F061E0CE010A9676
:104C60000E940D0E6C018F8520E5C2162CE7D2063E
:104C700089F4882329F181E0809343010A851B850B
:104C80002C853D854E855F85688979898A890E9452
:104C90008723C8C031E5C3163CE7D30629F488232F
:104CA00079F00E948A24EACF42E5C4164CE7D40684
:104CB00039F4882329F0809143018111F2CFDBCFB1
:104CC000FBE0EF2EF1E0FF2E512CB12CA12C88241B
:104CD0008394912CB7E04B2ECE0101969A8F898F49
:104CE00033243394F7014081518166246A94762CF1
:104CF00060E0262F30E0F901EE0FFF1FE40FF51FF3
:104D000085919491C816D90609F43901892B11F0BF
:104D10006F5FEFCF10E0FFEF6F167F0609F443C01F
:104D2000F701448110914301812F411180E0182F38
:104D30001170F701258086819F85992309F4F9C0B8
:104D4000112309F4F6C0211014C09401062C01C0EF
:104D5000220F0A94EAF7822B868380915F0290915A
:104D60006002C29730F422E330E030936002209377
:104D70005F02C40102C0880F991F6A95E2F701978C
:104D8000F70126812817190671F48091D7029091B6
:104D9000D802009709F44AC00E94B605C39708F4E8
:104DA00045C0F7013482512AFFEFAF1ABF0A27E04E
:104DB000E20EF11C38E0A316B10409F093CF8F8501
:104DC000882309F415C1552009F412C10E94F81274
:104DD0009093D8028093D70280916402883010F5B6
:104DE00091E0980F9093640299E0FE013A96DE01FB
:104DF000119601900D929A95E1F74DE0849FC001C4
:104E000011248B599D4F29E0FE013196DC01019060
:104E10000D922A95E1F72FEF3FEFFC0132872187B2
:104E2000D486C3866E96E2E10C94E72F8091D5027A
:104E30006091D602982FF0E0E0E0861314C09093C2
:104E4000D502EE16FF0609F4AECF90E0FC01EE0F9E
:104E5000FF1FE353FD4FB182A08201968370992713
:104E60008093D602A0CF682E712CF301EE0FFF1FA6
:104E7000E353FD4F20813181B0E0A0E028303105BF
:104E800038F4429ED001439EB00D1124A55FBE4F61
:104E90002D913C9111973E8F2D8F00E070E0212CD9
:104EA000E22DF0E0EE0FFF1F2D8D3E8DE20FF31F80
:104EB0002591349121153105E1F0F7010190F08140
:104EC000E02DFC8FEB8F70E005C02417350709F447
:104ED000012F7F5FE72FF0E0EE0FFF1F4B8D5C8D02
:104EE000E40FF51F459154914115510571F7239435
:104EF000D7CF002329F0721530F0FD01109721F46F
:104F0000F0E0E0E010C0F7013482EE16FF0621F475
:104F10009093D502102F47CF981305C0AE17BF0747
:104F200011F49F5F937093012F5F3F4F822F837027
:104F300084CF90E021101FC0940102C0220F331FC4
:104F40006A95E2F7215031098217930731F444231F
:104F500009F44CC0C5010E94CD06C401062C01C055
:104F6000880F0A94EAF7982F9095F7018681892394
:104F70008683122D18CFAC01062C02C0559547959B
:104F80000A94E2F7BA01617077279C012150310938
:104F900082239323892B31F5672B21F1F70182813D
:104FA0009381892BE1F0E98DFA8D242D11922A95B8
:104FB000E9F70E94F812282F8B839C8334E03D830D
:104FC000F70182819381782F8887998709811A81D7
:104FD0003C8144E05E816F81892F0E948723F70125
:104FE0001582BBCFF42FF1702F2EB7CF212EB5CF66
:104FF0009091D5028091D602981729F00E949924A9
:10500000511010CF3BCE0E94F2231092D802109282
:10501000D7020E940007F4CFA6E0B0E0E2E1F8E298
:105020000C94D92F0E94F8128C0180910D0290915E
:105030000E028017910781F019821A820E94F812DD
:10504000682F49815A81792F80E090E00E940F26D5
:1050500010930E0200930D022696E4E00C94F52FB7
:105060001F921FB61F9211248F939F93AF93BF93EC
:105070008091F002811113C08091F1029091F202AF
:10508000A091F302B091F4024196A11DB11D80934D
:10509000F1029093F202A093F302B093F402BF9155
:1050A000AF919F918F911F901FBE1F901895CDB704
:1050B000DEB7E4970FB6F894DEBF0FBECDBF85B75D
:1050C000806885BF85B7806885BF84B7877F84BFC8
:1050D0000FB6F894A8958091600088618093600075
:1050E000109260000FBE80E890E00FB6F8948093B5
:1050F0006100909361000FBE81E00E9404138DEC6B
:105100009AE09093D9018093D8010E9458040E949C
:10511000F9048091E20084608093E20078948091A9
:105120000F038823A1F01091E9001F709091EC000B
:10513000892F817090FD80E8182B1092E9008091F2
:10514000E80083FD0E943F151F701093E90082E084
:1051500084BD93E095BD9AEF97BD80936E000E9449
:10516000070D811102C00E94F70CE7E5F2E088E02C
:10517000DF011D928A95E9F782E080932B0260E0BF
:1051800080E00E942E0761E080E00E942E0760E030
:1051900081E00E942E0761E081E00E942E07EFE887
:1051A000F1E03197F1F700C0000010E080912B0290
:1051B000181708F4DEC086EC0E94790786EF0E947B
:1051C000790787EF0E94790787E60E94790704E84C
:1051D00011E040E9E42E41E0F42ED8018D918D01DB
:1051E0008F3F11F00E947907E016F106B1F788E0D1
:1051F000EFE2F2E0DF01282F1D922A95E9F7E3E1C3
:10520000F2E0DF011D928A95E9F78FE090E00E94BD
:105210000A306093640370936503809366039093F0
:10522000670390E080E00E941030853E9E4F21F49D
:105230000E94070D811176C065EE7EEF90E080E060
:105240000E94443060E082E090E00E94263081E0DD
:1052500080931B0261E083E090E00E94263060E0D2
:1052600074E184E090E00E94443060E086E090E0E9
:105270000E94263060E087E090E00E94263040E007
:1052800050E0BA0188E090E00E94383060E083E2AC
:1052900090E00E94263060E08CE090E00E94263092
:1052A00060E08DE090E00E94263019821A821B8215
:1052B0001C821D821E821F82188648E050E067E132
:1052C00070E0CE0101960E94163040E050E0BA0135
:1052D0008FE190E00E94383080E00E94120C0E9422
:1052E000F70C0E94AB0A40916403509165036091F2
:1052F0006603709167038FE090E00E9438308FE082
:1053000090E00E940A306093640370936503809379
:1053100066039093670340E050E0BA0183E190E0B8
:105320000E94383082E090E00E9402308093DC02DC
:1053300084E090E00E94103090931E0280931D0242
:105340000E942B25EFEFF6E721E0E150F0402040EE
:10535000E1F700C000000E942B2580912F0280FF02
:105360001AC06FEF7FEF90E080E00E9444300E940F
:105370008C0B60E0812F0E941207082F61E0812FC3
:105380000E941207E12FF0E0E75DFD4F880F802BB0
:1053900080831F5F0BCF83E090E00E9402300E9469
:1053A0008A0A0E94D80E809164038F7190E0019662
:1053B00024E6AC01249FC001259F900D11240E947A
:1053C000760780E091E09093ED028093EC02552403
:1053D00053942224239480910F038530B1F480915B
:1053E000DC0280FF08C089EF92E09F938F930E94B8
:1053F0001E040F900F9010E480910F03853009F484
:1054000060C00E9418150E9470060E942B253FE183
:10541000C32E32E0D32EAFE2B2E0BCABABAB47E27F
:1054200052E0F601219131918D919D914E175F07C8
:1054300009F47FC028173907A9F38091DC0281FDA8
:10544000E2C0912CEBA9FCA901911191FCABEBAB53
:10545000D601AD90BD906D01A016B10659F1A02600
:10546000B126812CEE24E394F12CC5018E219F21DD
:10547000892BB1F08DA69EA60E94F81298AB8FA73B
:1054800029AA91E098012E213F21232B09F490E0D5
:105490009AAB4DA55EA56FA578A989A90E940F2694
:1054A0008394EE0CFF1CBCE08B12DFCFF601329729
:1054B000118300839394E4E09E12C4CF0E94C5053B
:1054C0003EC080910F03843029F10E94FB0F10929F
:1054D000F002E8E1F0E00FB6F894A895E0936000E0
:1054E0000FBE1093600083B7817F846083BF83B752
:1054F000816083BF7894889583B78E7F83BF0FB612
:10550000F894A89580916000886180936000109263
:1055100060000FBE0E942B25EFE2F2E08191919195
:10552000892B09F078C247E352E04E175F07B1F7C5
:1055300063CF2817390709F080CF0E940C2880918B
:105540004301882301F18091D7029091D8020097FE
:10555000D1F00E94B60520915F02309160022817B9
:10556000390788F49091D5028091D602981709F4F2
:1055700091C00E9499241092600210925F021092D2
:10558000D8021092D70280912C02882351F01092F9
:105590002C028091590280935A0280915702809385
:1055A0005802B12C80912B02B81608F47CC090E010
:1055B0005CEFF52E63E0E62E7DEFD72EE2E0CE2EF7
:1055C00080915A0220915902281709F441C2E82F0C
:1055D000F0E0E55AFD4F108117FB002700F91F7717
:1055E0008F5F837080935A02809158028F5F8093FF
:1055F00058020111A1C00E94F81219A3FAA29CA39B
:105600008BA3EDA2A0C08FE193E09F938F930E94A4
:105610001E040F900F90BFE2EB2EB2E0FB2E10E0C5
:1056200000E08AE1882E83E0982E97E1A92E93E08E
:10563000B92E21E1622E23E0722E1F930F939F92C9
:105640008F920E941E04BF92AF920E941E04F70127
:1056500080813180F2E0EF0EF11C0E948D0A482E0D
:10566000832D0E948D0A4F928F937F926F920E949A
:105670001E044FE053E05F934F930E941E040F5FA0
:105680001F4F0FB6F894DEBF0FBECDBF043011051B
:10569000A1F6D7CE0E94F2231092D8021092D70220
:1056A0000E94000770CF61E08B2D0E941207182F17
:1056B00060E08B2D0E941207E12FEE0FE82B2B2DBF
:1056C00030E0D901A75DBD4F9C91892F8370E81709
:1056D00089F1990F990FE92BEC93D901A056BE4F90
:1056E000CC90EF70F0E0E057FE4FA901495D5D4FAF
:1056F0007A010081DA018C91080F0C93002E000CC6
:10570000110BD12C0C151D0524F060E08B2D0E948F
:105710005107882799278C199D098017910724F034
:1057200061E08B2D0E945107C801B6010E94AA2F8B
:10573000F7018083B39436CF0E94F81219A3DAA23E
:105740009CA38BA3CDA25EA249A15AA16BA17CA16F
:105750008DA19EA10E940F26002391F00E94F812B5
:105760001FA3D8A69AA789A7CBA61CA64FA158A568
:1057700069A57AA58BA59CA50E940F2691E020CF54
:105780000E94F8121FA3F8A69AA789A7EBA6EDCF4F
:105790005092E302BAC15092E402BFC15092E502B6
:1057A00000C25092E60205C28091F100D8018D93AB
:1057B0008D01B1E0EB1AF10809F47CC28091E80098
:1057C00085FDF2CF8091E8008B778093E8000E94FE
:1057D0007704882399F36EC21A828CE08B831BC0F6
:1057E0008A81823009F479C228F4813061F08FEF28
:1057F000898311C08330C1F08430C9F71B821C82B9
:105800001D821E8208C00E94C5050E94C42F6B83A2
:105810007C838D839E8340E250E0BE016F5F7F4FAB
:1058200082E00E942F0BD7CD2B81822F90E0FE01CA
:105830003196225F8430910570F7DC01AA0FBB1FFF
:10584000A15DBD4F3C9111964C91438334830196E9
:1058500032962813EFCFDFCF8A81823019F085305E
:10586000D1F2C5CF6B817C818D819E810E94C42F36
:1058700087E290E00E942630CECF4C816B818A81F6
:105880000E94590D9827892798279E838D83C3CF1F
:105890002D813E813227232732274C816B818A81DB
:1058A0000E946C0CB8CF0E94920CB5CFE0E1EA8365
:1058B000B2CF5A8280ED92CF0A811B811027012737
:1058C0001027AE014F5F5F4F6A01EC80CA018E0D59
:1058D000911D7C01C801805D9D4FEC14FD0409F40D
:1058E0009ACF003DA1E01A0750F40E940230F60161
:1058F00084830F5F1F4FBFEFCB1ADB0AEBCFD601BC
:1059000014961C92F6CF0A811B81102701271027BD
:10591000FE0131966F01EC80E00EF12EF11CC80102
:10592000805D9D4FE016F10609F475CF003DF1E072
:105930001F0728F4D60114966C910E942630BFEF01
:10594000CB1ADB0A0F5F1F4FEACF0E942B0C63CFED
:1059500085E08A8360CF0A811B81102701271027E9
:10596000FE0131966F01EC80AF014E0D511D7A01A1
:10597000C8018896EC14FD0409F44DCF003E51E0B7
:10598000150758F40E940230D60114968C930F5FCD
:105990001F4FFFEFCF1ADF0AEBCFF6011482F7CFCC
:1059A0000A811B81102701271027AE014F5F5F4F2F
:1059B0006A01EC80E00EF12EF11CC8018896E01619
:1059C000F10609F428CF003E51E0150728F4D6016E
:1059D00014966C910E942630BFEFCB1ADB0A0F5F42
:1059E0001F4FEBCF41E08C81811101C040E06B8102
:1059F0008A810E94200D46CF2D813E8132272327A8
:105A0000322741E08C81811101C040E06B818A81A5
:105A10000E943B0C00CF80910403882309F4ECCC56
:105A200050E159BD82E189BD09B400FEFDCF8091EE
:105A3000D8008F7D8093D8008091E00082608093B1
:105A4000E0008091E00081FDFCCF0E941815D4CCCD
:105A500091110E94C5050E94FB0F81110E94C5058E
:105A600086E0E1EEF2E0DE01119601900D928A955A
:105A7000E1F71092E3021092E4021092E502109214
:105A8000E6028B819C81892B09F447C08091DF025B
:105A90009091E0020E94B6059C019091DB0299234F
:105AA00009F429C125313105C0F19F3F19F09F5FED
:105AB0009093DB021B81112359F00E949F069FEFF8
:105AC00011160CF491E0899F802D11248093E3023C
:105AD0001C81112359F00E949F069FEF11160CF4B0
