:100000000C945B030C9493030C9493030C94930350
:100010000C9493030C9493030C9493030C94930308
:100020000C9493030C9493030C9462120C94761723
:100030000C947E230C9493030C9493030C949303DD
:100040000C9493030C9493030C9493030C949303D8
:100050000C9493030C94A5130C9493030C949303A6
:100060000C9493030C9493030C9493030C949303B8
:100070000C9493030C9493030C9493030C949303A8
:100080000C9493030C9493030C9493030C94930398
:100090000C9493030C9493030C9493030C94930388
:1000A0000C9493030C9493030C94930305A84CCDE8
:1000B000B2D44EB93836A9020C50B9918688083CA2
:1000C000A6AAAA2ABE000000803F0631FF0974A13B
:1000D000010975150026FF00952075088102C005ED
:1000E000010902A10185020901A1000509190129DF
:1000F00008150025019508750181020501093009DF
:10010000311581257F9502750881060938158125ED
:100110007F950175088106050C0A38021581257F37
:10012000950175088106C0C005010980A1018503FC
:1001300019012AB700150126B70095017510810035
:10014000C0050C0901A101850419012AA0021501AD
:1001500026A002950175108100C00660FF0961A10B
:10016000010962150026FF009520750881020963C8
:10017000150026FF00952075089102C005010906AB
:10018000A101050719E029E715002501950875016A
:1001900081029501750881010507190029FF1500E5
:1001A00026FF009506750881000508190129051527
:1001B000002501950575019102950175039101C016
:1001C000000000000000000000000000000000002F
:1001D000000000000000000000000000000000001F
:1001E000000000007E0F00D4FFFFFFC70000007872
:1001F00000000000000000002A2B28000000000082
:1002000000000000000000000000002900000000C5
:100210002C1E3420212224342627252E362D373833
:10022000271E1F202122232425263333362E37383C
:100230001F0405060708090A0B0C0D0E0F101112FA
:10024000131415161718191A1B1C1D2F3130232DC6
:10025000350405060708090A0B0C0D0E0F101112C4
:10026000131415161718191A1B1C1D2F3130354C75
:1002700044454255473A2064697361626C65642E57
:100280000A0044454255473A20656E61626C6564D8
:100290002E0A004F6E6573686F743A20616374694B
:1002A00076653A2025640A000A002530325820007D
:1002B0006B6579626F6172645F7265706F72743AB8
:1002C0002025303258207C200073757370656E6471
:1002D000696E67206B6579626F6172640D0A000A4E
:1002E000002530313662003A200025303258000AAD
:1002F000722F63203031323334353637383941424A
:10030000434445460A006C65645F7461736B3A2030
:10031000253032580A0014001A0008001500170092
:10032000000000001C0018000C0012001300040064
:100330001600070009000A00000000000B000D0075
:100340000E000F002D001D001B0006001900050007
:10035000D100D200110010003600370038002944C7
:10036000000000002B282C229041914528422A436E
:1003700000000000097E1E021F022002210222024C
:10038000000000000000260227022F003000230298
:100390002402250231003102000000003300330244
:1003A000340034022E0000000000000000000000B5
:1003B00001000100350035022F0230022E0201003B
:1003C0000000010001000100010001000100010026
:1003D0000100000001005500240025002600570000
:1003E00000000000000000000000000000005400B9
:1003F00021002200230056000000000000005000F1
:10040000520051004F0027001E001F002000630013
:100410000100010000005004520451044F04010087
:1004200000000100010001000100010001000100C5
:100430000100000001003A003B003C003D003E008E
:10044000000000003F004000410042004300000067
:10045000000000000000000000000000000000009C
:10046000000000000000000000000000000000008C
:100470000100010000000000000000000000010079
:100480000000010001000100010001000100010065
:100490000100000001000A7E0100010001000100CE
:1004A00000000000047E007E017E010001000100CA
:1004B0000100010001000100000000000100057EB4
:1004C000067E0100010001000100010001000100A1
:1004D000027E037E0100077E087E0100010001000C
:1004E0000000010001000100010001000100010005
:1004F000010000000B7E010001000100010001006D
:1005000000000000010001000100010001000100E5
:1005100001000100010001000000000001000100D5
:1005200001000100010001000100010001000100C3
:1005300001000100010001000100010001000100B3
:1005400000000100010001000100010001000100A4
:10055000010000000100D900DA00A900AA00D900BA
:10056000DA00A900AA00D900DA00A900AA00D9007F
:10057000DA00A900AA00017E007E067E057E00004A
:10058000000000000000290A002575002F002575D5
:10059000005D2800256400200025640020002564FB
:1005A0000020002564007C0025303258006D6F75F6
:1005B00073656B6579205B62746E7C782079207638
:1005C00020685D287265702F61636C293A205B009A
:1005D0005B435D005B445D005B535D005B575D000A
:1005E0005B525D0009027400040100A0FA090400D6
:1005F000000103010100092111010001224400074B
:10060000058103080001090401000203000000093C
:1006100021110100012222000705820320000107A9
:100620000503032000010904020001030000000982
:100630002111010001227B0007058403200001092C
:10064000040300010300000009211101000122152B
:1006500000070585032000011201000200000008C8
:100660008287020000010102000118036D0065008D
:10067000740065006F00720069007400650034004A
:10068000300000002C03480061007300680069001E
:100690006B007500720065002D0065006E0067003C
:1006A00069006E0065006500720069006E006700F9
:1006B00000000403090411241FBECFEFDAE0DEBFFF
:1006C000CDBF04B603FE18C08091980290919902A4
:1006D000A0919A02B0919B028730904BA740B04BFB
:1006E00059F4109298021092990210929A02109264
:1006F0009B02E0E0F8E3099511E0A0E0B1E0E2EF51
:10070000FDE502C005900D92AE39B107D9F722E0A0
:10071000AEE9B1E001C01D92A839B207E1F70E942D
:10072000A5230C948B2E0C940000FF93EF93E09183
:100730009E01F0919F01309709F00995EF91FF918B
:100740000895FC018591803011F0EFDFFBCF089513
:10075000FF27E0E230E247FF0CC0419597FF09C058
:10076000EDE26095709580959095611D711D811DDC
:10077000911D27FF02C0219530E350E2AA27660FA2
:10078000771F881F991FAA1FA41710F0A41B639539
:100790005A95A9F7AA3008F0A95FA05DAF93F39529
:1007A000611571058105910541F7ED3211F4EF9363
:1007B000F395F21718F43F93F395FBCF8F91B5DFC4
:1007C000FA95E1F70895E991F9918591803021F04A
:1007D000853219F0AADFF9CF089520E0E894559109
:1007E0005532C1F3503311F4689455915A3348F49B
:1007F000505390F3220F022E220F220F200D250FAF
:10080000F4CF0EF4219589919991533619F353370A
:1008100029F1533559F1BC0188279927E8945C36B2
:1008200021F48991999168945591543639F446EFA1
:100830007EF077FF0DC08FEF9FEF0AC055374AE07B
:1008400039F0583540E121F0523642E009F0089580
:10085000FF93EF937DDFEF91FF91B7CFFF93EF937E
:10086000FC0181918030B9F360DFFBCFFF93EF9300
:1008700068DFF1CFDF93CF93CDB7DEB72596A3DF47
:10088000CF91DF910895482F2091920290915902C3
:1008900057E0291302C080E0089530E0529FF00134
:1008A000539FF00D1124E65AFD4F8181681306C055
:1008B0008081481303C085818111EECF2F5F3F4FA8
:1008C0002770E7CFE8EDF0E080818E7F8083109283
:1008D000E2001092DA001092E100A0EEB0E08C91FC
:1008E00081608C9380818F77808319BCA7EDB0E005
:1008F0008C918E7F8C9380818F7E808310924102B9
:1009000008952091E4003091E50095E6A901209139
:10091000EC00822F817020FF06C08091E80080FFEC
:1009200006C080E008952091E80022FD1AC0809161
:100930004E02882389F0853089F08091EB0085FD97
:100940000FC02091E4003091E50042175307F9F2FF
:100950009150E1F684E0089582E0089583E00895DF
:1009600081E008958091500287FF13C08091E800D4
:1009700082FF06C08091E8008B778093E80004C076
:1009800080914E028111F2CF089580914E0288230A
:10099000D9F38091E80080FFF8CF8091E8008E774E
:1009A000ECCF982F9093E900242F762F50E08917F1
:1009B00031F07091EC002091ED005091F00021FD9C
:1009C00007C09F5F973071F78093E90081E0089539
:1009D0003091EB003E7F3093EB003091ED003D7F96
:1009E0003093ED003091EB0031603093EB00709369
:1009F000EC002093ED005093F0002091EE0027FDD5
:100A0000E0CF80E00895B0E0A0E0E9E0F5E00C94EC
:100A1000C92AC8EDD0E088818F7E8883E7EDF0E0B9
:100A200080818160808384E082BF81E08093410285
:100A300088818E7F888302EE10E0F8011082109288
:100A4000DA0081EEC82ED12CF601108288818F77D2
:100A5000888388818068888388818F7D888319BC9A
:100A600010924E0210924F0210924D0210924C02C0
:100A700090EEE92EF12CF70180818B7F80838881B5
:100A80008160888342E060E080E00E94D104F6014A
:100A900080818E7F8083F801808181608083808166
:100AA00088608083F70180818E7F80838881806168
:100AB0008883CDB7DEB7E8E00C94E52AFC0180918D
:100AC00056029091570286179707A0F0611571059D
:100AD00029F49091E8009E779093E80090E06115EA
:100AE000710551F4911108C08091E80082FF34C073
:100AF00080E00895BC01F2CF80914E028823C1F1BD
:100B00008530C1F18091E80083FD30C08091E8001C
:100B100082FDEACF8091E80080FFE1CF8091F30071
:100B20002091F200382F6115710519F02830310538
:100B300058F091E02830310509F090E02091E8006C
:100B40002E772093E800CBCF81918093F100615004
:100B500071092F5F3F4FE7CF80914E02882341F00C
:100B6000853041F08091E80083FFBECF81E0089599
:100B700082E0089583E008950895809143020895E6
:100B80009C014FB7F89480913A0290913B02A0915A
:100B90003C02B0913D024FBF821B930B08952FB7CB
:100BA000F89460913A0270913B0280913C029091DE
:100BB0003D022FBF0895DC01FB0111969C91119716
:100BC0008181981322C012968C911297882319F074
:100BD000928189131AC013968C911397882319F068
:100BE0009381891312C015968C911597882319F05B
:100BF000958189130AC014969C91992321F081E074
:100C00002481291303C080E001C081E08170089530
:100C10009C01FC0132969FEF80E04191461751F014
:100C20009F3F19F4411101C0982F8F5F8630A9F7BB
:100C30009F3F09F40895290F311D97FD3A95F90159
:100C400062830895A3E0B0E0E8E2F6E00C94CF2AD6
:100C5000209137023091380228173907A1F090937C
:100C6000380280933702E0913502F09136023097D6
:100C700051F024E029839B838A830084F185E02D51
:100C8000CE01019609952396E2E00C94EB2AA3E0AD
:100C9000B0E0EDE4F6E00C94CF2A209133023091DD
:100CA000340228173907A1F090933402809333025D
:100CB000E0913502F0913602309751F023E029831C
:100CC0009B838A830084F185E02DCE0101960995EE
:100CD0002396E2E00C94EB2AE0913502F091360283
:100CE000309739F022E0DC012C930680F781E02D6B
:100CF00009950895E0913502F0913602309729F078
:100D00000190F081E02D0995089580E0089580918B
:100D1000260280FD16C081FD16C082FD16C080919E
:100D200025028823A1F0883280F428E0829FC00148
:100D3000112468E270E00E949E2A862F672B39F00A
:100D4000089582E0089584E0089588E0089581E0A0
:100D500008958091260280FD14C081FD14C082FD9B
:100D600016C080912702882381F08E3180F420E51F
:100D7000829FC00111246EE170E00E949E2A862F9E
:100D8000089584E1089588E2089588E0089580E553
:100D90000895282F35EB2303C001112497FF04C0C9
:100DA00080589109892F089580589F4FFBCF90E07C
:100DB0006623A1F089579E4FFC0120812F3F89F0C7
:100DC000E22FE295EF70F0E080A190E02F7002C07A
:100DD000959587952A95E2F7817008958B579E4FD8
:100DE000EBCF80E0089590E06623E9F089579E4FAD
:100DF000FC0180818F3FB1F0E82FE295EF70F0E0C9
:100E000041A18F7021E030E0B90102C0660F771F69
:100E10008A95E2F7CB01962F9095942391A392A106
:100E2000892B82A308958B579E4FE2CF90911F028A
:100E3000E92FF0E0409120029F012F5F3F4F237088
:100E4000332742171306A9F0EF5DFD4F282F2F77A8
:100E500080818078822B60FB87F980839F5F93700D
:100E600090931F0280911D028F5F80931D0281E08D
:100E7000089580E008950E94980B0895F894E82F53
:100E8000E295EF70F0E031A1282F2F7081E090E023
:100E900001C0880F2A95EAF7982F9095932391A384
:100EA00092A1892B82A3789408959091E10192FFF9
:100EB00010C041E0282F2471243009F040E031E0D7
:100EC000282F2871283009F030E0431711F02CE06A
:100ED000822793FF10C041E0282F2471243109F0AC
:100EE00040E031E0282F2871283109F030E0431725
:100EF00011F02CE082273091E20130FF10C051E068
:100F0000282F2171213009F050E041E0282F28716D
:100F1000283009F040E0541711F029E0822731FF12
:100F200010C041E0282F2171213109F040E031E06B
:100F3000282F2871283109F030E0431711F029E0FB
:100F4000822794FD877E089582389105B9F1B0F427
:100F50008133910509F47DC048F48932910509F483
:100F60006DC08A32910509F47BC0089585339105DF
:100F700009F45FC08933910509F10895833E910515
:100F8000D9F138F4803E910529F1823E910579F13D
:100F90000895863E9105D9F1873E910509F43EC03A
:100FA000843E910541F52091E20121FF24C080910A
:100FB000E10184FD19C087EE90E008952091E101E0
:100FC000237009F05AC02091E20123FF14C089E286
:100FD00090E008952091E10120FD38C03091E201B8
:100FE00030FF09C024FF43C090E080E008952091C5
:100FF000E10122FDF7CF08952091E10122FD3AC0E1
:101000003091E20130FD39C024FFF5CFEDCF2091C2
:10101000E10123FFF0CF24FDE7CFCDCF2091E10107
:1010200023FD2EC03091E20131FFEECF84EE90E03F
:1010300008952091E10125FFDECFC9CF2091E10184
:1010400025FD21C02091E20123FFD5CF89E390E067
:10105000D2CF2091E10126FFCECF8AE290E0089521
:101060002091E10126FFC7CF81E390E0089583EE50
:1010700090E0089582EE90E0089580EE90E008956B
:1010800086EE90E0089585E390E008951F93CF9356
:10109000DF930E94A407EC01C11580E5D807F0F5A5
:1010A000C11580E4D80708F09CC0C03ED10520F5EA
:1010B000CD3CD10508F082C0C83AD10578F4C53AD4
:1010C000D10508F073C0C130D10519F1209709F19D
:1010D000C430D105F0F4D0E0C0E01BC0C33CD10562
:1010E000D0F7C85AD0E0CC0FDD1FC15FDE4F0990AA
:1010F000D881C02DD4640DC0C11580E2D80708F096
:10110000D1C0C11581E0D80708F05AC0C83ED1054A
:1011100010F7CE01DF91CF911F910895C03682E57F
:10112000D80718F5C03482E5D80708F06BC0C03284
:1011300082E5D80708F05FC0C11582E5D80708F43A
:1011400097C02C2F2695269580E2289F9001112488
:101150008C2F8370C1E0D0E002C0CC0FDD1F8A95D8
:10116000E2F7C22BD32BDD68D4CFC03A82E5D80793
:1011700060F4C03882E5D80708F459C0CF71D0E0D8
:10118000DC2FCC27C46FD06AC4CFC03C82E5D8071F
:1011900008F462C0C03E82E5D80708F09CCFDC2F7F
:1011A000CC27CC27DF71C06FD06AB3CFC55AD0E04F
:1011B000C45FDE4FC881D0E0D064ABCFD065A9CF8B
:1011C0008D2F0E945507182FCE0199270E94A40742
:1011D000C12FD0E0DC2FCC27CC27DF71C82BD92B37
:1011E00098CFCE0199270E94A407CC27DF70C82B87
:1011F000D92BD06A8ECFCF71D0E0DC2FCC27C16F36
:10120000D06A87CF2C2F26952695277080E2289FBD
:10121000900111248C2F8370C1E0D0E002C0CC0F6C
:10122000DD1F8A95E2F7C22BD32BDC6872CF2C2FFF
:1012300026952695277080E2289F900111248C2FF7
:101240008370C1E0D0E002C0CC0FDD1F8A95E2F7C9
:10125000C22BD32BDA685DCF8C2F8F710E9455077C
:10126000C82FD0E0DC2FCC27CC27DF71D06251CF44
:101270008C2F8F710E94550755E0D695C7955A95CA
:10128000E1F7CF70D0E0DC2FCC27282F30E084FFAF
:1012900005C044E0220F331F4A95E1F7C22BD32B40
:1012A000D06937CF8D2F8F710E945507182FCE012F
:1012B00099270E94A407C12FD0E0DC2FCC27CC2790
:1012C000DF71C82BD92BD2CF80959091D101982373
:1012D0009093D101089580919202909159029813B0
:1012E00001C008958F5F8770FACFA82FA77023E001
:1012F000969587952A95E1F7FC01EE0FFF1FE80F01
:10130000F91FE60FF71F50E040E080E0219130E048
:101310000A2E02C0369527950A94E2F721703327EA
:10132000042E01C0220F0A94EAF7822B4F5F5F4F11
:101330004330510559F70895292F943068F48C30C3
:1013400090F490E06DEA71E03CE0239F800D911DE8
:1013500011240E94750908952C5F223020F46AEA56
:1013600071E090E0F6CF80E00895262F277091E09D
:1013700001C0990F2A95EAF723E0769567952A959B
:10138000E1F7FB01EE0FFF1FE60FF71FE40FF51F5C
:1013900050E040E0682F70E08191DF0111979B01E0
:1013A000042E02C0369527950A94E2F72170219504
:1013B0002827292328272C934F5F5F4F433051055F
:1013C00059F70895282F862F943070F42C3058F454
:1013D000622F70E02CE0929F600D711D11244DEA88
:1013E00051E00E94B50908959C5F9230E0F7622FAA
:1013F00070E04AEA51E0F5CF8093E00108959091C2
:10140000E00121E030E0F90101C0EE0F8A95EAF732
:10141000D90102C0AA0FBB1F6A95E2F7EA2B01C0EF
:10142000220F4A95EAF7892F8E23E81305C0292B4E
:10143000822F0E94FC09089520952923F9CF21E0ED
:1014400030E001C0220F8A95EAF720958091E001F3
:1014500082230E94FC0908959091C60180958923FA
:101460008093C601282F277069F4891759F090914D
:10147000E20192FF07C08695869586950E941F0A15
:101480001092C601089521E030E001C0220F8A9534
:10149000EAF78091E001822B0E94FC090895809375
:1014A000DF010895829590E09C01220F331F220FE7
:1014B000331F2C7C95958795959587958373282B5D
:1014C00030E0C901880F991F8A7A359527952575CF
:1014D000822B0895E1E1F2E085EA80838AE081834E
:1014E0000895CF9328E030E043E060E080E30E947D
:1014F0007C29C82F811105C00E94542A8C2FCF91BE
:10150000089585E08A95F1F70000F8CF9FB7F89429
:1015100010923F029FBF90914E02943009F048C054
:101520002091E9002F703091EC00932F917030FDE5
:1015300090E8922B25E02093E9002091EB0020FF1A
:1015400034C02091EE0027FF30C020913E022223BC
:1015500021F02091E80025FF28C010923E0226E0ED
:101560003091E80035FF14C08093F1008091E800CD
:1015700085FD27C08091E80080FFFCCF8091E800C6
:101580008E778093E8009F709093E90080E0089543
:1015900030914E02343049F43091EB0035FD05C0F6
:1015A000215041F481E080933E029F709093E900C6
:1015B0008FEF0895EFE9FFE03197F1F700C00000E9
:1015C000CFCF8FB7F89421E020933F028FBFDBCFBE
:1015D0000F931F93CF93DF938B01EA0190914E02FB
:1015E000943061F58093E9008FEF9091E80081508D
:1015F00095FD06C095ED9A95F1F700008111F5CFA4
:101600008091E80085FF1AC00E948104811111C0F9
:101610008091E80085FD06C08091E8008E77809378
:10162000E800F2CFF80181918F018093F1002197BA
:1016300079F78091E8008E778093E800DF91CF9171
:101640001F910F91089543E050E0BC0184E00E9497
:10165000E80A089546E050E0BC0184E00E94E80AF0
:101660000895CF93DF93EC0148E050E0BC0181E0A6
:101670000E94E80A88E0FE01A4E4B2E001900D9225
:101680008A95E1F7DF91CF91089581E08093E000A2
:1016900080E28093D8001092C9008FE19EE4019708
:1016A000F1F700C0000087E090EBDC018093980226
:1016B00090939902A0939A02B0939B0288E19CE0D8
:1016C0000FB6F894A895809360000FBE90936000C9
:1016D000FFCFA2E0B0E0EFE6FBE00C94CC2A182F9D
:1016E000F62E0E94710A082F811106C000E0802F9B
:1016F0002296E5E00C94E82A103511F01092580279
:1017000010681983FA8262E070E0CE0101960E94AF
:10171000242A892B59F78AEB8A95F1F700C00E9499
:10172000542A83E492E00197F1F700C00000DFCF74
:1017300060E08436910550F067E784342FE2920729
:1017400028F464E670E00E948A2A61508FE00E94CB
:10175000690B0895CF93C82F0E94710A8823C9F09E
:101760008C2F0E94F4298FE792E00197F1F700C0D7
:1017700000000E940C2AC82F95E09A95F1F700000E
:101780000E94542A85E68A95F1F700008C2FCF91AC
:101790000895C0E0FBCFCF93C82F6FEF811164E2B3
:1017A00084E290E00E941A2B6FEFC11162E185E2A2
:1017B00090E00E941A2B6FEFC11168E086E290E082
:1017C0000E941A2BCF910895CF93DF93C8E9D2E0FE
:1017D00060E0CE010E941A2B2196C11584E0D80743
:1017E000B9F7DF91CF9108950F931F93CF93DF93B4
:1017F000142F022F863020F5623010F598E0899F73
:10180000E001112484E0689FB0011124C60FD71FA6
:10181000C859DD4F82E090E0442311F090E080E071
:10182000632F8C0F9D1F0E941A2B83E090E01123E1
:1018300011F081E090E0602F8C0F9D1F0E941A2B09
:10184000DF91CF911F910F9108951F93CF93DF9355
:10185000122F8630E0F46430D0F44C30C0F4C42F42
:10186000D0E0CC0FDD1F98E1699FC00DD11D112480
:1018700090E6899FC00DD11D1124632FCE0188965B
:101880000E941A2B612FCE0189960E941A2BDF919C
:10189000CF911F9108958F929F92AF92BF92DF9246
:1018A000EF92FF920F931F93CF93DF9306E515E01E
:1018B00086E1E82E83E0F82EC0E05701D0E015C0A5
:1018C000F401259134914D2D6D2F8C2F0E94250C04
:1018D00082E0880E911CD3948CE0D812F1CF88E17D
:1018E000A80EB11CDF5FD43019F04501D12CE8CF30
:1018F000F8012591349141E060E08C2F0E94F40BB7
:10190000F80132962591349140E060E08C2F0E94DE
:10191000F40BF80134962591349141E061E08C2F6D
:101920000E94F40BF80136962591349140E061E075
:101930008C2F0E94F40B085F1F4FCF5F80E6E80EEC
:10194000F11CC63009F0B9CFDF91CF911F910F91F3
:10195000FF90EF90DF90BF90AF909F908F90089591
:1019600080E00E94CB0B60E087E290E00E941A2B9F
:101970000E944B0C0E94E40B81E00E94CB0B089567
:1019800084E290E00E94F62A843289F485E290E0B5
:101990000E94F62A823159F486E290E00E94F62AEB
:1019A00091E0883009F090E0892F8170089580E0FF
:1019B000FCCFFF920F931F93CF93DF93F42E8630CB
:1019C00070F5623060F528E0829F8001112434E0D8
:1019D000639FB0011124060F171F08591D4F82E0A5
:1019E00090E0442311F090E080E0800F911F0E946E
:1019F000F62AC82FD0E0DC2FCC2783E090E0FF2030
:101A000011F081E090E0800F911F0E94F62A9E0164
:101A1000282BC901CDB7DEB7E5E00C94E82A90E0A9
:101A200080E0F8CF0F931F93CF93DF93863030F58C
:101A3000643020F54C3010F5C42FD0E0CC0FDD1F02
:101A400028E1629FC00DD11D112430E6839FC00D97
:101A5000D11D1124CE0188960E94F62A082F10E08D
:101A6000102F0027CE0189960E94F62A9801282B74
:101A7000C901DF91CF911F910F91089590E080E00F
:101A8000F8CF743048F46C3070F4863060F4462F30
:101A9000672F0E94120D08957D3F41F4623018F4C3
:101AA00041E0863050F090E080E008957C3FD9F727
:101AB0006230C8F78630B8F740E00E94D90C08952C
:101AC000CF92DF92FF920F931F93CF93DF936C011E
:101AD0000091E0018091DF01082BC5E0D0E010E02B
:101AE000FC2EC8010C2E02C0959587950A94E2F74A
:101AF00080FD0CC02197A0F7F12C8F2DDF91CF91A5
:101B00001F910F91FF90DF90CF900895B6018C2F19
:101B10000E94410D0E944608019761F3EECFCF93DA
:101B2000DF93EC010E94600DBE010E94410D0E94F6
:101B30004608DF91CF910895FC0124812223C1F052
:101B4000808191810E948F0D92959F70963091F0C7
:101B500058F4925F9F70923058F4803F19F030F43F
:101B6000883E30F481E008959A5FF4CF843FD1F34A
:101B700080E00895883EB0F3813FD1F7F3CFA6E02F
:101B8000B0E0E5ECFDE00C94CE2A49835A8349810C
:101B90005A819923A1F0222391F0CA010E94600D7D
:101BA000182F682F89819A810E94E20969817A81C0
:101BB000812F0E94410D2696E3E00C94EA2ACA0187
:101BC0000E949C09182FF2CFA8E1B0E0EAEEFDE0F8
:101BD0000C94CD2A4B8B5C8B6D8B7E8B8F8B988F6F
:101BE0008E01095F1F4F86E0F80111928A95E9F78F
:101BF00080915802811133C060E080E50E94690B3A
:101C000081112AC086E0FE013796DE01119601900F
:101C10000D928A95E1F786E0FE013196DE011D9670
:101C200001900D928A95E1F78D8583FF3EC086E095
:101C3000FE017396DE01179601900D928A95E1F7E9
:101C40002F81388549855A856B857C8580E090E0B9
:101C50006896E4E00C94E92A81E0809358020E949F
:101C6000710A882379F280E50E94F429FAEBFA954B
:101C7000F1F700C066E070E0C8010E943C2A8F8145
:101C8000877011F0109258020E94542A89859A8513
:101C90009195819591099A8789878B859C859195E6
:101CA000819591099C878B87ADCF898187FD03C082
:101CB00010921C02BCCF2B813C818D819E81409172
:101CC0001C02411103C041E040931C0220384FEF39
:101CD00034078CF02038310514F02FE730E08038DD
:101CE000EFEF9E0754F08038910514F08FE790E0F5
:101CF0002D8B8E8B9CCF20E8F2CF80E8F9CF0E940D
:101D000074290E94710A882309F450C025ED2A9590
:101D1000F1F700000E94542A85ED8A95F1F7000042
:101D20006AE58AE30E94690B882309F43FC09FEFAC
:101D300020E782E0915020408040E1F700C00000A1
:101D400082E00E94AA0B83E00E94AA0B84E00E941A
:101D5000AA0B85E00E94AA0B86E00E94AA0B0E94B3
:101D6000542A8FE39CE90197F1F700C000006FE06F
:101D70008FE00E94690B8FE99FE00197F1F700C0A7
:101D8000000060E080E10E94690B60E081E10E9458
:101D9000690B62E083E60E94690B80E00E94AA0B57
:101DA0008FE30E94AA0B8AE20E94AA0B08950F9368
:101DB0001F93CF93DF932091D1018091C801282BED
:101DC0008091C701882381F0282B30E082EA91E0DE
:101DD000FC014191CF0141113F5FF1E0883A9F073B
:101DE000B9F731111092C7012093A00148E050E0EB
:101DF00069EC71E080EA91E00E947E2E892B09F463
:101E00004DC088E0E0EAF1E0A9ECB1E001900D926C
:101E10008A95E1F7E0913502F09136023097F1F1C1
:101E20000280F381E02D80EA91E0099580912802FB
:101E300082FF34C080FF0EC08091A0011F928F935B
:101E400080EB92E09F938F930E943A040F900F9043
:101E50000F900F90C0EAD1E00AEA12E080912802C8
:101E600080FF0BC08A811F928F931F930F930E9454
:101E70003A040F900F900F900F90219641E0C63AD0
:101E8000D40761F78091280280FF08C088EA92E0B9
:101E90009F938F930E943A040F900F90DF91CF9100
:101EA0001F910F910895882321F00E9464090E94D8
:101EB000D70E0895882339F09091D101982B9093F3
:101EC000D1010E94D70E0895CF936AEF71E086E1A9
:101ED00092E00E94DB05C82F882321F086E192E082
:101EE0000E946C069091170286E0E6E1F2E0DF01C5
:101EF000282F1D922A95E9F790931702AAEFB1E0D7
:101F000001900D928A95E1F781E0C11103C0911112
:101F100001C080E08170CF910895A6E2B0E0E3E9CE
:101F2000FFE00C94BF2A4091160250911702609175
:101F300018027091190280911A0290911B020E945E
:101F4000E40D209316023093170240931802509329
:101F5000190260931A0270931B0286E0E6E1F2E038
:101F6000DE01179601900D928A95E1F7C090180254
:101F7000BC2CB194B98686E0FE013796DE011D9631
:101F800001900D928A95E1F786E0FE013D96DE0113
:101F9000119601900D928A95E1F786E0FE01319647
:101FA000A6E1B2E001900D928A95E1F786E0E6E1C4
:101FB000F2E0DE01599601900D928A95E1F72090AA
:101FC000190200911A0230901B02C22880E009F425
:101FD0001EC110911202E12FE695EF70F0E0EE0FB6
:101FE000FF1FE959FE4F6081718190E080E00E94FF
:101FF000682C25E33AEF4EE85CE30E94732D6B01F9
:102000007C016B2DBB0C770B880B990B0E946A2C03
:102010002B013C01C701B6010E94BB2B4B015C01A7
:10202000622D022C000C770B880B990B0E946A2CF6
:102030006F8F78A389A39AA3C701B60190580E9415
:10204000E02D6BA37CA38DA39EA3A5019401C301E6
:10205000B2010E94732D6B017C012BA13CA14DA10B
:102060005EA16F8D78A189A19AA10E94732D9B0119
:10207000AC01C701B6010E944E2B6B017C012BA164
:102080003CA14DA15EA1C301B2010E94732D2B01A1
:102090003C012F8D38A149A15AA1C501B4010E946C
:1020A000732D9B01AC01C301B2010E944F2B2B0188
:1020B0003C01809110028111F7C017FF2EC0A701CB
:1020C0009601C701B6010E94732D4B015C01A3016B
:1020D0009201C301B2010E94732D9B01AC01C501A5
:1020E000B4010E944F2B0E94EE2D2DEC3CEC4CECE9
:1020F0005DE30E94732D4B015C01AC019B01C701A4
:10210000B6010E94732D6B017C01A5019401C301EE
:10211000B2010E94732D2B013C01A701960160E0E2
:1021200070E08EEF92E40E94C42C9B01AC0160E051
:1021300070E08EEF92EC0E94A52C4B015C01A30194
:10214000920160E070E08EEF92E40E94C42C9B014B
:10215000AC0160E070E08EEF92EC0E94A52C6B0168
:102160007C0120910C0230910D0240910E025091A1
:102170000F02C501B4010E944F2B2B013C0120919D
:1021800008023091090240910A0250910B02C701E6
:10219000B6010E944F2B4B015C01C301B2010E94AA
:1021A000322C6B017C01C501B4010E94322C6F8F6F
:1021B00078A389A39AA3B6010D2C000C880B990B68
:1021C0000E946A2C9B01AC01C301B2010E944E2BFC
:1021D00060930C0270930D0280930E0290930F0295
:1021E0002F8D38A1B901330F880B990B0E946A2CEF
:1021F0009B01AC01C501B4010E944E2B6093080203
:102200007093090280930A0290930B028F8DCB8EFC
:102210008C8F0D8F3E8E86E0FE017996DE0117963B
:1022200001900D928A95E1F786E0FE013796DE0176
:10223000119601900D928A95E1F786E0FE013196A4
:10224000DE01539601900D928A95E1F786E0FE013A
:102250007396DE01179601900D928A95E1F786E05C
:10226000FE013796A6E1B2E001900D928A95E1F762
:1022700086E0EDE2F2E0DE01179601900D928A957C
:10228000E1F7809117029885892B809317020E94AD
:10229000640F8111EAC080911502109215028170BD
:1022A000A696E2E10C94DB2AA09011028A2D829579
:1022B00086958770312F3170A32EAA0CAA0CAA0C18
:1022C000A82AAA9C5001112485E0A80EB11CAA0CD2
:1022D000BB1CC701B6010E94322C4B0177FF04C022
:1022E00088249924861A970AC301B2010E94322CCD
:1022F0009B0177FF04C022273327261B370BC90118
:10230000880F991F881599050CF060C02091040270
:10231000309105024091060250910702C701B601B3
:102320000E944F2B6B017C010E94322C9B0177FF96
:1023300004C022273327261B370BA216B3065CF0F6
:10234000C0920402D0920502E0920602F0920702C7
:1023500000E0312C2CC0B5010B2C000C880B990B24
:102360000E946A2C9B01AC01C701B6010E94C02BE0
:102370000E94322C362EA69E9001A79E300DB69E4E
:10238000300D1124B901330F880B990B0E946A2C70
:102390009B01AC01C701B6010E944E2B6093040261
:1023A00070930502809306029093070200E08FEF7E
:1023B00015FD81E0839D302C11248FEF16FD81E007
:1023C000809F002D112480E0C12C21CF209100029C
:1023D000309101024091020250910302C301B20107
:1023E0000E944F2B6B017C010E94322C9B0177FFD6
:1023F00004C022273327261B370BA216B3064CF046
:10240000C0920002D0920102E0920202F092030216
:102410009FCFB5010B2C000C880B990B0E946A2CE6
:102420009B01AC01C701B6010E94C02B0E94322C57
:10243000062FA69E9001A79E300DB69E300D11244A
:10244000B901330F880B990B0E946A2C9B01AC01D8
:10245000C701B6010E944E2B6093000270930102E7
:10246000809302029093030274CF81E090E015CF35
:10247000CF93C82F8091E20182FB992790F99C1796
:10248000F9F0C0FB82F98093E2016091E101709163
:10249000E20184E090E00E94382B82E00E942C0A46
:1024A0008091280280FF0CC01F92CF9383E992E0B5
:1024B0009F938F930E943A040F900F900F900F906C
:1024C000CF9108951F920F920FB60F9211242F9360
:1024D0003F934F935F936F937F938F939F93AF93AC
:1024E000BF93EF93FF938091E10082FF15C080912D
:1024F000E20082FF11C08091E1008B7F8093E100B8
:10250000209140022F5F822F62E30E947E2A99234E
:1025100009F4D0C0209340028091DA0080FF2CC0E3
:102520008091D80080FF28C08091DA008E7F809350
:10253000DA008091D90080FFF3C080E189BD82E19B
:1025400089BD09B400FEFDCF81E080934E0280ED8D
:1025500095E09F938F930E943A04809141020F90DF
:102560000F90811109C00E9462040E9403058091AE
:10257000E20084608093E2008091E10080FF1FC050
:102580008091E20080FF1BC08091E2008E7F8093EB
:10259000E2008091E20080618093E2008091D800A7
:1025A00080628093D80019BC85E080934E0288ED4C
:1025B00095E09F938F930E943A040F900F90809123
:1025C000E10084FF33C08091E20084FF2FC080E1EE
:1025D00089BD82E189BD89B5982F917080FFFBCFBD
:1025E0008091D8008F7D8093D8008091E1008F7E0C
:1025F0008093E1008091E2008F7E8093E2008091E1
:10260000E20081608093E20080914F02882309F408
:1026100095C084E080934E028CED95E09F938F935C
:102620000E943A0480914E020F900F908091E10039
:1026300083FF2FC08091E20083FF2BC08091E100D7
:10264000877F8093E10082E080934E0210924F02D8
:102650008091E1008E7F8093E1008091E2008E7F87
:102660008093E2008091E20080618093E20042E08A
:1026700060E080E00E94D1048091F0008860809347
:10268000F00080EE95E09F938F930E943A040F90A4
:102690000F90FF91EF91BF91AF919F918F917F919B
:1026A0006F915F914F913F912F910F900FBE0F90BF
:1026B0001F9018951092400280913F02882309F4E0
:1026C0002BCF80914E028430C1F49091E9009F702D
:1026D0002091EC00822F817020FD80E8892B95E00D
:1026E0009093E9009091EB0090FF04C09091EE0070
:1026F00097FD08C08F708093E90010923F020CCFC5
:102700001092F1009091E80095FDFACF9091E800C9
:1027100090FFF0CF9091E8009E779093E800EACF89
:1027200019BC10924E0284ED95E09F938F930E9406
:102730003A04109241020F900F901ECF8091E30057
:1027400087FD93E090934E0267CF78941F921FB657
:102750001F9211248F939F93AF93BF9380913A025E
:1027600090913B02A0913C02B0913D020196A11DC7
:10277000B11D80933A0290933B02A0933C02B09328
:102780003D02BF91AF919F918F911F901FBE1F90EF
:1027900018952FB7F89480913A0290913B02A0913E
:1027A0003C02B0913D022FBF08958091280283FF23
:1027B00096C08DEA95E09F938F930E943A04809192
:1027C0002E021F928F9388EA95E09F938F930E9429
:1027D0003A0486EA95E09F938F930E943A04809191
:1027E0002F02282F082E000C330B3F938F9383EA80
:1027F00095E09F938F930E943A0481EA95E09F931E
:102800008F930E943A0480913002282F082E000CEA
:10281000330B3F938F938EE995E09F938F930E94A4
:102820003A048CE995E09F938F930E943A0480913B
:102830003102282F082E000C330B3F938F9389E928
:1028400095E09F938F930E943A0487E995E09F93C8
:102850008F930E943A0480913202282F082E000C98
:10286000330B3F938F9384E995E09F938F930E945E
:102870003A0481E995E09F938F930E943A048DB7C3
:102880009EB780960FB6F8949EBF0FBE8DBF809105
:1028900027021F928F938EE895E09F938F930E945B
:1028A0003A048CE895E09F938F930E943A048091BC
:1028B00026021F928F9389E895E09F938F930E9441
:1028C0003A0486E895E09F938F930E943A048DB76F
:1028D0009EB70C960FB6F8949EBF0FBE8DBF0E9498
:1028E000C9139C0190912F0280913002982B21F006
:1028F00030932C0220932B0290913102809132026E
:10290000982B21F030932A02209329028DE292E045
:102910000E946C060895CF931092D101C6E0E2EABE
:10292000F1E0DF018C2F1D928A95E9F790E080E0BD
:102930000E94470690E080E00E9422061092C801A3
:102940000E94D70EEDE2F2E0DF011D92CA95E9F791
:102950001092270210922502109226020E94D5138F
:10296000CF910895AAE2B0E0E8EBF4E10C94CE2A0E
:1029700080E592E02091F100DC012D93CD01B2E0E1
:1029800088359B07B9F780915102833009F472C0F2
:10299000B8F4813009F449C0823009F4B3C08091A1
:1029A000E80083FF91C280915002909151029A30C9
:1029B00008F08AC2E92FF0E0E357F14D0C94B22AF7
:1029C0008A3009F48EC08B3009F471C0893039F730
:1029D00080915002813219F78091540290915502F2
:1029E000009711F00297D9F68091E800877F8093D5
:1029F000E8008091E80082FF38C09091F300809158
:102A0000F200029731F48091F100813011F08630AC
:102A100021F48091F100809343028091E8008B774C
:102A20008093E8000E94B204BACF80915002813AAC
:102A300009F0B5CF8091E800877F8093E80080910E
:102A4000540290915502892B61F468E084E492E08D
:102A500070E00E945E058091E8008B778093E8002B
:102A60009ECF60E090E080E0F3CF80914E02811134
:102A7000C0CF95CF80915002813A09F090CF8091DC
:102A8000540290915502892B09F089CF8091E8007A
:102A9000877F8093E8008091E80080FFFCCF8091E1
:102AA0000A018093F1008091E8008E77B9CF809180
:102AB0005002813209F073CF8091540290915502F7
:102AC000892B09F06CCF8091E800877F8093E80024
:102AD0000E94B2048091520280930A010E948B14DA
:102AE0005ECF80915002813209F059CF8091E80089
:102AF000877F8093E8000E94B20480915302809304
:102B000042024DCF80915002813A09F048CF809126
:102B1000E800877F8093E8008091E80080FFFCCF89
:102B200080914202BECF803899F0823809F0CCC142
:102B3000809154028F70873008F0C6C18093E900FD
:102B40008091EB0085FB882780F91092E90006C090
:102B500080914C0290914D02911182609091E80019
:102B6000977F9093E8008093F1001092F10080919C
:102B7000E8008E77A5C1882309F493C1823009F05B
:102B8000A3C180915202811196C1809154028F702D
:102B90002FEF280F263008F097C18093E90020918D
:102BA000EB0020FF88C1933031F48091EB0080620C
:102BB0008093EB0080C19091EB0090619093EB00CB
:102BC00021E030E001C0220F8A95EAF72093EA0065
:102BD0001092EA008091EB008860EACF811174C105
:102BE000109152021F778091E3008078812B8093AF
:102BF000E3008091E800877F8093E8000E94B204A0
:102C00008091E80080FFFCCF8091E3008068809392
:102C1000E30082E0111183E080934E0255C1805899
:102C2000823008F051C120915202309153022C3D64
:102C3000E3E03E07A1F583E08A838AE289834FB708
:102C4000F894DE01139620E03EE051E2E32FF0E03D
:102C500050935700E49120FF03C0E295EF703F5F6F
:102C6000EF708E2F90E0EA30C0F0C7968D939D9361
:102C70002F5F243159F74FBF8091E800877F809301
:102C8000E8006AE270E0CE0101960E945E05809144
:102C9000E8008B778093E80017C1C096E7CF80915A
:102CA000540290915502432F55274330510509F4A2
:102CB0004AC078F54130510509F47AC084E790E0C4
:102CC000E4EEF5E04230510509F0FEC02091E80045
:102CD000277F2093E80020915602309157028217F7
:102CE000930708F49C0140E02115310509F065C007
:102CF000411163C08091E80082FDC9CF80914E02EE
:102D0000882329F2853019F28091E80083FFF2CF01
:102D1000BECF4132510509F43CC04232510509F0A1
:102D2000D3C08430910508F0CFC0FC01EE0FFF1F27
:102D3000E357FE4F0190F081E02D87579E4FDC0155
:102D40008C9190E01AC0332721303105D1F0211544
:102D5000310561F02230310509F0B6C0EAE6F6E04F
:102D6000E4918E2F90E0EAE6F6E007C0E2EBF6E0B1
:102D7000E4918E2F90E0E2EBF6E0009709F4A4C016
:102D8000A5CFE4E8F6E0E4918E2F90E0E4E8F6E0E9
:102D9000F4CF8430910508F097C0880F991FFC018B
:102DA000EB56FE4F0190F081E02D89E090E08ECF50
:102DB00082E190E0E8E5F6E089CF80914E02882339
:102DC00009F465CF853009F462CF8091E80083FD76
:102DD0005ECF8091E80082FD8DCF8091E80080FF7A
:102DE00083CF9091F3008091F2002115310519F005
:102DF0008830910550F041E0089709F040E080915B
:102E0000E8008E778093E8006FCF44914093F10003
:102E10003196215031090196E8CF803809F054C02D
:102E20008091E800877F8093E80080914F02809333
:102E3000F1009DCE811148C010915202123008F06D
:102E400043C08091E800877F8093E80010934F0291
:102E50000E94B204112311F084E005C08091E300C8
:102E600087FDFACF81E080934E0242E061EC81E081
:102E70000E94D10442E261EC84E00E94D10442E26B
:102E800061EC82E00E94D10442E260EC83E00E94A7
:102E9000D10442E261EC85E00E94D10480914E02AF
:102EA00013C080915202813079F481E0933009F0AF
:102EB00080E080934D021092E9008091E800877FC6
:102EC0008093E8000E94B2048091E80083FF0AC06A
:102ED0008091E800877F8093E8008091EB0080621A
:102EE0008093EB00AA96E3E00C94EA2A1F920F92DB
:102EF0000FB60F9211242F933F934F935F936F93CD
:102F00007F938F939F93AF93BF93CF93DF93EF9371
:102F1000FF93D091E900DF708091EC00C82FC17061
:102F200080FDC0E81092E9008091F000877F8093D7
:102F3000F00078940E94B2141092E9008091F000A1
:102F400088608093F000CD2BCF70C093E900FF9193
:102F5000EF91DF91CF91BF91AF919F918F917F9131
:102F60006F915F914F913F912F910F900FBE0F90F6
:102F70001F9018950E948B142FEF84E39CE0215042
:102F800080409040E1F700C0000088E19CE00FB66F
:102F9000F894A895809360000FBE90936000FFCFD7
:102FA000662309F472C08D3C41F40E94A906819504
:102FB000809330020E94D51308958E3C19F40E942C
:102FC000A906F6CF8F3C31F40E94A9068195809323
:102FD0002F02F0CF803D19F40E94A906F8CF893D59
:102FE00029F40E94870680933102E4CF8A3D21F4C0
:102FF0000E9487068195F7CF8B3D31F40E948706AA
:10300000819580933202D6CF8C3D19F40E948706B9
:10301000F8CF9FE2980F983020F5282F215D330BD1
:10302000A90121E030E001C0220F4A95EAF7909112
:103030002E02922B90932E02815D21E030E0A901B7
:1030400002C0440F551F8A95E2F7CA01209117026A
:10305000662309F493C0822B809317020E94640FA9
:1030600008958D3D31F4809126028160809326027F
:10307000A1CF8E3D21F4809126028260F7CF8F3D53
:1030800019F5809126028460F1CF90912F028D3C3A
:1030900059F42091300227FF0DC010923002911197
:1030A0000BC01092270208C08E3CB1F42091300270
:1030B00012169CF39923B1F09091310220913202C3
:1030C000922B11F410922502482F415D550B483088
:1030D000510508F4B1CF6ECF8F3C39F497FFEACF9A
:1030E00010922F0290913002DACF803D19F4191618
:1030F000BCF3E0CF20913102893D29F41216D4F6B9
:1031000010923102D7CF8A3D19F427FFD3CFF8CFE1
:10311000209132028B3D29F427FFCCCF109232024E
:10312000C9CF8C3D19F41216CCF3C4CF2FE2280F6F
:10313000283088F4282F215D330BA90121E030E0ED
:1031400001C0220F4A95EAF7209530912E022323E1
:1031500020932E02AFCF209126022E7F8D3D59F075
:10316000209126022D7F8E3D31F08F3D09F0A2CFB8
:10317000209126022B7F209326029CCF80958223CC
:103180006BCF8823D1F19CEF980F913A78F4E2EA63
:10319000F1E09191891303C0DF0111971C9291E036
:1031A000E83AF907B1F70E94D70E089590E2980F18
:1031B000983050F4877091E001C0990F8A95EAF732
:1031C000892F0E946409EFCF9BE5980F933028F474
:1031D00090E080E00E944706089598E5980F9B31A3
:1031E00028F490E080E00E942206089593E3980F6F
:1031F000933118F460E00E94D0170895CF93C82F40
:103200008823B1F08CEF8C0F813A00F5E2EAF1E00F
:1032100088EA91E0DF012D91C21761F08A179B07C0
:10322000D1F76C2F80EA91E00E9408060E94D70E29
:10323000CF9108952191C21303C0DF0111971C9211
:103240008E179F07B9F70E94D70EEBCF80E28C0F45
:10325000883068F4C77021E030E001C0220FCA95C1
:10326000EAF78091D101822B8093D101DFCFEBE58A
:10327000EC0FE33040F4F0E0E45FFE4F808190E03B
:103280000E944706D5CFE8E5EC0FEB3150F4F0E0B3
:10329000EE0FFF1FE15FFE4F808191810E942206A9
:1032A000C7CF83E38C0F833118F661E08C2F0E9427
:1032B000D017BECF1F93CF93DF93182FEB010E943F
:1032C000FE18209739F4812F0E94C118DF91CF9109
:1032D0001F9108958FE99FE00197F1F700C000006A
:1032E0002197EFCF0F931F93CF93DF93C62FD42F48
:1032F000022FFC0185818823A9F0609395020E942A
:10330000C9139093940280939302C77081E001C027
:10331000880FCA95EAF70E945A0FDF91CF911F914B
:103320000F91089580919502681334C080919302A3
:10333000909194020E94C005883C910558F510E2D6
:103340001D0FCD17B9F080E28C0F883040F4C770A4
:1033500081E001C0880FCA95EAF70E94530F183028
:1033600048F481E09D2F977001C0880F9A95EAF785
:103370000E945A0F70E060E0802F0E945A191830A6
:1033800060F6D77081E001C0880FDA95EAF70E94F5
:10339000530FC3CFC77081E001C0880FCA95EAF709
:1033A000F6CFA8E0B0E0E7EDF9E10C94C12A8C017A
:1033B000DC0114968C911497882309F4C1C021E094
:1033C0004C9111965C91119712966C9112971396ED
:1033D0007C91139715969C910E94BF0D7C01F8017A
:1033E0008581882309F44BC197013757203831056F
:1033F00008F0D3C5FFE0FE1508F492C08FEF93E00C
:103400000E94F62A81118CC068E9A62E62E0B62ED1
:10341000E11050C0FE01339686E0DF011D928A95CF
:10342000E9F75AE0452E7501BFEFEB1AFB0AC5011B
:103430000E94F62A89831A82882309F471C0813098
:1034400009F082C06501E2E0CE0ED11CC7010E94E6
:10345000F62A8A83882309F463C09FEF980F93307C
:10346000B8F5F3E0AF0EB11CC6010E94F62A8B83BB
:10347000882309F455C01C82CE0101967C01D70136
:103480002C91222381F2213009F0A0C011969C9149
:10349000119712968C91913009F058C0B2E0EB0E62
:1034A000F11C70E060E0893311F460E570E00E9487
:1034B0005A1953C0A11424E0B20691F1C5010E942B
:1034C000F62A811101C0EA943FEFA31AB30AA0CFF4
:1034D0005601843089F642E0E42EF12C56012FEF9C
:1034E000A21AB20AC6010E94F62AE1E0F0E0EC0F4F
:1034F000FD1FEE0DFF1D8083882391F08C3741F472
:10350000E2E0F0E0EC0FFD1FEE0DFF1D1082B4CFE6
:103510003FEFE31AF30A650147E0E416F104F1F620
:103520008091C601877061F0D80115968C9188232F
:1035300039F08091E20182FF03C082E00E942C0AF0
:103540002896E0E10C94DD2A570196CF923049F499
:10355000E2E0EE0EF11C0E94FE185FEFE51AF50A9C
:103560008ECF933031F4F2E0EF0EF11C0E94C118BF
:10357000F4CF943021F02FEFE21AF20AEECF32E0CE
:10358000E30EF11C30E020E0B7016F5F7F4FD70101
:1035900011964C918053990B8A30910560F021155A
:1035A0003105D9F2EFE9FFE03197F1F700C00000F3
:1035B00021503109F4CF429EF001439EF00D1124B9
:1035C0009C012E0F3F1F842F7B01DECFE22FF0E006
:1035D000E051FE4F5490822F86958695869590E017
:1035E000FC01E052FE4F64902770712C022E02C045
:1035F000759467940A94E2F7F1E06F227724FC0156
:10360000E053FE4F8490912C022E02C09594879433
:103610000A94E2F731E083229924FC01E054FE4F42
:10362000C490D12C02C0D594C7942A95E2F741E00A
:10363000C422DD246114710419F081EE0E94FE1889
:103640008114910419F086EE0E94FE1870E060E08B
:10365000852D0E945A198114910419F086EE0E945A
:10366000C1186114710419F081EE0E94C118C114CF
:10367000D10409F472CF70E060E08CE218CFF7015A
:10368000FE57EC30F10508F0F7C0E956F14D0C9407
:10369000B22A8823A1F081E08093100210920C02DC
:1036A00010920D0210920E0210920F021092080258
:1036B0001092090210920A0210920B0231CF10925E
:1036C000100210920402109205021092060210924B
:1036D0000702109200021092010210920202109250
:1036E00003021ECF20911102822F8F7190E04F961E
:1036F000382F3F71207E232B209311028F71992741
:10370000019624E6DC012A9FC0012B9F900D112415
:103710000E943B0705CF882309F402CF20911102B4
:10372000822F8F7190E00196382F3F71207E232BDE
:10373000209311028F719927019624E6FC012E9F98
:10374000C0012F9F900D1124E3CF882309F4E8CE08
:1037500090911202892F97FB87F98058809312026B
:10376000DFCE882309F4DCCE20911102922F9295AE
:103770009695977030911202832F8170880F880F71
:10378000880F892B90E00196982F9295990F907E43
:103790002F71292B2093110283FB882780F93E7F0C
:1037A000832BDCCF882309F4BBCE20911102922F0A
:1037B00092959695977030911202832F8170880FA1
:1037C000880F880F892B90E00F96DECF882309F4AD
:1037D000A7CE20911202822F86958F7090E00E96D0
:1037E0006FE070E00E948A2A8F70880F217E282B5C
:1037F0002093120295CE882309F492CE20911202D2
:10380000822F86958F7090E00196EACF882309F485
:1038100087CE90911202892F8F7D95FF80629ECF77
:10382000882309F47DCE90911202892F8F7B96FF19
:10383000806494CF882309F473CE0E946A0A809131
:1038400011028F7190E0019624E6AC01249FC00123
:10385000259F900D11245CCF882309F461CE4091FF
:1038600011025091120260911302709114028FE0C4
:1038700090E00E942C2B54CEF701E851FC47E73032
:10388000F10510F5ED55F14D0C94B22A26E241EE0A
:1038900061EEC8010E94721943CE27E245EE65EE43
:1038A000F8CF26E241EE60EEF4CF27E245EE64EE7B
:1038B000F0CF26E241EE62EEECCF27E245EE66EE77
:1038C000E8CF28E241E0EBCF882309F44EC3109201
:1038D0009502C7019057839708F02FC384E090E0CA
:1038E0000E94042B9093E2018093E101F701E150E3
:1038F000F047E232F10520F4E655F14D0C94B22A7E
:103900008091E10181608093E10195C08091E201A5
:1039100088608093E2018FC08091E1018260F3CFE3
:103920008091E1018460EFCF8091E1018860EBCF6D
:103930008091E2018160EDCF8091E2018260E9CF68
:103940008091E1018061DFCF8091E1018062DBCF76
:103950008091E1018064D7CF0E948B148091E101B6
:103960008068D1CF8091E1018C60CDCF8091E20160
:103970008360CFCF8091E1018E7FC5CF8091E2013E
:10398000877FC7CF8091E1018D7FBDCF8091E1011D
:103990008B7FB9CF8091E101877FB5CF8091E20124
:1039A0008E7FB7CF8091E2018D7FB3CF8091E1010F
:1039B0008F7EA9CF8091E1018F7DA5CF8091E1011C
:1039C0008F7BA1CF0E948B148091E1018F779BCFD9
:1039D0008091E101837F97CF8091E2018C7F99CF25
:1039E0008091E10182FB992790F921E0922790FBD9
:1039F00082F990FB83F987CF8091E201982F90950F
:103A000091708E7F892B90FB81F983CF9091E1019A
:103A1000892F8F7B96FF806476CF0E948B149091C4
:103A2000E101892F97FB87F980586DCF61E08EE027
:103A300090E00E941A2B6091E1017091E20184E014
:103A400090E00E94382B0E948B146ACD60E0EFCF8B
:103A50009091E101892F8F7E94FF806154CF9091E6
:103A6000E101892F8E7F90FF81604DCF9091E2011F
:103A7000892F877F93FF88604CCF85E380C281E0E8
:103A80000E94430A03C081E00E941F0A43E062E0F3
:103A900081E00E94FF0944CD82E0F2CFEBE5EE1613
:103AA000ECE7FE0609F442C0FCE5EF16FCE7FF0672
:103AB00099F12AE5E2162CE7F20609F0A7C281E0A7
:103AC00032C00E948B143FEF44E35CE03150404031
:103AD0005040E1F700C000000E94450B9091280281
:103AE000892F8E7F90FF81608093280280FF09C01C
:103AF00082E892E09F938F930E943A040F900F9078
:103B00000FCD80E792E0F6CF6FEF7FEF90E080E09F
:103B10000E94382B0E94BA178091E20182FB88270D
:103B200080F991E089270E94381270C280E0FBCFB3
:103B3000C7010E949C09D82E78C2FF2DFF70BF2EAE
:103B40008F2D807F19F0B29490EFB922AA20B9F09E
:103B5000BB2069F080E28E0D883010F0811009C022
:103B60008091D101B82AB092D1010E94D70E8E2D3A
:103B700045C08091C801B82AB092C801F6CF8E2DF9
:103B80000E94C118BB20E1F180E28E0D883010F058
:103B9000811004C08B2D0E94640906C0B0948091EE
:103BA000C801B822B092C8010E94D70E29C02F2D9B
:103BB0002F70B22E8F2D807F803219F0B29480EF5B
:103BC000B822882059F031E0831609F482C0AA2077
:103BD00009F48EC0992009F44FC0C9CF8091E20149
:103BE00082FD46C0AA20F1F1BB2039F08091D101BD
:103BF0008B298093D1010E94D70E80E00E94FE188D
:103C0000AC2DA850BB0B149710F40E947A06DD204F
:103C1000A9F08091C60180FD11C0F801158286953A
:103C2000869586950E94430AC8010E94D119809109
:103C3000C6018695869586950E941F0A20E0D801C8
:103C40004C9111965C91119712966C911297139664
:103C50007C91139714968C91149715969C910E94C1
:103C6000BF0D6ECC80E00E94C118BB2049F292CFFC
:103C7000AA20A1F0911004C08B2D0E945A0FC0CF32
:103C800041E09412BDCF8091C7019B2D9823B916B6
:103C900009F4B6CF8B298093C701B2CF9110B0CF72
:103CA0008B2D0E94530F9091C7018B2D892329F0F2
:103CB0008B2D809589238093C7019091A9018B2D2D
:103CC000892309F49DCF8B2D809589238093A901A9
:103CD00097CFAA2029F055E0591508F491CFCCCF01
:103CE00084E0891508F48CCF8B2D0E94530F88CF68
:103CF0009920D1F399E3891209C0AFEFB7EEE3E061
:103D0000A150B040E040E1F700C000008E2D0E94BD
:103D1000C11876CF8F2D86958695837061F081309E
:103D200009F06ECFC7019370A11002C080E090E04F
:103D30000E94220665CFC7019370A11002C080E0E7
:103D400090E00E9447065CCF6A2D8E2D0E94D0170E
:103D500057CF8F2D837091F5A11052CF4E2D4295E4
:103D600046954770440F440F8E2D8F70042E01C06E
:103D7000880F0A94EAF72E2D2071E4FE07C02FE089
:103D800030E001C0220F4A95EAF720953F2D369585
:103D900036953370323069F050F44091DF013130A4
:103DA00029F0822B84230E944F0A2ACF842B822B56
:103DB000FACF282B8091DF018227F5CF8695AA20A4
:103DC00011F08F2D8170882309F41ACF4E2D429562
:103DD00046954770440F440F8E2D8F70042E01C0FE
:103DE000880F0A94EAF72E2D2071E4FE07C02FE019
:103DF00030E001C0220F4A95EAF720953F2D369515
:103E000036953370323069F050F44091E001313032
:103E100029F0822B84230E94FC09F2CE842B822B72
:103E2000FACF282B8091E0018227F5CFFF2DFF707C
:103E3000FF2EAA2029F08F2F0E94430A8E2D1DCF1E
:103E40008E2D0E94530F8F2D0E941F0AD9CE8E2DCA
:103E500022EF8216B1F1281570F030EF8316D1F001
:103E600041EF841691F0AA2009F457C091107FCE3B
:103E70008F2D8F712AC053EF851651F194EF89125F
:103E8000F2CF9091E20192FD2FC08F2D8F71AA2069
:103E9000D9F21BC0AA2081F0A4E0A91508F4B0CE85
:103EA0002F2D2F7181E090E001C0880F2A95EAF74D
:103EB0009091E0018927AFCFB5E0B91508F4A0CE05
:103EC000EFCF8F2D8F71A110BFCF0E94430A98CEE4
:103ED00080E0AA2009F49FCF9F2D9F7181E001C04F
:103EE000880F9A95EAF797CFAA2061F08F2D8F71EE
:103EF00092FFEBCFE8E08E9F900111242360209386
:103F0000C601E3CF81E00E942C0AF1E0F91508F028
:103F100077CE82E00E942C0A73CE992059F0893323
:103F200009F0F4CE2FEF37EE43E02150304040400F
:103F3000E1F7EACE8F2D8F7187CFB6E1EB16BCE7A4
:103F4000FB0609F042C08091D1018A7A91E009F420
:103F500090E09093A80169E2811165E380EA91E025
:103F60000E9408060E94D70EDBCAE6E1EE16ECE7D7
:103F7000FE06E9F48091A80181117FCD89E2E2EA91
:103F8000F1E028EA31E09191891303C0DF01119734
:103F90001C922E173F07B9F7E5CFF701FE57EC301B
:103FA000F10508F069CCE453F14D0C94B22AF7E71F
:103FB000EF16FCE7FF0609F466CD82E028E7E2167B
:103FC0002CE7F20609F460CD21C037E7E3163CE7A1
:103FD000F30609F454CD48E7E4164CE7F40609F477
:103FE0005BCD53E0E5165CE7F50609F48DCD08F0EE
:103FF00055CD91E0E9169CE7F90609F48BCD08F060
:104000006DCDE114BCE7FB0609F45BCDF8018581B9
:10401000E080F180882309F48BCDC7010E94600DF8
:10402000D82E682FC7010E94E209B7018D2D0E948A
:10403000410D0E9446087C01882ED8011596AC904F
:10404000159716969C9092943FE093228091C6011A
:10405000877009F1DA2CAA20F9F08F2D807F803447
:1040600069F080E28E0D8830B0F08F2D807E803236
:1040700029F4B1E0BE1578F4992069F08091E2014D
:1040800082FF09C082E00E942C0A8091C6018770DD
:10409000DD24D3948111D12CCF2CC2942FE0C222E5
:1040A000EBE0EC1508F4ACCDEC2DF0E0E852F14D6E
:1040B0000C94B22ACF93DF938091C501807F09F0E1
:1040C0004DC08091C401882309F448C0E091920258
:1040D00050915902C091C001D091BF016091C101BE
:1040E0007091C20147E05E17C9F18E2F90E0E49F06
:1040F000F0011124E65AFD4F2481222391F1489FBB
:10410000F001499FF00D1124DF01A65ABD4F119611
:104110002C9111972C1325C02C912D1322C015968C
:104120002C91159721111DC012962D913C91261BA3
:10413000370B283C3105A8F48091C5018F70806150
:104140008093C501E05AFD4F80818F70806180832C
:104150008FEB91E00E94D1190E946B09DF91CF9102
:104160000895FC013196E770BECFA4E1B0E0EBEB1F
:10417000F0E20C94C52A8C0186E0F801DE011F965E
:1041800001900D928A95E1F7F8018481E5809FEB1B
:10419000A92E91E0B92E9091C301911128C08823D6
:1041A00019F1EE20F1F0C8010E949C0DF82E882331
:1041B000C1F087E0F801D50101900D928A95E1F7F1
:1041C0008091C301813031F48091BF019091C00191
:1041D0000E948F0D0E945A208F2D6496ECE00C9463
:1041E000E12AC8010E94D119FF24F394F5CFD080B1
:1041F000C18082809380F090C4012091C1013091F0
:10420000C201A401421B530BFF2009F4D9C0483C52
:10421000510508F092C08823F9F29091C001809175
:10422000C501282F207F09F056C0C91214C09091F3
:10423000BF01D91210C0E11048C08F708061809317
:10424000C5018FEB91E00E94D1198091C501F80161
:104250008683F12CC1CFE11038C06C2D8D2D0E94CA
:1042600043046C2D8D2D0E944304E82E8111F1CF63
:10427000DF86C88A8F8598890E948F0D292F229505
:104280002F70243058F49F70223088F0992399F0D1
:10429000F8019681907F79F4FE2C9ECF2A5F2F70D3
:1042A000223068F0C8010E94D119EF2CF5CF992374
:1042B00011F0882389F3805E883070F3F3CF803F5C
:1042C00058F3815F833070F7E7CF8091C50181603B
:1042D0008093C501BECFC91207C09091BF01D9120A
:1042E00003C0EE2009F48DC0C8010E949C0D8823F4
:1042F00009F477CFEE2009F474CF8091C5018032A4
:1043000088F02091BF013091C001398728879B86B2
:104310008A869091C3019C871D868E87CE01089660
:104320000E94D11987E0F801AFEBB1E001900D9246
:104330008A95E1F70E945A2057CF9091C501292F05
:10434000207F51F48FEB91E00E94D11987E0F501B5
:1043500011928A95E9F77DCF882309F43DCF8091AA
:10436000C0018C1110C08091BF01D8120CC0E110A7
:104370000AC09683C8010E94D11987E0F501119205
:104380008A95E9F729CFC8010E949C0D882309F47A
:1043900028CFEE2009F425CF8091C501803210F29C
:1043A0002091BF013091C0013A8329839C828B8286
:1043B0009091C3019D831E828F83CE010196B0CF61
:1043C000483C5105D0F6882309F40ECFFE2CEE2090
:1043D00009F407CF8091C0018C1120C08091BF01EA
:1043E000D8121CC08091C50180FD0FC0982F907F0E
:1043F00061F08683903F31F0982F907F905F8F70AF
:10440000892B8683C8010E94D11987E0F801AFEBA0
:10441000B1E001900D928A95E1F7DECEC8010E94CD
:104420009C0D81117FCF8091C50181608093C50172
:10443000C8010E94D119D0CEABE1B0E0E2E2F2E2D5
:104440000C94CD2A4E8B5F8B688F798F8A8F9B8FD0
:10445000192F91111092C8011D8A86E0FE017696EF
:10446000DE011F9601900D928A95E1F70A8D0023D7
:1044700041F021E04F85588969897A89C8010E94F5
:10448000BF0D0B8B1C8B87E0FE013F96DE0118965B
:1044900001900D928A95E1F7CE0108960E94B52011
:1044A00081110CC087E0FE013896DE011196019063
:1044B0000D928A95E1F78C8581110BC017E08091F0
:1044C000920290915902891331C06B96E4E00C94EA
:1044D000E92A2091590230E0C90101968770992795
:1044E000409192024817190699F097E0929FD001E7
:1044F000939FB00D1124A65ABD4FFE013196019035
:104500000D929A95E1F7809359020E946B09D6CFDC
:104510000E948B14109259021092920287E0EFEBE6
:10452000F1E0DF011D928A95E9F7C8CF819FC001B4
:104530001124865A9D4F0E94B520882331F2809124
:10454000920290E001968770992780939202B7CFEC
:10455000A8E0B0E0EEEAF2E20C94C52A8E010F5F0B
:104560001F4F88E0F80111928A95E9F795E4E92E4A
:1045700091E0F92E6801AA24A394B12CF70181914E
:104580007F018F3F09F446C0F894E82FE295EF7061
:10459000F0E021A18F70A50102C0440F551F8A953C
:1045A000E2F7CA01922F982B91A392A180958923BB
:1045B00082A3789400C0E9E4F1E021E030E0912C9E
:1045C000812C41914F3F09F44EC0A42FA295AF70AA
:1045D000B0E090968C9190E04F7002C095958795D1
:1045E0004A95E2F780FD3FC0C901882A992A220F27
:1045F000331F51E0E535F50721F7F7013197808149
:104600008F3F11F00E943E0780EA8A95F1F7F6018C
:1046100091828082F2E0CF0ED11C49E4E41641E0A1
:10462000F40609F0ABCF48E050E0B80187ED91E027
:104630000E947E2E892BE1F088E0F801A7EDB1E021
:1046400001900D928A95E1F781E08093D6010E9456
:10465000C9139093D5018093D40110E0812F28963F
:10466000ECE00C94E12A90E080E0BFCF10E01FC0A6
:104670001091D601112389F38091D4019091D50135
:104680000E94C005059748F348E050E067ED71E0EF
:1046900082EF91E00E947E2E892B41F388E0E7EDC6
:1046A000F1E0A2EFB1E001900D928A95E1F710924E
:1046B000D601D4CFA6E0B0E0E0E6F3E20C94CD2A38
:1046C0000E94C9138C018091D2019091D30180176F
:1046D000910781F019821A820E94C913682F4981BB
:1046E0005A81792F80E090E00E941C221093D30120
:1046F0000093D2012696E4E00C94E92A1F921FB69B
:104700001F9211248F939F93AF93BF93809139028F
:10471000811113C080913A0290913B02A0913C021A
:10472000B0913D024196A11DB11D80933A02909334
:104730003B02A0933C02B0933D02BF91AF919F9189
:104740008F911F901FBE1F901895CDB7DEB7E497CD
:104750000FB6F894DEBF0FBECDBF85B7806885BFAA
:1047600085B7806885BF84B7877F84BF0FB6F8940C
:10477000A89580916000886180936000109260002D
:104780000FBE80E890E00FB6F8948093610090939C
:1047900061000FBE86E89AE090939F0180939E018E
:1047A0000E9462040E9403058091E200846080936D
:1047B000E200789480914E028823A1F01091E900E4
:1047C0001F709091EC00892F817090FD80E8182B6C
:1047D0001092E9008091E80083FD0E94B2141F70DE
:1047E0001093E90082E084BD93E095BD9AEF97BDF8
:1047F00080936E000E94C00C811102C00E94B00C18
:10480000EDE1F2E088E0DF011D928A95E9F782E0B0
:104810008093EF0160E080E00E94F30661E080E0B9
:104820000E94F30660E081E00E94F30661E081E00F
:104830000E94F306EFE8F1E03197F1F700C00000C5
:1048400010E08091EF01181708F4DFC086EC0E9499
:104850003E0786EF0E943E0787EF0E943E0787E6ED
:104860000E943E0709E411E0D8018D918D018F3F30
:1048700011F00E943E07B1E005351B07A9F788E05B
:10488000E2EFF1E0DF01282F1D922A95E9F7E7ED2D
:10489000F1E0DF011D928A95E9F78FE090E00E9438
:1048A000FE2A609311027093120280931302909378
:1048B000140290E080E00E94042B853E9E4F21F47C
:1048C0000E94C00C81117AC065EE7EEF90E080E01E
:1048D0000E94382B60E082E090E00E941A2B81E079
:1048E0008093DF0161E083E090E00E941A2B60E09A
:1048F00074E184E090E00E94382B60E086E090E074
:104900000E941A2B60E087E090E00E941A2B40E0A2
:1049100050E0BA0188E090E00E942C2B60E083E236
:1049200090E00E941A2B60E08CE090E00E941A2B2D
:1049300060E08DE090E00E941A2B19821A821B829F
:104940001C821D821E821F82188648E050E067E1AB
:1049500070E0CE0101960E940A2B40E050E0BA01BF
:104960008FE190E00E942C2B80E00E94CB0B0E94F4
:10497000B00C8FE090E00E94FE2A609311027093C9
:1049800012028093130290931402672B682B692BF9
:1049900071F40E946A0A40911102509112026091D2
:1049A0001302709114028FE090E00E942C2B40E0E3
:1049B00050E0BA0183E190E00E942C2B82E090E06D
:1049C0000E94F62A8093280284E090E00E94042B43
:1049D0009093E2018093E1010E94A822EFEFF6E7B5
:1049E00021E0E150F0402040E1F700C000000E94CB
:1049F000A8228091F20180FF1AC06FEF7FEF90E054
:104A000080E00E94382B0E94450B60E0812F0E94BD
:104A1000D706082F61E0812F0E94D706E12FF0E032
:104A2000E351FE4F880F802B80831F5F0ACF83E006
:104A300090E00E94F62A0E944F0A0E947F0E809109
:104A400011028F7190E0019624E6AC01249FC00111
:104A5000259F900D11240E943B0780E091E09093E8
:104A60003602809335025524539422242394809156
:104A70004E028530A9F48091280280FF08C089EC9D
:104A800092E09F938F930E943A040F900F90809131
:104A90004E02853009F45FC00E948B140E947A0692
:104AA0000E94A82223EEC22E21E0D22EA2EFB1E076
:104AB000BCABABABF601219131918D919D9141E061
:104AC000EB3EF40709F47FC028173907A1F3809162
:104AD000280281FDBEC0912CABA9BCA90D911D91EE
:104AE000BCABABABF601A190B1906F01A016B106C3
:104AF00059F1A026B126812CEE24E394F12CC501B6
:104B00008E219F21892BB1F08DA69EA60E94C913EC
:104B100098AB8FA729AA91E098012E213F21232B42
:104B200009F490E09AAB4DA55EA56FA578A989A977
:104B30000E941C228394EE0CFF1CFCE08F12DFCF3E
:104B4000F601329711830083939424E09212C4CF2C
:104B50000E94CF053EC080914E02843031F10E9408
:104B60008D0F10923902E8E1F0E020E40FB6F894DE
:104B7000A895E09360000FBE2093600083B7817F0B
:104B8000846083BF83B7816083BF7894889583B73F
:104B90008E7F83BF0FB6F894A895809160008861DE
:104BA00080936000109260000FBE0E94A822E2EF86
:104BB000F1E081919191892B09F050C241E0EA3FE7
:104BC000F407B9F764CF2817390709F080CF0E949E
:104BD0005A238091F001882351F01092F0018091C6
:104BE0001F028093200280911D0280931E02B12C2F
:104BF0008091EF01B81608F474C090E04CEFF42EE9
:104C000053E0E52E6DEFD62E72E0C72E8091200284
:104C100020911F02281709F43EC2E82FF0E0EF5D53
:104C2000FD4F108117FB002700F91F778F5F8370FE
:104C30008093200280911E028F5F80931E020111DB
:104C400099C00E94C91319A3FAA29CA38BA3EDA239
:104C500098C08FEE92E09F938F930E943A040F903A
:104C60000F90A2EFEA2EA1E0FA2E10E000E0BAEEDB
:104C70008B2EB2E09B2E87EEA82E82E0B82E91EE0E
:104C8000692E92E0792E1F930F939F928F920E942C
:104C90003A04BF92AF920E943A04D7018C911196C8
:104CA0003C90B2E0EB0EF11C0E94520A482E832D7C
:104CB0000E94520A4F928F937F926F920E943A0401
:104CC000EFEDF2E0FF93EF930E943A040F5F1F4F66
:104CD0000FB6F894DEBF0FBECDBF0430110599F6B4
:104CE000FACE61E08B2D0E94D706182F60E08B2D45
:104CF0000E94D706E12FEE0FE82B2B2D30E0D901D3
:104D0000A351BE4F9C91892F8370E81789F1990FA9
:104D1000990FE92BEC93D901AB59BE4FCC90EF70B2
:104D2000F0E0EB5AFE4FA90145515E4F7A01008138
:104D3000DA018C91080F0C93002E000C110BD12C72
:104D40000C151D0524F060E08B2D0E9416078827A6
:104D500099278C199D098017910724F061E08B2D0C
:104D60000E941607C801B6010E949E2AF70180839F
:104D7000B3943ECF0E94C91319A3DAA29CA38BA3BC
:104D8000CDA25EA249A15AA16BA17CA18DA19EA139
:104D90000E941C22002391F00E94C9131FA3D8A6D1
:104DA0009AA789A7CBA61CA64FA158A569A57AA545
:104DB0008BA59CA50E941C2291E028CF0E94C913BC
:104DC0001FA3F8A69AA789A7EBA6EDCF50922F02B2
:104DD000BFC150923002C4C15092310205C25092FC
:104DE00032020AC200E210E0AE014F5F5F4F7A016B
:104DF0008091E80085FD0AC08091E8008B77809360
:104E0000E8000E948104882399F348C28091F10050
:104E1000D7018D937D010150110951F73FC21A82CC
:104E20008CE08B831BC08A81823009F44AC228F44B
:104E3000813061F08FEF898311C08330C1F08430FD
:104E4000C9F71B821C821D821E8208C00E94CF05EA
:104E50000E94B82A6B837C838D839E8340E250E05E
:104E6000BE016F5F7F4F82E00E94E80A00CE2B8177
:104E7000822F90E0FE013196225F8430910570F719
:104E8000DC01AA0FBB1FAE50BE4F3C9111964C9156
:104E900043833483019632962813EFCFDFCF8A8184
:104EA000823019F08530D1F2C5CF6B817C818D8144
:104EB0009E810E94B82A87E290E00E941A2BCECFF2
:104EC0004C816B818A810E94120D9827892798272F
:104ED0009E838D83C3CF2D813E81322723273227A6
:104EE0004C816B818A810E94250CB8CF0E944B0CAB
:104EF000B5CFB0E1BA83B2CF5A8288E692CF0A81A9
:104F00001B81102701271027FE0131966F01EC80CD
:104F1000AF014E0D511D7A01C80188569D4FEC140A
:104F2000FD0409F49BCF083651E0150758F40E94A0
:104F3000F62AD60114968C930F5F1F4FFFEFCF1AFE
:104F4000DF0AEACFF6011482F7CF0A811B8110270E
:104F500001271027AE014F5F5F4F6A01EC80E00E22
:104F6000F12EF11CC80188569D4FE016F10609F498
:104F700075CF083651E0150728F4D60114966C91C8
:104F80000E941A2BBFEFCB1ADB0A0F5F1F4FEACF2D
:104F90000E94E40B63CF86E08A8360CF0A811B8185
:104FA000102701271027FE0131966F01EC80AF0119
:104FB0004E0D511D7A01C8018896EC14FD0409F4C8
:104FC0004DCF003452E0150758F40E94F62AD6015E
:104FD00014968C930F5F1F4FFFEFCF1ADF0AEBCFB2
:104FE000F6011482F7CF0A811B81102701271027B1
:104FF000AE014F5F5F4F6A01EC80E00EF12EF11CB5
:10500000C8018896E016F10609F428CF003452E072
:10501000150728F4D60114966C910E941A2BBFEF45
:10502000CB1ADB0A0F5F1F4FEBCF41E08C81811160
:1050300001C040E06B818A810E94D90C46CF2D814E
:105040003E8132272327322741E08C81811101C024
:1050500040E06B818A810E94F40B00CF80914D0269
:10506000882309F414CD50E159BD82E189BD09B40A
:1050700000FEFDCF8091D8008F7D8093D800809175
:10508000E00082608093E0008091E00081FDFCCF31
:105090000E948B14FCCC91110E94CF050E948D0FB1
:1050A00081110E94CF0586E0EDE2F2E0DE0111966B
:1050B00001900D928A95E1F710922F021092300222
:1050C00010923102109232028B819C81892B09F45B
:1050D00047C080912B0290912C020E94C0059C0138
:1050E00090912702992309F4FAC025313105C0F1C6
:1050F0009F3F19F09F5F909327021B81112359F066
:105100000E94A9069FEF11160CF491E0899F802D53
:10511000112480932F021C81112359F00E94A906AB
:105120009FEF11160CF491E0899F802D112480933C
:10513000300280912F02882399F0109130021123C0
:1051400079F00E94C906882309F440CE80932F028B
:10515000812F0E94C906882309F43BCE8093300238
:105160008D819E81892B09F447C0809129029091FD
:105170002A020E94C0059C0190912502992309F4FE
:10518000A9C021353105C0F19F3F19F09F5F909371
:1051900025021D81112359F00E9487069FEF1116E9
:1051A0000CF491E0899F802D1124809331021E819F
:1051B000112359F00E9487069FEF11160CF491E01D
:1051C000899F802D1124809332028091310288239F
:1051D00099F010913202112379F00E94C9068823B8
:1051E00009F4FACD80933102812F0E94C9068823E9
:1051F00009F4F5CD80933202BE016F5F7F4F8DE2DF
:1052000092E00E94DB0581110CC080912F029091E9
:105210003002892B90913102892B90913202892B97
:1052200011F00E94D51386E0FE013196ADE2B2E0A6
:1052300001900D928A95E1F70E947A06182F8091CD
:10524000F1011817A9F01093F1010E94CF05809188
:1052500028028570853061F41F921F9386E093E0E9
:105260009F938F930E943A040F900F900F900F908E
:1052700080914E02843009F0FACB83E08093E900FC
:105280008091E80082FFF3CB8091E80090E085FFF9
:1052900006C00E948104882309F4A4CD91E0809186
:1052A000E8008B778093E800992309F4E0CBE9814B
:1052B000E150E53108F0BECDF0E0EC51F14D0C9439
:1052C000B22A87E290E00E94F62A1B821C821D828D
:1052D0008E83C4CD2B30310508F058CF8DCF2B30C5
:1052E000310508F007CF3CCF289A219A229A2398BB
:1052F0002B9880E58CBD089590910B019F3F09F09C
:1053000071C08F3F09F46EC0611144C010929702C2
:1053100090919702423009F441C0433009F442C0F1
:1053200094604130E1F141E050E042175307E0F171
:10533000909197024031510509F452C0C0F54230B6
:10534000510509F446C04830510509F446C09CB5E2
:1053500020919702922B9CBD90919602992319F06F
:105360009DB591609DBD80930B01E82FE295EF7094
:10537000F0E031A1282F2F7081E090E001C0880F6C
:105380002A95EAF7382B31A392A18095892382A32D
:1053900081E0089590E290939702BACF986090933D
:1053A0009702C1CF9C60FBCF440F551FBECF403446
:1053B000510549F04038510541F04032510539F668
:1053C00021E020939602926001C09360909397022F
:1053D000BECF91E090939602BACF21E0209396023F
:1053E0009160F4CF80E00895CF93DF938EBD0E944B
:1053F000C913EC010DB407FE05C08EB590E0DF9136
:10540000CF9108950E94C9138C1B9D0B8436910582
:1054100088F38EEF9FEFF3CFCF93DF931EBC0E94F4
:10542000C913EC010DB407FE05C08EB590E0DF9105
:10543000CF9108950E94C9138C1B9D0B8436910552
:1054400088F38EEF9FEFF3CF0F931F93CF93DF93EC
:10545000EC018C01060F171FC017D10719F490E05B
:1054600080E005C089910E94F42997FFF5CFDF9174
:10547000CF911F910F9108950F931F93CF93DF93B7
:10548000EC018C01060F171FC017D10739F490E00B
:1054900080E0DF91CF911F910F9108950E940C2A17
:1054A00097FDF7CF8993F0CF80910B018F3F29F1C2
:1054B000E82FE295EF70F0E041A18F7021E030E03D
:1054C000B90102C0660F771F8A95E2F7CB01942FCE
:1054D000982B91A392A1892B82A38FEF80930B012C
:1054E0008DB58E7F8DBD9CB5809197028095892367
:1054F0008CBD10929702109296020895991B79E044
:1055000004C0991F961708F0961B881F7A95C9F753
:1055100080950895AA1BBB1B51E107C0AA1FBB1FA2
:10552000A617B70710F0A61BB70B881F991F5A952F
:10553000A9F780959095BC01CD01089597FB072EA2
:1055400016F4009407D077FD09D00E948A2A07FC40
:1055500005D03EF4909581959F4F08957095619583
:105560007F4F0895EE0FFF1F0590F491E02D0994F1
:1055700069279627692778278727782708952F9204
:105580003F924F925F926F927F928F929F92AF92D3
:10559000BF92CF92DF92EF92FF920F931F93CF9320
:1055A000DF93CDB7DEB7CA1BDB0B0FB6F894DEBFB7
:1055B0000FBECDBF09942A88398848885F846E84DD
:1055C0007D848C849B84AA84B984C884DF80EE8027
:1055D000FD800C811B81AA81B981CE0FD11D0FB630
:1055E000F894DEBF0FBECDBFED010895F999FECF4F
:1055F00092BD81BDF89A992780B50895A6E1B0E0E3
:1056000044E050E00C94402BA8E1B0E042E050E0D0
:105610000C94402BDC01A40FB51F4150504048F0C2
:10562000CB01840F951F2E910E941B2B415050409F
:10563000D0F70895262FF999FECF92BD81BDF89A33
:10564000019700B4021639F01FBA20BD0FB6F894C6
:10565000FA9AF99A0FBE08950396272F0E941B2BE2
:105660000E941A2B252F0E941B2B242F0C941B2BDE
:105670000196272F0E941B2B0C941A2BDC01CB01C7
:10568000FC01F999FECF06C0F2BDE1BDF89A319652
:1056900000B40D9241505040B8F708955058BB27C0
:1056A000AA270E94662B0C94252D0E94EC2C38F022
:1056B0000E94F32C20F039F49F3F19F426F40C9447
:1056C000E92C0EF4E095E7FB0C94E32CE92F0E9403
:1056D0004A2D58F3BA17620773078407950720F01D
:1056E00079F4A6F50C946C2D0EF4E0950B2EBA2FE0
:1056F000A02D0B01B90190010C01CA01A0011124D8
:10570000FF27591B99F0593F50F4503E68F11A1683
:10571000F040A22F232F342F4427585FF3CF469514
:1057200037952795A795F0405395C9F77EF41F1636
:10573000BA0B620B730B840BBAF09150A1F0FF0F00
:10574000BB1F661F771F881FC2F70EC0BA0F621FEC
:10575000731F841F48F4879577956795B795F795DC
:105760009E3F08F0B0CF9395880F08F09927EE0F71
:105770009795879508950E94FC2CE3950C94362DFF
:105780000E94D42B0C94252D0E94F32C58F00E94DB
:10579000EC2C40F029F45F3F29F00C94E32C5111DC
:1057A0000C946D2D0C94E92C0E944A2D68F39923DA
:1057B000B1F3552391F3951B550BBB27AA2762170D
:1057C0007307840738F09F5F5F4F220F331F441F1A
:1057D000AA1FA9F335D00E2E3AF0E0E832D091504E
:1057E0005040E695001CCAF72BD0FE2F29D0660F3B
:1057F000771F881FBB1F261737074807AB07B0E87E
:1058000009F0BB0B802DBF01FF2793585F4F3AF083
:105810009E3F510578F00C94E32C0C946D2D5F3F66
:10582000E4F3983ED4F3869577956795B795F79509
:105830009F5FC9F7880F911D9695879597F90895F1
:10584000E1E0660F771F881FBB1F6217730784078D
:10585000BA0720F0621B730B840BBA0BEE1F88F79C
:10586000E09508950E94392C6894B1110C946D2D27
:1058700008950E94522D88F09F5798F0B92F9927CC
:10588000B751B0F0E1F0660F771F881F991F1AF02B
:10589000BA95C9F714C0B13091F00E946C2DB1E0F7
:1058A00008950C946C2D672F782F8827B85F39F0F6
:1058B000B93FCCF3869577956795B395D9F73EF4C4
:1058C00090958095709561957F4F8F4F9F4F08956C
:1058D000E89409C097FB3EF490958095709561958A
:1058E0007F4F8F4F9F4F9923A9F0F92F96E9BB2740
:1058F0009395F695879577956795B795F111F8CFBC
:10590000FAF4BB0F11F460FF1BC06F5F7F4F8F4F26
:105910009F4F16C0882311F096E911C0772321F01C
:105920009EE8872F762F05C0662371F096E8862FB4
:1059300070E060E02AF09A95660F771F881FDAF70B
:10594000880F9695879597F90895990FBB0B550F7A
:10595000AA0BE0E8FEEF16161706E807F90770F045
:1059600012161306E407F50760F0BA173CF049F485
:105970006217730784079507A7951BF4B901CA013D
:10598000BA2FB69597950895990FBB0B550FAA0B93
:10599000E0E8FEEF16161706E807F90770F0121692
:1059A0001306E407F50760F0BA1754F031F4261730
:1059B000370748075907A7951BF4B901CA01BA2F41
:1059C000B6959795089597F99F6780E870E060E035
:1059D00008959FEF80EC089500240A941616170688
:1059E00018060906089500240A94121613061406D0
:1059F000050608950C94E92C0E94522DD8F3E894E2
:105A0000E0E0BB279F57F0F02AED3FE049EC06C0ED
:105A1000EE0FBB0F661F771F881F28F0B23A620790
:105A20007307840728F0B25A620B730B840BE3955B
:105A30009A9572F7803830F49A95BB0F661F771FDE
:105A4000881FD2F790480C94302E092E0394000C36
:105A500011F4882352F0BB0F40F4BF2B11F460FF08
:105A600004C06F5F7F4F8F4F9F4F0895EF93E0FF0C
:105A700007C0A2EA2AED3FE049EC5FEB0E94662BEB
:105A80000E94252D0F90039401FC9058ECEAF0E061
:105A90000C94432E57FD9058440F551F59F05F3F0B
:105AA00071F04795880F97FB991F61F09F3F79F040
:105AB00087950895121613061406551FF2CF4695C2
:105AC000F1DF08C0161617061806991FF1CF869544
:105AD0007105610508940895E894BB276627772728
