:100000000C9427030C945F030C945F030C945F0320
:100010000C945F030C945F030C945F030C945F03D8
:100020000C945F030C945F030C9450120C946417AF
:100030000C9491230C945F030C945F030C945F0366
:100040000C945F030C945F030C945F030C945F03A8
:100050000C945F030C9493130C945F030C945F0354
:100060000C945F030C945F030C945F030C945F0388
:100070000C945F030C945F030C945F030C945F0378
:100080000C945F030C945F030C945F030C945F0368
:100090000C945F030C945F030C945F030C945F0358
:1000A0000C945F030C945F030C945F0305A84CCD84
:1000B000B2D44EB93836A9020C50B9918688083CA2
:1000C000A6AAAA2ABE000000803F0631FF0974A13B
:1000D000010975150026FF00952075088102C005ED
:1000E000010902A10185020901A1000509190129DF
:1000F00008150025019508750181020501093009DF
:10010000311581257F9502750881060938158125ED
:100110007F950175088106050C0A38021581257F37
:10012000950175088106C0C005010980A1018503FC
:1001300019012AB700150126B70095017510810035
:10014000C0050C0901A101850419012AA0021501AD
:1001500026A002950175108100C00660FF0961A10B
:10016000010962150026FF009520750881020963C8
:10017000150026FF00952075089102C005010906AB
:10018000A101050719E029E715002501950875016A
:1001900081029501750881010507190029FF1500E5
:1001A00026FF009506750881000508190129051527
:1001B000002501950575019102950175039101C016
:1001C000000000000000000000000000000000002F
:1001D000000000000000000000000000000000001F
:1001E000000000007E0F00D4FFFFFFC70000007872
:1001F00000000000000000002A2B28000000000082
:1002000000000000000000000000002900000000C5
:100210002C1E3420212224342627252E362D373833
:10022000271E1F202122232425263333362E37383C
:100230001F0405060708090A0B0C0D0E0F101112FA
:10024000131415161718191A1B1C1D2F3130232DC6
:10025000350405060708090A0B0C0D0E0F101112C4
:10026000131415161718191A1B1C1D2F3130354C75
:1002700044454255473A2064697361626C65642E57
:100280000A0044454255473A20656E61626C6564D8
:100290002E0A004F6E6573686F743A20616374694B
:1002A00076653A2025640A000A002530325820007D
:1002B0006B6579626F6172645F7265706F72743AB8
:1002C0002025303258207C200073757370656E6471
:1002D000696E67206B6579626F6172640D0A000A4E
:1002E000002530313662003A200025303258000AAD
:1002F000722F63203031323334353637383941424A
:10030000434445460A006C65645F7461736B3A2030
:10031000253032580A0014001A0008001500170092
:10032000000000001C0018000C0012001300040064
:100330001600070009000A00000000000B000D0075
:100340000E000F002D001D001B0006001900050007
:10035000D100D200110010003600370038002944C7
:10036000000000002B282C229041914528422A436E
:1003700000000000097E1E021F022002210222024C
:10038000000000000000260227022F003000230298
:100390002402250231003102000000003300330244
:1003A000340034022E0000000000000000000000B5
:1003B00001000100350035022F0230022E0201003B
:1003C0000000010001000100010001000100010026
:1003D0000100000001005500240025002600570000
:1003E00000000000000000000000000000005400B9
:1003F00021002200230056000000000000005000F1
:10040000520051004F0027001E001F002000630013
:1004100001000100000000000000000000000100D9
:1004200000000100010001000100010001000100C5
:100430000100000001003A003B003C003D003E008E
:10044000000000003F004000410042004300000067
:10045000000000000000000000000000000000009C
:10046000000000000000000000000000000000008C
:100470000100010000000000000000000000010079
:100480000000010001000100010001000100010065
:100490000100000001000C7E0100010001000100CC
:1004A00000000000047E007E017E0A7E0B7E0100BB
:1004B0000100010001000100000000000100057EB4
:1004C000067E0100010001000100010001000100A1
:1004D000027E037E0100077E087E0100010001000C
:1004E0000000010001000100010001000100010005
:1004F000010000000D7ED900DA00A900AA00D90091
:10050000DA00A900AA00D900DA00A900AA00D900DF
:10051000DA00A900AA00017E007E067E057E290A77
:10052000002575002F002575005D2800256400203A
:1005300000256400200025640020002564007C0064
:1005400025303258006D6F7573656B6579205B627D
:10055000746E7C782079207620685D287265702F13
:1005600061636C293A205B005B435D005B445D0086
:100570005B535D005B575D005B525D0009027400D8
:10058000040100A0FA09040000010301010009218F
:10059000110100012244000705810308000109043C
:1005A00001000203000000092111010001222200C4
:1005B0000705820320000107050303200001090449
:1005C00002000103000000092111010001227B004B
:1005D0000705840320000109040300010300000053
:1005E00009211101000122150007058503200001E2
:1005F00012010002000000088287020000010102CF
:10060000000118036D006500740065006F00720042
:100610006900740065003400300000002C034800BD
:1006200061007300680069006B007500720065006E
:100630002D0065006E00670069006E0065006500B2
:10064000720069006E0067000000040309041124B1
:100650001FBECFEFDAE0DEBFCDBF04B603FE18C089
:100660008091990290919A02A0919B02B0919C0274
:100670008730904BA740B04B59F4109299021092DA
:100680009A0210929B0210929C02E0E0F8E3099516
:1006900011E0A0E0B1E0E8E1FEE502C005900D92B6
:1006A000AE39B107D9F722E0AEE9B1E001C01D9241
:1006B000A939B207E1F70E94B8230C949A2E0C9442
:1006C0000000FF93EF93E0919E01F0919F0130971E
:1006D00009F00995EF91FF910895FC018591803013
:1006E00011F0EFDFFBCF0895FF27E0E230E247FF94
:1006F0000CC0419597FF09C0EDE26095709580951B
:100700009095611D711D811D911D27FF02C02195CE
:1007100030E350E2AA27660F771F881F991FAA1F90
:10072000A41710F0A41B63955A95A9F7AA3008F0F6
:10073000A95FA05DAF93F3956115710581059105E2
:1007400041F7ED3211F4EF93F395F21718F43F935C
:10075000F395FBCF8F91B5DFFA95E1F70895E99115
:10076000F9918591803021F0853219F0AADFF9CF17
:10077000089520E0E89455915532C1F3503311F4B7
:10078000689455915A3348F4505390F3220F022E37
:10079000220F220F200D250FF4CF0EF42195899101
:1007A0009991533619F3533729F1533559F1BC0157
:1007B00088279927E8945C3621F489919991689467
:1007C0005591543639F446EF7EF077FF0DC08FEF28
:1007D0009FEF0AC055374AE039F0583540E121F023
:1007E000523642E009F00895FF93EF937DDFEF91D9
:1007F000FF91B7CFFF93EF93FC0181918030B9F364
:1008000060DFFBCFFF93EF9368DFF1CFDF93CF93F0
:10081000CDB7DEB72596A3DFCF91DF91089596FF80
:100820000DC0892F99278F709927209195022770E5
:100830002817190619F482E890E0089588EC90E0F2
:100840000895482F209192029091590257E0291360
:1008500002C080E0089530E0529FF001539FF00DF8
:100860001124E65AFD4F8181681306C08081481328
:1008700003C085818111EECF2F5F3F4F2770E7CFF7
:10088000E8EDF0E080818E7F80831092E20010928C
:10089000DA001092E100A0EEB0E08C9181608C93C0
:1008A00080818F77808319BCA7EDB0E08C918E7F1B
:1008B0008C9380818F7E80831092410208952091D5
:1008C000E4003091E50095E6A9012091EC00822F2B
:1008D000817020FF06C08091E80080FF06C080E0A4
:1008E00008952091E80022FD1AC080914E028823CD
:1008F00089F0853089F08091EB0085FD0FC0209153
:10090000E4003091E50042175307F9F29150E1F607
:1009100084E0089582E0089583E0089581E00895D9
:100920008091500287FF13C08091E80082FF06C0CB
:100930008091E8008B778093E80004C080914E029C
:100940008111F2CF089580914E028823D9F38091CE
:10095000E80080FFF8CF8091E8008E77ECCF982FE9
:100960009093E900242F762F50E0891731F0709191
:10097000EC002091ED005091F00021FD07C09F5F39
:10098000973071F78093E90081E008953091EB0092
:100990003E7F3093EB003091ED003D7F3093ED00D2
:1009A0003091EB0031603093EB007093EC002093BA
:1009B000ED005093F0002091EE0027FDE0CF80E0A5
:1009C0000895B0E0A0E0E7EEF4E00C94D82AC8ED7A
:1009D000D0E088818F7E8883E7EDF0E080818160C0
:1009E000808384E082BF81E08093410288818E7F92
:1009F000888302EE10E0F80110821092DA0081EE96
:100A0000C82ED12CF601108288818F778883888147
:100A10008068888388818F7D888319BC10924E02FC
:100A200010924F0210924D0210924C0290EEE92E5D
:100A3000F12CF70180818B7F80838881816088839E
:100A400042E060E080E00E94AF04F60180818E7F8A
:100A50008083F801808181608083808188608083C9
:100A6000F70180818E7F8083888180618883CDB704
:100A7000DEB7E8E00C94F42AFC01809156029091D4
:100A8000570286179707A0F06115710529F4909118
:100A9000E8009E779093E80090E06115710551F4AD
:100AA000911108C08091E80082FF34C080E0089571
:100AB000BC01F2CF80914E028823C1F18530C1F193
:100AC0008091E80083FD30C08091E80082FDEACF8C
:100AD0008091E80080FFE1CF8091F3002091F20047
:100AE000382F6115710519F02830310558F091E063
:100AF0002830310509F090E02091E8002E7720930E
:100B0000E800CBCF81918093F100615071092F5F94
:100B10003F4FE7CF80914E02882341F0853041F06E
:100B20008091E80083FFBECF81E0089582E00895C0
:100B300083E0089508958091430208959C014FB782
:100B4000F89480913A0290913B02A0913C02B091BE
:100B50003D024FBF821B930B08952FB7F89460910D
:100B60003A0270913B0280913C0290913D022FBF6E
:100B70000895DC01FB0111969C91119781819813D6
:100B800022C012968C911297882319F092818913B2
:100B90001AC013968C911397882319F093818913A7
:100BA00012C015968C911597882319F09581891399
:100BB0000AC014969C91992321F081E02481291385
:100BC00003C080E001C081E0817008959C01FC01B8
:100BD00032969FEF80E04191461751F09F3F19F404
:100BE000411101C0982F8F5F8630A9F79F3F09F40C
:100BF0000895290F311D97FD3A95F90162830895F3
:100C0000A3E0B0E0E6E0F6E00C94DE2A20913702A3
:100C10003091380228173907A1F090933802809359
:100C20003702E0913502F0913602309751F024E01E
:100C300029839B838A830084F185E02DCE01019670
:100C400009952396E2E00C94FA2AA3E0B0E0EBE2E7
:100C5000F6E00C94DE2A20913302309134022817FA
:100C60003907A1F09093340280933302E09135026A
:100C7000F0913602309751F023E029839B838A83D9
:100C80000084F185E02DCE01019609952396E2E0DE
:100C90000C94FA2AE0913502F0913602309739F03F
:100CA00022E0DC012C930680F781E02D0995089560
:100CB000E0913502F0913602309729F00190F081F1
:100CC000E02D0995089580E008958091230280FD2C
:100CD00016C081FD16C082FD16C0809122028823B5
:100CE000A1F0883280F428E0829FC001112468E2DC
:100CF00070E00E94AD2A862F672B39F0089582E0BC
:100D0000089584E0089588E0089581E00895809131
:100D1000230280FD14C081FD14C082FD16C08091A5
:100D20002402882381F08E3180F420E5829FC00167
:100D300011246EE170E00E94AD2A862F089584E1AF
:100D4000089588E2089588E0089580E50895282FA1
:100D500035EB2303C001112497FF04C0805891098B
:100D6000892F089580589F4FFBCF90E06623A1F014
:100D700089579E4FFC0120812F3F89F0E22FE29599
:100D8000EF70F0E080A190E02F7002C095958795FC
:100D90002A95E2F7817008958B579E4FEBCF80E044
:100DA000089590E06623E9F089579E4FFC01808109
:100DB0008F3FB1F0E82FE295EF70F0E041A18F7026
:100DC00021E030E0B90102C0660F771F8A95E2F793
:100DD000CB01962F9095942391A392A1892B82A366
:100DE00008958B579E4FE2CF90911C02E92FF0E0BF
:100DF00040911D029F012F5F3F4F23703327421701
:100E00001306A9F0E25EFD4F282F2F7780818078AE
:100E1000822B60FB87F980839F5F937090931C0205
:100E200080911A028F5F80931A0281E0089580E01A
:100E300008950E947C0B0895F894E82FE295EF70D6
:100E4000F0E031A1282F2F7081E090E001C0880FE1
:100E50002A95EAF7982F9095932391A392A1892B35
:100E600082A3789408959091E10192FF10C041E02F
:100E7000282F2471243009F040E031E0282F287118
:100E8000283009F030E0431711F02CE0822793FF5F
:100E900010C041E0282F2471243109F040E031E0F6
:100EA000282F2871283109F030E0431711F02CE089
:100EB00082273091E20130FF10C051E0282F2171CC
:100EC000213009F050E041E0282F2871283009F046
:100ED00040E0541711F029E0822731FF10C041E0B3
:100EE000282F2171213109F040E031E0282F2871AD
:100EF000283109F030E0431711F029E0822794FDF2
:100F0000877E089582389105B9F1B0F48133910557
:100F100009F47DC048F48932910509F46DC08A3224
:100F2000910509F47BC008958533910509F45FC0EC
:100F30008933910509F10895833E9105D9F138F47B
:100F4000803E910529F1823E910579F10895863E12
:100F50009105D9F1873E910509F43EC0843E910583
:100F600041F52091E20121FF24C08091E10184FD3F
:100F700019C087EE90E008952091E101237009F0F7
:100F80005AC02091E20123FF14C089E290E0089545
:100F90002091E10120FD38C03091E20130FF09C00D
:100FA00024FF43C090E080E008952091E10122FDFC
:100FB000F7CF08952091E10122FD3AC03091E2017E
:100FC00030FD39C024FFF5CFEDCF2091E10123FFA3
:100FD000F0CF24FDE7CFCDCF2091E10123FD2EC03E
:100FE0003091E20131FFEECF84EE90E00895209140
:100FF000E10125FFDECFC9CF2091E10125FD21C010
:101000002091E20123FFD5CF89E390E0D2CF209158
:10101000E10126FFCECF8AE290E008952091E10120
:1010200026FFC7CF81E390E0089583EE90E0089516
:1010300082EE90E0089580EE90E0089586EE90E0D4
:10104000089585E390E008951F93CF93DF930E9466
:101050008207EC01C11580E5D807F0F5C11580E4E1
:10106000D80708F09CC0C03ED10520F5CD3CD10585
:1010700008F082C0C83AD10578F4C53AD10508F025
:1010800073C0C130D10519F1209709F1C430D105E1
:10109000F0F4D0E0C0E01BC0C33CD105D0F7C85A83
:1010A000D0E0CC0FDD1FC15FDE4F0990D881C02D8D
:1010B000D4640DC0C11580E2D80708F0D1C0C115B5
:1010C00081E0D80708F05AC0C83ED10510F7CE011C
:1010D000DF91CF911F910895C03682E5D80718F5AA
:1010E000C03482E5D80708F06BC0C03282E5D8076B
:1010F00008F05FC0C11582E5D80708F497C02C2F0F
:101100002695269580E2289F900111248C2F8370CC
:10111000C1E0D0E002C0CC0FDD1F8A95E2F7C22B00
:10112000D32BDD68D4CFC03A82E5D80760F4C0384D
:1011300082E5D80708F459C0CF71D0E0DC2FCC2766
:10114000C46FD06AC4CFC03C82E5D80708F462C03F
:10115000C03E82E5D80708F09CCFDC2FCC27CC27F7
:10116000DF71C06FD06AB3CFC55AD0E0C45FDE4F25
:10117000C881D0E0D064ABCFD065A9CF8D2F0E94BD
:101180003307182FCE0199270E948207C12FD0E084
:10119000DC2FCC27CC27DF71C82BD92B98CFCE01E1
:1011A00099270E948207CC27DF70C82BD92BD06AE1
:1011B0008ECFCF71D0E0DC2FCC27C16FD06A87CF24
:1011C0002C2F26952695277080E2289F90011124C8
:1011D0008C2F8370C1E0D0E002C0CC0FDD1F8A9558
:1011E000E2F7C22BD32BDC6872CF2C2F26952695E5
:1011F000277080E2289F900111248C2F8370C1E01A
:10120000D0E002C0CC0FDD1F8A95E2F7C22BD32BB2
:10121000DA685DCF8C2F8F710E943307C82FD0E022
:10122000DC2FCC27CC27DF71D06251CF8C2F8F7170
:101230000E94330755E0D695C7955A95E1F7CF70D0
:10124000D0E0DC2FCC27282F30E084FF05C044E01D
:10125000220F331F4A95E1F7C22BD32BD06937CF2A
:101260008D2F8F710E943307182FCE0199270E946E
:101270008207C12FD0E0DC2FCC27CC27DF71C82B11
:10128000D92BD2CF80959091D10198239093D10101
:1012900008958091920290915902981301C0089587
:1012A0008F5F8770FACFA82FA77023E09695879558
:1012B0002A95E1F7FC01EE0FFF1FE80FF91FE60F7B
:1012C000F71F50E040E080E0219130E00A2E02C09C
:1012D000369527950A94E2F721703327042E01C032
:1012E000220F0A94EAF7822B4F5F5F4F433051057C
:1012F00059F70895292F943068F48C3090F490E0D9
:101300006DEA71E03CE0239F800D911D11240E9445
:10131000530908952C5F223020F46AEA71E090E0CE
:10132000F6CF80E00895262F277091E001C0990F35
:101330002A95EAF723E0769567952A95E1F7FB0170
:10134000EE0FFF1FE60FF71FE40FF51F50E040E020
:10135000682F70E08191DF0111979B01042E02C07C
:10136000369527950A94E2F721702195282729239D
:1013700028272C934F5F5F4F4330510559F708954D
:10138000282F862F943070F42C3058F4622F70E0A0
:101390002CE0929F600D711D11244DEA51E00E94D6
:1013A000930908959C5F9230E0F7622F70E04AEA5B
:1013B00051E0F5CF8093E00108959091E00121E0A4
:1013C00030E0F90101C0EE0F8A95EAF7D90102C0B9
:1013D000AA0FBB1F6A95E2F7EA2B01C0220F4A95BC
:1013E000EAF7892F8E23E81305C0292B822F0E944C
:1013F000DA09089520952923F9CF21E030E001C0D2
:10140000220F8A95EAF720958091E00182230E94BD
:10141000DA0908959091C601809589238093C601C9
:10142000282F277069F4891759F09091E20192FFF3
:1014300007C08695869586950E94FD091092C60183
:10144000089521E030E001C0220F8A95EAF78091EB
:10145000E001822B0E94DA0908958093DF0108954C
:10146000829590E09C01220F331F220F331F2C7CAA
:1014700095958795959587958373282B30E0C901BD
:10148000880F991F8A7A359527952575822B08959F
:10149000E3E9F2E085EA80838EE08183E5E9F2E02A
:1014A0008081887F826080830895CF9328E030E038
:1014B00043E060E080E30E948B29C82F811105C0C2
:1014C0000E94632A8C2FCF91089585E08A95F1F7C9
:1014D0000000F8CF9FB7F89410923F029FBF909101
:1014E0004E02943009F048C02091E9002F703091ED
:1014F000EC00932F917030FD90E8922B25E0209323
:10150000E9002091EB0020FF34C02091EE0027FF7E
:1015100030C020913E02222321F02091E80025FFD7
:1015200028C010923E0226E03091E80035FF14C03A
:101530008093F1008091E80085FD27C08091E8004C
:1015400080FFFCCF8091E8008E778093E8009F7049
:101550009093E90080E0089530914E02343049F4D0
:101560003091EB0035FD05C0215041F481E08093BE
:101570003E029F709093E9008FEF0895EFE9FFE03E
:101580003197F1F700C00000CFCF8FB7F89421E07A
:1015900020933F028FBFDBCF0F931F93CF93DF9337
:1015A0008B01EA0190914E02943061F58093E9003D
:1015B0008FEF9091E800815095FD06C095ED9A95CA
:1015C000F1F700008111F5CF8091E80085FF1AC086
:1015D0000E945F04811111C08091E80085FD06C062
:1015E0008091E8008E778093E800F2CFF801819136
:1015F0008F018093F100219779F78091E8008E7731
:101600008093E800DF91CF911F910F91089543E0FF
:1016100050E0BC0184E00E94CC0A089546E050E00E
:10162000BC0184E00E94CC0A0895CF93DF93EC01C3
:1016300048E050E0BC0181E00E94CC0A88E0FE0155
:10164000A4E4B2E001900D928A95E1F7DF91CF9189
:10165000089581E08093E00080E28093D8001092AA
:10166000C9008FE19EE40197F1F700C0000087E018
:1016700090EBDC018093990290939A02A0939B02D5
:10168000B0939C0288E19CE00FB6F894A8958093F3
:1016900060000FBE90936000FFCFA2E0B0E0E3E5F2
:1016A000FBE00C94DB2A182FF62E0E94550A082F17
:1016B000811106C000E0802F2296E5E00C94F72A05
:1016C000103511F01092580210681983FA8262E006
:1016D00070E0CE0101960E94332A892B59F78AEBDC
:1016E0008A95F1F700C00E94632A83E492E0019793
:1016F000F1F700C00000DFCF60E08436910550F0C4
:1017000067E784342FE2920728F464E670E00E94D1
:10171000992A61508FE00E944D0B0895CF93C82FF6
:101720000E94550A8823C9F08C2F0E94032A8FE754
:1017300092E00197F1F700C000000E941B2AC82F19
:1017400095E09A95F1F700000E94632A85E68A9554
:10175000F1F700008C2FCF910895C0E0FBCFCF931D
:10176000C82F6FEF811165E284E290E00E94292B7F
:101770006FEFC11161E085E290E00E94292B6FEFCD
:10178000C11166E286E290E00E94292BCF91089574
:10179000CF93DF93C0E3D2E060E0CE010E94292B1B
:1017A0002196C11584E0D807B9F7DF91CF9108954C
:1017B0000F931F93CF93DF93142F022F853020F5C3
:1017C000623010F598E0899FE001112484E0689F61
:1017D000B0011124C60FD71FC85FDD4F82E090E033
:1017E000442311F090E080E0632F8C0F9D1F0E9436
:1017F000292B83E090E0112311F081E090E0602F2D
:101800008C0F9D1F0E94292BDF91CF911F910F916B
:1018100008951F93CF93DF93122F8530E0F4643047
:10182000D0F44C30C0F4C42FD0E0CC0FDD1F98E1D1
:10183000699FC00DD11D112490E6899FC00DD11D57
:101840001124632FCE0188960E94292B612FCE018F
:1018500089960E94292BDF91CF911F9108958F9235
:101860009F92AF92BF92DF92EF92FF920F931F93DE
:10187000CF93DF9306EF14E086E1E82E83E0F82EA5
:10188000C0E05701D0E015C0F401259134914D2DF1
:101890006D2F8C2F0E94090C82E0880E911CD3942E
:1018A0008CE0D812F1CF88E1A80EB11CDF5FD430F4
:1018B00019F04501D12CE8CFF8012591349141E090
:1018C00060E08C2F0E94D80BF8013296259134915C
:1018D00040E060E08C2F0E94D80BF80134962591EF
:1018E000349141E061E08C2F0E94D80BF8013696CC
:1018F0002591349140E061E08C2F0E94D80B085F65
:101900001F4FCF5F80E6E80EF11CC53009F0B9CF5C
:10191000DF91CF911F910F91FF90EF90DF90BF90DB
:10192000AF909F908F90089580E00E94AF0B60E091
:1019300087E290E00E94292B0E942F0C0E94C80B86
:1019400081E00E94AF0B089584E290E00E94052B95
:10195000853289F485E290E00E94052B813059F4AC
:1019600086E290E00E94052B91E0863209F090E03B
:10197000892F8170089580E0FCCFFF920F931F9311
:10198000CF93DF93F42E853070F5623060F528E058
:10199000829F8001112434E0639FB0011124060F5F
:1019A000171F085F1D4F82E090E0442311F090E084
:1019B00080E0800F911F0E94052BC82FD0E0DC2F04
:1019C000CC2783E090E0FF2011F081E090E0800FD1
:1019D000911F0E94052B9E01282BC901CDB7DEB7B0
:1019E000E5E00C94F72A90E080E0F8CF0F931F9386
:1019F000CF93DF93853030F5643020F54C3010F50F
:101A0000C42FD0E0CC0FDD1F28E1629FC00DD11D97
:101A1000112430E6839FC00DD11D1124CE0188967C
:101A20000E94052B082F10E0102F0027CE01899669
:101A30000E94052B9801282BC901DF91CF911F919E
:101A40000F91089590E080E0F8CF743048F46C3046
:101A500070F4853060F4462F672F0E94F60C0895CD
:101A60007D3F41F4623018F441E0853050F090E061
:101A700080E008957C3FD9F76230C8F78530B8F729
:101A800040E00E94BD0C0895CF92DF92FF920F9329
:101A90001F93CF93DF936C010091E0018091DF01F0
:101AA000082BC4E0D0E010E0FC2EC8010C2E02C0D0
:101AB000959587950A94E2F780FD0CC02197A0F7D1
:101AC000F12C8F2DDF91CF911F910F91FF90DF901F
:101AD000CF900895B6018C2F0E94250D0E942408F6
:101AE000019761F3EECFCF93DF93EC010E94440D99
:101AF000BE010E94250D0E942408DF91CF91089518
:101B0000FC0124812223C1F0808191810E94730D08
:101B100092959F70963091F058F4925F9F7092303A
:101B200058F4803F19F030F4883E30F481E0089595
:101B30009A5FF4CF843FD1F380E00895883EB0F3FC
:101B4000813FD1F7F3CFA6E0B0E0E9EAFDE00C94E5
:101B5000DD2A26E0FC01DE01119601900D922A9506
:101B6000E1F7FC01258189819A81222399F066237E
:101B700089F00E94440D182F682F89819A810E9454
:101B8000C00969817A81812F0E94250D2696E3E0A4
:101B90000C94F92A0E947A09182FF3CFA8E1B0E03B
:101BA000E4EDFDE00C94DC2A4B8B5C8B6D8B7E8B23
:101BB0008F8B988F8E01095F1F4F86E0F80111927D
:101BC0008A95E9F780915802811133C060E080E581
:101BD0000E944D0B81112AC086E0FE013796DE017E
:101BE000119601900D928A95E1F786E0FE013196FB
:101BF000DE011D9601900D928A95E1F78D8583FF98
:101C00003EC086E0FE017396DE01179601900D92AC
:101C10008A95E1F72F81388549855A856B857C85C2
:101C200080E090E06896E4E00C94F82A81E08093EC
:101C300058020E94550A882379F280E50E94032AFF
:101C4000FAEBFA95F1F700C066E070E0C8010E9477
:101C50004B2A8F81877011F0109258020E94632ADC
:101C600089859A859195819591099A8789878B8530
:101C70009C859195819591099C878B87ADCF8981B2
:101C800087FD03C010921902BCCF2B813C818D814E
:101C90009E8140911902411103C041E04093190215
:101CA00020384FEF34078CF02038310514F02FE73F
:101CB00030E08038EFEF9E0754F08038910514F043
:101CC0008FE790E02D8B8E8B9CCF20E8F2CF80E8C1
:101CD000F9CF0E9483290E94550A882309F450C035
:101CE00025ED2A95F1F700000E94632A85ED8A957B
:101CF000F1F700006AE58AE30E944D0B882309F49E
:101D00003FC09FEF20E782E0915020408040E1F704
:101D100000C0000082E00E948E0B83E00E948E0BC8
:101D200084E00E948E0B85E00E948E0B86E00E946C
:101D30008E0B0E94632A8FE39CE90197F1F700C0A4
:101D400000006FE08FE00E944D0B8FE99FE001974C
:101D5000F1F700C0000060E080E10E944D0B60E000
:101D600081E10E944D0B62E083E60E944D0B80E012
:101D70000E948E0B8FE30E948E0B8AE20E948E0BD4
:101D800008950F931F93CF93DF932091D1018091FA
:101D9000C801282B8091C701882381F0282B30E0CF
:101DA00082EA91E0FC014191CF0141113F5FF1E0F6
:101DB000883A9F07B9F731111092C7012093A0010B
:101DC00048E050E069EC71E080EA91E00E948D2EDD
:101DD000892B09F44DC088E0E0EAF1E0A9ECB1E01C
:101DE00001900D928A95E1F7E0913502F09136026B
:101DF0003097F1F10280F381E02D80EA91E00995BE
:101E00008091250282FF34C080FF0EC08091A00126
:101E10001F928F9380EB92E09F938F930E94060412
:101E20000F900F900F900F90C0EAD1E00AEA12E0F5
:101E30008091250280FF0BC08A811F928F931F9390
:101E40000F930E9406040F900F900F900F90219611
:101E500041E0C63AD40761F78091250280FF08C0AF
:101E600088EA92E09F938F930E9406040F900F9050
:101E7000DF91CF911F910F910895882321F00E9447
:101E800042090E94C10E0895882339F09091D10132
:101E9000982B9093D1010E94C10E0895CF936AEFC1
:101EA00071E083E192E00E94B905C82F882321F0F8
:101EB00083E192E00E944A069091140286E0E3E1F9
:101EC000F2E0DF01282F1D922A95E9F79093140282
:101ED000AAEFB1E001900D928A95E1F781E0C1117E
:101EE00003C0911101C080E08170CF910895A6E2F6
:101EF000B0E0EDE7FFE00C94CE2A40911302509140
:101F0000140260911502709116028091170290914F
:101F100018020E94CE0D20931302309314024093B6
:101F2000150250931602609317027093180286E010
:101F3000E3E1F2E0DE01179601900D928A95E1F758
:101F4000C0901502BC2CB194B98686E0FE0137968C
:101F5000DE011D9601900D928A95E1F786E0FE0163
:101F60003D96DE01119601900D928A95E1F786E08B
:101F7000FE013196A3E1B2E001900D928A95E1F75E
:101F800086E0E3E1F2E0DE01599601900D928A9538
:101F9000E1F7209016020091170230901802C22833
:101FA00080E009F422C110919402E12FE695EF70D0
:101FB000F0E0EE0FFF1FE959FE4F6081718190E064
:101FC00080E00E94772C25E33AEF4EE85CE30E9424
:101FD000822D6B017C016B2DBB0C770B880B990B51
:101FE0000E94792C2B013C01C701B6010E94CA2B2B
:101FF0004B015C01622D022C000C770B880B990BB6
:102000000E94792C6F8F78A389A39AA3C701B60188
:1020100090580E94EF2D6BA37CA38DA39EA3A501D6
:102020009401C301B2010E94822D6B017C012BA19E
:102030003CA14DA15EA16F8D78A189A19AA10E94BA
:10204000822D9B01AC01C701B6010E945D2B6B0183
:102050007C012BA13CA14DA15EA1C301B2010E9454
:10206000822D2B013C012F8D38A149A15AA1C50118
:10207000B4010E94822D9B01AC01C301B2010E94F8
:102080005E2B2B013C01809111028111FBC08091DC
:1020900010028111F7C017FF2EC0A7019601C701DA
:1020A000B6010E94822D4B015C01A3019201C30184
:1020B000B2010E94822D9B01AC01C501B4010E94B6
:1020C0005E2B0E94FD2D2DEC3CEC4CEC5DE30E9460
:1020D000822D4B015C01AC019B01C701B6010E943E
:1020E000822D6B017C01A5019401C301B2010E9404
:1020F000822D2B013C01A701960160E070E08EEF7C
:1021000092E40E94D32C9B01AC0160E070E08EEF62
:1021100092EC0E94B42C4B015C01A301920160E09F
:1021200070E08EEF92E40E94D32C9B01AC0160E042
:1021300070E08EEF92EC0E94B42C6B017C01209138
:102140000C0230910D0240910E0250910F02C50118
:10215000B4010E945E2B2B013C01209108023091BA
:10216000090240910A0250910B02C701B6010E9478
:102170005E2B4B015C01C301B2010E94412C6B013B
:102180007C01C501B4010E94412C6F8F78A389A303
:102190009AA3B6010D2C000C880B990B0E94792C88
:1021A0009B01AC01C301B2010E945D2B60930C0244
:1021B00070930D0280930E0290930F022F8D38A121
:1021C000B901330F880B990B0E94792C9B01AC014C
:1021D000C501B4010E945D2B60930802709309024F
:1021E00080930A0290930B028F8DCB8E8C8F0D8F74
:1021F0003E8E86E0FE017996DE01179601900D92E3
:102200008A95E1F786E0FE013796DE01119601908E
:102210000D928A95E1F786E0FE013196DE01539634
:1022200001900D928A95E1F786E0FE017396DE013A
:10223000179601900D928A95E1F786E0FE01379698
:10224000A3E1B2E001900D928A95E1F786E0EAE21F
:10225000F2E0DE01179601900D928A95E1F78091E8
:1022600014029885892B809314020E944E0F8111CD
:10227000EAC080911202109212028170A696E2E1E9
:102280000C94EA2AA09093028A2D829586958770F5
:10229000312F3170A32EAA0CAA0CAA0CA82AAA9C32
:1022A0005001112485E0A80EB11CAA0CBB1CC7016B
:1022B000B6010E94412C4B0177FF04C08824992469
:1022C000861A970AC301B2010E94412C9B0177FF35
:1022D00004C022273327261B370BC901880F991FFB
:1022E000881599050CF060C0209104023091050218
:1022F0004091060250910702C701B6010E945E2B71
:102300006B017C010E94412C9B0177FF04C02227B6
:102310003327261B370BA216B3065CF0C0920402CB
:10232000D0920502E0920602F092070200E0312C02
:102330002CC0B5010B2C000C880B990B0E94792C3A
:102340009B01AC01C701B6010E94CF2B0E94412C1A
:10235000362EA69E9001A79E300DB69E300D1124FC
:10236000B901330F880B990B0E94792C9B01AC01AA
:10237000C701B6010E945D2B6093040270930502B1
:10238000809306029093070200E08FEF15FD81E035
:10239000839D302C11248FEF16FD81E0809F002D4E
:1023A000112480E0C12C21CF209100023091010244
:1023B0004091020250910302C301B2010E945E2BC0
:1023C0006B017C010E94412C9B0177FF04C02227F6
:1023D0003327261B370BA216B3064CF0C09200021F
:1023E000D0920102E0920202F09203029FCFB50167
:1023F0000B2C000C880B990B0E94792C9B01AC01D3
:10240000C701B6010E94CF2B0E94412C062FA69E29
:102410009001A79E300DB69E300D1124B901330FE7
:10242000880B990B0E94792C9B01AC01C701B60166
:102430000E945D2B60930002709301028093020260
:102440009093030274CF81E090E015CFCF93C82F13
:102450008091E20182FB992790F99C17F9F0C0FB6B
:1024600082F98093E2016091E1017091E20184E0E0
:1024700090E00E94472B82E00E940A0A8091250288
:1024800080FF0CC01F92CF9383E992E09F938F93BC
:102490000E9406040F900F900F900F90CF91089517
:1024A0001F920F920FB60F9211242F933F934F93C9
:1024B0005F936F937F938F939F93AF93BF93EF93AC
:1024C000FF938091E10082FF15C08091E20082FFBE
:1024D00011C08091E1008B7F8093E1002091400248
:1024E0002F5F822F62E30E948D2A992309F4D0C0C6
:1024F000209340028091DA0080FF2CC08091D800A8
:1025000080FF28C08091DA008E7F8093DA0080916E
:10251000D90080FFF3C080E189BD82E189BD09B4A3
:1025200000FEFDCF81E080934E0288E695E09F9308
:102530008F930E940604809141020F900F908111A9
:1025400009C00E9440040E94E1048091E20084607E
:102550008093E2008091E10080FF1FC08091E20043
:1025600080FF1BC08091E2008E7F8093E20080910B
:10257000E20080618093E2008091D80080628093C5
:10258000D80019BC85E080934E0280E795E09F93C8
:102590008F930E9406040F900F908091E10084FFBA
:1025A00033C08091E20084FF2FC080E189BD82E1C9
:1025B00089BD89B5982F917080FFFBCF8091D8009D
:1025C0008F7D8093D8008091E1008F7E8093E10021
:1025D0008091E2008F7E8093E2008091E200816032
:1025E0008093E20080914F02882309F495C084E033
:1025F00080934E0284E795E09F938F930E94060498
:1026000080914E020F900F908091E10083FF2FC0C8
:102610008091E20083FF2BC08091E100877F80934F
:10262000E10082E080934E0210924F028091E1001F
:102630008E7F8093E1008091E2008E7F8093E200A4
:102640008091E20080618093E20042E060E080E0FF
:102650000E94AF048091F00088608093F00088E7CA
:1026600095E09F938F930E9406040F900F90FF9127
:10267000EF91BF91AF919F918F917F916F915F91FA
:102680004F913F912F910F900FBE0F901F90189573
:102690001092400280913F02882309F42BCF809151
:1026A0004E028430C1F49091E9009F702091EC00BB
:1026B000822F817020FD80E8892B95E09093E900BE
:1026C0009091EB0090FF04C09091EE0097FD08C040
:1026D0008F708093E90010923F020CCF1092F100AE
:1026E0009091E80095FDFACF9091E80090FFF0CF2F
:1026F0009091E8009E779093E800EACF19BC109281
:102700004E028CE695E09F938F930E9406041092F0
:1027100041020F900F901ECF8091E30087FD93E060
:1027200090934E0267CF78941F921FB61F92112488
:102730008F939F93AF93BF9380913A0290913B0206
:10274000A0913C02B0913D020196A11DB11D809364
:102750003A0290933B02A0933C02B0933D02BF919A
:10276000AF919F918F911F901FBE1F9018952FB70B
:10277000F89480913A0290913B02A0913C02B09172
:102780003D022FBF08958091250283FF96C085E406
:1027900095E09F938F930E94060480912B021F92D5
:1027A0008F9380E495E09F938F930E9406048EE3BD
:1027B00095E09F938F930E94060480912C02282F0E
:1027C000082E000C330B3F938F938BE395E09F9380
:1027D0008F930E94060489E395E09F938F930E9454
:1027E000060480912D02282F082E000C330B3F93F6
:1027F0008F9386E395E09F938F930E94060484E372
:1028000095E09F938F930E94060480912E02282FBB
:10281000082E000C330B3F938F9381E395E09F9339
:102820008F930E9406048FE295E09F938F930E94FE
:10283000060480912F02282F082E000C330B3F93A3
:102840008F938CE295E09F938F930E94060489E218
:1028500095E09F938F930E9406048DB79EB7809654
:102860000FB6F8949EBF0FBE8DBF809124021F92B9
:102870008F9386E295E09F938F930E94060484E2F3
:1028800095E09F938F930E940604809123021F92EC
:102890008F9381E295E09F938F930E9406048EE1CF
:1028A00095E09F938F930E9406048DB79EB70C9678
:1028B0000FB6F8949EBF0FBE8DBF0E94B7139C0148
:1028C00090912C0280912D02982B21F030932902B7
:1028D0002093280290912E0280912F02982B21F0B4
:1028E00030932702209326028AE292E00E944A0651
:1028F0000895CF931092D101C6E0E2EAF1E0DF0142
:102900008C2F1D928A95E9F790E080E00E942506C1
:1029100090E080E00E9400061092C8010E94C10E63
:10292000EAE2F2E0DF011D92CA95E9F71092240273
:1029300010922202109223020E94C313CF91089595
:10294000AAE2B0E0E6EAF4E10C94DD2A80E592E048
:102950002091F100DC012D93CD01B2E088359B0779
:10296000B9F780915102833009F472C0B8F4813014
:1029700009F449C0823009F4B3C08091E80083FFB4
:1029800091C280915002909151029A3008F08AC20F
:10299000E92FF0E0E456F14D0C94C12A8A3009F495
:1029A0008EC08B3009F471C0893039F780915002A4
:1029B000813219F78091540290915502009711F0DD
:1029C0000297D9F68091E800877F8093E800809194
:1029D000E80082FF38C09091F3008091F2000297E6
:1029E00031F48091F100813011F0863021F4809132
:1029F000F100809343028091E8008B778093E80098
:102A00000E949004BACF80915002813A09F0B5CF6C
:102A10008091E800877F8093E80080915402909134
:102A20005502892B61F468E084E492E070E00E9432
:102A30003C058091E8008B778093E8009ECF60E0B2
:102A400090E080E0F3CF80914E028111C0CF95CF0E
:102A500080915002813A09F090CF80915402909178
:102A60005502892B09F089CF8091E800877F8093F8
:102A7000E8008091E80080FFFCCF80910A018093FC
:102A8000F1008091E8008E77B9CF809150028132B9
:102A900009F073CF8091540290915502892B09F06F
:102AA0006CCF8091E800877F8093E8000E949004BB
:102AB0008091520280930A010E9479145ECF809126
:102AC0005002813209F059CF8091E800877F8093CE
:102AD000E8000E94900480915302809342024DCFFF
:102AE00080915002813A09F048CF8091E800877FB9
:102AF0008093E8008091E80080FFFCCF8091420243
:102B0000BECF803899F0823809F0CCC18091540250
:102B10008F70873008F0C6C18093E9008091EB0088
:102B200085FB882780F91092E90006C080914C024D
:102B300090914D02911182609091E800977F90935F
:102B4000E8008093F1001092F1008091E8008E7708
:102B5000A5C1882309F493C1823009F0A3C18091F3
:102B60005202811196C1809154028F702FEF280F6D
:102B7000263008F097C18093E9002091EB0020FFF8
:102B800088C1933031F48091EB0080628093EB0038
:102B900080C19091EB0090619093EB0021E030E0D8
:102BA00001C0220F8A95EAF72093EA001092EA000A
:102BB0008091EB008860EACF811174C110915202BC
:102BC0001F778091E3008078812B8093E3008091D0
:102BD000E800877F8093E8000E9490048091E800DD
:102BE00080FFFCCF8091E30080688093E30082E067
:102BF000111183E080934E0255C18058823008F055
:102C000051C120915202309153022C3DE3E03E0726
:102C1000A1F583E08A838AE289834FB7F894DE01C5
:102C2000139620E03EE051E2E32FF0E0509357008E
:102C3000E49120FF03C0E295EF703F5FEF708E2FAD
:102C400090E0EA30C0F0C7968D939D932F5F2431BA
:102C500059F74FBF8091E800877F8093E8006AE2D0
:102C600070E0CE0101960E943C058091E8008B77D0
:102C70008093E80017C1C096E7CF809154029091ED
:102C80005502432F55274330510509F44AC078F5C2
:102C90004130510509F47AC084E790E0ECE7F5E0B3
:102CA0004230510509F0FEC02091E800277F2093B3
:102CB000E80020915602309157028217930708F4DA
:102CC0009C0140E02115310509F065C0411163C048
:102CD0008091E80082FDC9CF80914E02882329F2BD
:102CE000853019F28091E80083FFF2CFBECF4132E8
:102CF000510509F43CC04232510509F0D3C084307B
:102D0000910508F0CFC0FC01EE0FFF1FE357FE4F07
:102D10000190F081E02D87579E4FDC018C9190E06F
:102D20001AC0332721303105D1F02115310561F06A
:102D30002230310509F0B6C0E2E0F6E0E4918E2FD2
:102D400090E0E2E0F6E007C0EAE4F6E0E4918E2FDE
:102D500090E0EAE4F6E0009709F4A4C0A5CFECE126
:102D6000F6E0E4918E2F90E0ECE1F6E0F4CF8430D1
:102D7000910508F097C0880F991FFC01EB56FE4F94
:102D80000190F081E02D89E090E08ECF82E190E02B
:102D9000E0EFF5E089CF80914E02882309F465CFFA
:102DA000853009F462CF8091E80083FD5ECF809189
:102DB000E80082FD8DCF8091E80080FF83CF909165
:102DC000F3008091F2002115310519F0883091054A
:102DD00050F041E0089709F040E08091E8008E77DC
:102DE0008093E8006FCF44914093F10031962150D9
:102DF00031090196E8CF803809F054C08091E8008D
:102E0000877F8093E80080914F028093F1009DCEF0
:102E1000811148C010915202123008F043C08091D5
:102E2000E800877F8093E80010934F020E9490048F
:102E3000112311F084E005C08091E30087FDFACFF3
:102E400081E080934E0242E061EC81E00E94AF0499
:102E500042E261EC84E00E94AF0442E261EC82E075
:102E60000E94AF0442E260EC83E00E94AF0442E2C1
:102E700061EC85E00E94AF0480914E0213C0809106
:102E80005202813079F481E0933009F080E0809340
:102E90004D021092E9008091E800877F8093E8005E
:102EA0000E9490048091E80083FF0AC08091E800AE
:102EB000877F8093E8008091EB0080628093EB0035
:102EC000AA96E3E00C94F92A1F920F920FB60F9284
:102ED00011242F933F934F935F936F937F938F931F
:102EE0009F93AF93BF93CF93DF93EF93FF93D091D3
:102EF000E900DF708091EC00C82FC17080FDC0E850
:102F00001092E9008091F000877F8093F000789420
:102F10000E94A0141092E9008091F00088608093D4
:102F2000F000CD2BCF70C093E900FF91EF91DF91BE
:102F3000CF91BF91AF919F918F917F916F915F9151
:102F40004F913F912F910F900FBE0F901F901895AA
:102F50000E9479142FEF84E39CE021508040904040
:102F6000E1F700C0000088E19CE00FB6F894A89556
:102F7000809360000FBE90936000FFCF662309F43A
:102F800072C08D3C41F40E948706819580932D028A
:102F90000E94C31308958E3C19F40E948706F6CF51
:102FA0008F3C31F40E948706819580932C02F0CFEC
:102FB000803D19F40E948706F8CF893D29F40E94CC
:102FC000650680932E02E4CF8A3D21F40E946506B7
:102FD0008195F7CF8B3D31F40E94650681958093F2
:102FE0002F02D6CF8C3D19F40E946506F8CF9FE2E0
:102FF000980F983020F5282F215D330BA90121E08F
:1030000030E001C0220F4A95EAF790912B02922BF3
:1030100090932B02815D21E030E0A90102C0440FB2
:10302000551F8A95E2F7CA0120911402662309F41C
:1030300093C0822B809314020E944E0F08958D3D01
:1030400031F480912302816080932302A1CF8E3DD1
:1030500021F4809123028260F7CF8F3D19F5809192
:1030600023028460F1CF90912C028D3C59F4209181
:103070002D0227FF0DC010922D0291110BC010924E
:10308000240208C08E3CB1F420912D0212169CF34C
:103090009923B1F090912E0220912F02922B11F4DE
:1030A00010922202482F415D550B4830510508F41B
:1030B000B1CF6ECF8F3C39F497FFEACF10922C023C
:1030C00090912D02DACF803D19F41916BCF3E0CFB0
:1030D00020912E02893D29F41216D4F610922E0268
:1030E000D7CF8A3D19F427FFD3CFF8CF20912F02F5
:1030F0008B3D29F427FFCCCF10922F02C9CF8C3DF6
:1031000019F41216CCF3C4CF2FE2280F283088F41C
:10311000282F215D330BA90121E030E001C0220FEF
:103120004A95EAF7209530912B02232320932B0216
:10313000AFCF209123022E7F8D3D59F020912302A5
:103140002D7F8E3D31F08F3D09F0A2CF20912302DB
:103150002B7F209323029CCF809582236BCF8823E3
:10316000D1F19CEF980F913A78F4E2EAF1E0919175
:10317000891303C0DF0111971C9291E0E83AF90727
:10318000B1F70E94C10E089590E2980F983050F464
:10319000877091E001C0990F8A95EAF7892F0E9404
:1031A0004209EFCF9BE5980F933028F490E080E040
:1031B0000E942506089598E5980F9B3128F490E029
:1031C00080E00E940006089593E3980F933118F46D
:1031D00060E00E94BE170895CF93C82F8823B1F0F6
:1031E0008CEF8C0F813A00F5E2EAF1E088EA91E099
:1031F000DF012D91C21761F08A179B07D1F76C2F61
:1032000080EA91E00E94E6050E94C10ECF910895E8
:103210002191C21303C0DF0111971C928E179F07E3
:10322000B9F70E94C10EEBCF80E28C0F883068F4B2
:10323000C77021E030E001C0220FCA95EAF7809103
:10324000D101822B8093D101DFCFEBE5EC0FE3308E
:1032500040F4F0E0E45FFE4F808190E00E9425069C
:10326000D5CFE8E5EC0FEB3150F4F0E0EE0FFF1FA7
:10327000E15FFE4F808191810E940006C7CF83E30A
:103280008C0F833118F661E08C2F0E94BE17BECFE1
:103290001F93CF93DF93182FEB010E94EC18209718
:1032A00039F4812F0E94AF18DF91CF911F910895BB
:1032B0008FE99FE00197F1F700C000002197EFCF61
:1032C000B0E0A0E0E6E6F9E10C94D82A6B01C42F47
:1032D000D22FFC0185818823A9F0409332020E94FD
:1032E000B7139093310280933002C77081E001C020
:1032F000880FCA95EAF70E94440FCDB7DEB7E8E021
:103300000C94F42A10913202141339C080913002C7
:10331000909131020E949E057C01C6010E940F041B
:10332000E816F90660F5C0E2CD0F1D17C1F080E286
:10333000810F883048F4177081E0012E01C0880F9A
:103340000A94EAF70E943D0FC83048F481E09D2FAF
:10335000977001C0880F9A95EAF70E94440F70E0B9
:1033600060E0802F0E944819C83038F6D77081E09D
:1033700001C0880FDA95EAF70E943D0FBECFC770F3
:1033800081E001C0880FCA95EAF7F6CFA8E0B0E067
:10339000ECECF9E10C94D02A7C01DC0114968C91C0
:1033A000882309F4B0C061E0C7010E94A30D8C011D
:1033B000F7018581882309F43FC1980137572038E8
:1033C000310508F013C6003108F08DC08FEF93E08F
:1033D0000E94052B811187C050E3A52E52E0B52E27
:1033E00001114EC0FE01339686E0DF011D928A95E1
:1033F000E9F74AE0442E85010F5F1F4FC5010E9487
:10340000052B89831A82882309F46DC0813009F065
:103410007EC06501B2E0CB0ED11CC8010E94052B15
:103420008A83882309F45FC09FEF980F9330B0F52B
:10343000E3E0AE0EB11CC6010E94052B8B838823EE
:1034400009F451C01C828E010F5F1F4FD8012C91CF
:10345000222389F2213009F096C011969C91119790
:1034600012968C91913009F054C00E5F1F4F70E09E
:1034700060E0893311F460E570E00E9448194FC0A4
:10348000A114F4E0BF0679F1C5010E94052B81115A
:1034900001C001502FEFA21AB20AA2CF5601843008
:1034A00091F602E010E05601FFEFAF1ABF0AC60125
:1034B0000E94052BE1E0F0E0EC0FFD1FE00FF11F93
:1034C0008083882381F08C3741F4E2E0F0E0EC0F58
:1034D000FD1FE00FF11F1082B6CF0F5F1F4F650178
:1034E0000730110501F78091C601877061F0D7019F
:1034F00015968C91882339F08091E20182FF03C0F8
:1035000082E00E940A0A2896E0E10C94EC2A580115
:103510009ACF923039F40E5F1F4F0E94EC180F5F64
:103520001F4F94CF933029F40E5F1F4F0E94AF18A6
:10353000F6CF943019F00F5F1F4FF1CF0E5F1F4F82
:1035400030E020E0B8016F5F7F4FF8014181805388
:10355000990B8A30910560F02115310501F38FE94F
:103560009FE00197F1F700C0000021503109F4CF2E
:10357000429EF001439EF00D11249C012E0F3F1F2F
:10358000842F8B01DFCFE22FF0E0E051FE4F54900B
:10359000822F86958695869590E0FC01E052FE4F3D
:1035A00064902770712C022E02C0759467940A945F
:1035B000E2F7A1E06A227724FC01E053FE4F8490F9
:1035C000912C022E02C0959487940A94E2F7B1E000
:1035D0008B229924FC01E054FE4FC490D12C02C0F0
:1035E000D594C7942A95E2F7E1E0CE22DD24611458
:1035F000710419F081EE0E94EC188114910419F005
:1036000086EE0E94EC1870E060E0852D0E9448195B
:103610008114910419F086EE0E94AF1861147104B0
:1036200019F081EE0E94AF18C114D10409F477CFCC
:1036300070E060E08CE221CFF801FE57EE30F1053A
:1036400020F4EA55F14D0C94C12AF801E851FC47E9
:10365000E730F10508F019C1EC54F14D0C94C12A82
:10366000882321F081E0809311023DCF1092110256
:103670003ACF20919302822F8F7190E04F96382F8E
:103680003F71207E232B209393028F7199270196FF
:1036900024E6AC01249FC001259F900D11240E94B7
:1036A000190721CF882309F41ECF20919302822F7E
:1036B0008F7190E00196382F3F71207E232B20934D
:1036C00093028F719927019624E6DC012A9FC0019D
:1036D0002B9F900D1124E3CF882309F404CF909100
:1036E0009402892F97FB87F9805880939402FBCE30
:1036F000882309F4F8CE20919302922F9295969503
:10370000977030919402832F8170880F880F880FF3
:10371000892B90E00196982F9295990F907E2F71AA
:10372000292B2093930283FB882780F93E7F832BEC
:10373000DCCF882309F4D7CE20919302922F929563
:103740009695977030919402832F8170880F880F1F
:10375000880F892B90E00F96DECF882309F4C3CE23
:1037600020919402822F86958F7090E00E966FE0E4
:1037700070E00E94992A8F70880F217E282B209359
:103780009402B1CE882309F4AECE20919402822F08
:1037900086958F7090E00196EACF882309F4A3CE36
:1037A00090919402892F8F7D95FF80629ECF882310
:1037B00009F499CE90919402892F8F7B96FF8064B3
:1037C00094CF882309F48FCE8091950292E0980FD0
:1037D00093709F5F887F892B8093950284CE882386
:1037E00009F481CE80919502982FF2CF882309F4B5
:1037F0007ACE0E94480A809193028F7190E00196E0
:1038000024E6FC012E9FC0012F9F900D112447CF6D
:10381000882309F468CE40919302509194026091FC
:103820009502709196028FE090E00E943B2B5BCE58
:1038300006E221EE41EE6AE17CE7C7010E946019D1
:1038400052CE07E225EE45EE6BE17CE7F6CF06E2CD
:1038500021EE40EE68E17CE7F0CF07E225EE44EE92
:1038600069E17CE7EACF06E221EE42EE6CE17CE71B
:10387000E4CF07E225EE46EE6DE17CE7DECF08E21D
:1038800021E045EE6EE17CE7D8CF882309F497C3A9
:1038900010923202C8019057839708F07AC384E0EF
:1038A00090E00E94132B9093E2018093E101F801D4
:1038B000E150F047E232F10520F4E554F14D0C946B
:1038C000C12A8091E10181608093E10195C08091DE
:1038D000E20188608093E2018FC08091E101826003
:1038E000F3CF8091E1018460EFCF8091E1018860A6
:1038F000EBCF8091E2018160EDCF8091E2018260A7
:10390000E9CF8091E1018061DFCF8091E1018062A8
:10391000DBCF8091E1018064D7CF0E947914809140
:10392000E1018068D1CF8091E1018C60CDCF8091A1
:10393000E2018360CFCF8091E1018E7FC5CF80917E
:10394000E201877FC7CF8091E1018D7FBDCF80915C
:10395000E1018B7FB9CF8091E101877FB5CF809165
:10396000E2018E7FB7CF8091E2018D7FB3CF80914E
:10397000E1018F7EA9CF8091E1018F7DA5CF80915C
:10398000E1018F7BA1CF0E9479148091E1018F77B3
:103990009BCF8091E101837F97CF8091E2018C7F63
:1039A00099CF8091E10182FB992790F921E092273C
:1039B00090FB82F990FB83F987CF8091E201982FE9
:1039C000909591708E7F892B90FB81F983CF909198
:1039D000E101892F8F7B96FF806476CF0E94791456
:1039E0009091E101892F97FB87F980586DCF61E0B5
:1039F0008EE090E00E94292B6091E1017091E2013C
:103A000084E090E00E94472B0E9479146CCD60E026
:103A1000EFCF9091E101892F8F7E94FF806154CF89
:103A20009091E101892F8E7F90FF81604DCF909121
:103A3000E201892F877F93FF88604CCF85E3C8C25E
:103A400081E00E94210A03C081E00E94FD0943E059
:103A500062E081E00E94DD0946CD0330FCE71F07EC
:103A600009F493C008F05FC001303CE7130709F484
:103A700092C008F074C001151C4709F463C0F70137
:103A8000858100811181882309F493C0C8010E94B7
:103A9000440DD82E682FC8010E94C009B8018D2D91
:103AA0000E94250D0E9424088C01882ED7011596AE
:103AB000AC90159716969C9092943FE0932280913B
:103AC000C601877009F1DA2CAA20F9F0812F807FD6
:103AD000803469F080E2800F8830B0F0812F807EE2
:103AE000803229F4B1E0B01778F4992069F0809120
:103AF000E20182FF09C082E00E940A0A8091C601A9
:103B00008770DD24D3948111D12CC12EC2942FE073
:103B1000C222EBE0EC1508F4B1C0EC2DF0E0E3526A
:103B2000F14D0C94C12A0B358CE7180709F43FC0FE
:103B30000C359CE7190789F10A351C4709F09FCF1E
:103B400081E032C00E947914BFEFE4E3FCE0B150A1
:103B5000E040F040E1F700C000000E94290B909186
:103B60002502892F8E7F90FF81608093250280FF40
:103B700009C082E892E09F938F930E9406040F9001
:103B80000F90B1CC80E792E0F6CF6FEF7FEF90E03F
:103B900080E00E94472B0E94A8178091E20182FBDF
:103BA000882780F991E089270E94261268CF80E05B
:103BB000FBCFC8010E947A09D82E70CFF12FFF7079
:103BC000BF2E107F19F0B29490EFB922AA20B9F05D
:103BD000BB2069F080E2800F883010F0811009C0AE
:103BE0008091D101B82AB092D1010E94C10E802FDC
:103BF00043C08091C801B82AB092C801F6CF802F87
:103C00000E94AF18BB20D1F1005E083010F0811087
:103C100004C08B2D0E94420906C0B0948091C80157
:103C2000B822B092C8010E94C10E28C0212F2F7067
:103C3000B22E107F103219F0B29480EFB822882093
:103C400059F031E0831609F474C0AA2009F480C049
:103C5000992009F442C0CBCF8091E20182FD39C0A6
:103C6000AA2089F1BB2039F08091D1018B29809362
:103C7000D1010E94C10E80E00E94EC184C2D4850EA
:103C8000550B4430510510F40E945806DD20B1F068
:103C90008091C60180FD12C0D70115961C928695B1
:103CA000869586950E94210AC7010E94C6198091B7
:103CB000C6018695869586950E94FD0960E0C7013C
:103CC0000E94A30D20CC80E00E94AF18BB20B1F26F
:103CD000A0CFAA2099F0911004C08B2D0E94440F10
:103CE000CDCF41E09412CACF8091C7019B2D98237C
:103CF000B91621F28B298093C701C0CF9110BECF96
:103D00008B2D0E943D0F9091C7018B2D892329F0A7
:103D10008B2D809589238093C7019091A9018B2DCC
:103D2000892309F4ABCF8B2D809589238093A9013A
:103D3000A5CFAA2029F055E0591508F49FCFCDCF83
:103D400084E0891508F49ACF8B2D0E943D0F96CF01
:103D50009920D1F399E3891209C0AFEFB7EEE3E000
:103D6000A150B040E040E1F700C00000802F0E9469
:103D7000AF1884CF812F86958695837061F081304E
:103D800009F07CCFC8019370A11002C080E090E0E0
:103D90000E94000673CFC8019370A11002C080E09A
:103DA00090E00E9425066ACF6A2D802F0E94BE17E0
:103DB00065CF812F837089F5A11060CF402F429588
:103DC00046954770440F440F802F8F70042E01C01A
:103DD000880F0A94EAF7202F207104FF07C02FE014
:103DE00030E001C0220F4A95EAF720951695169506
:103DF0001370123069F050F43091DF01113029F066
:103E0000822B83230E942D0A39CF832B822BFACF5A
:103E1000282B8091DF018227F5CF8695AA2011F00B
:103E2000812F8170882309F429CF402F4295469530
:103E30004770440F440F802F8F70042E01C0880FED
:103E40000A94EAF7202F207104FF07C02FE030E02A
:103E500001C0220F4A95EAF7209516951695137022
:103E6000123069F050F43091E001113029F0822BCA
:103E700083230E94DA0902CF832B822BFACF282BCF
:103E80008091E0018227F5CF1F70AA2029F0812FB1
:103E90000E94210A802F22CF802F0E943D0F812F68
:103EA0000E94FD09EBCE802FF2EF8F16B1F1F815CD
:103EB00070F020EF8216D1F031EF831691F0AA2036
:103EC00009F457C0911093CE812F8F712AC043EF10
:103ED000841651F154EF8512F2CF9091E20192FDD8
:103EE0002FC0812F8F71AA20D9F21BC0AA2081F088
:103EF00084E0891508F4C2CE1F7181E090E0012EA4
:103F000001C0880F0A94EAF79091E0018927B1CFA8
:103F100095E0991508F4B2CEEFCF812F8F71A110E3
:103F2000BFCF0E94210AAACE80E0AA2009F4A1CF27
:103F30001F7181E0012E01C0880F0A94EAF799CF22
:103F4000AA2061F0812F8F7192FFEBCFA8E08A9FAA
:103F50009001112423602093C601E3CF81E00E94E9
:103F60000A0AB1E0B91508F089CE82E00E940A0A77
:103F700085CE992059F0893309F0F8CEEFEFF7EEAE
:103F800023E0E150F0402040E1F7EECE812F8F7129
:103F900087CF0631BCE71B0799F58091D1018A7A5A
:103FA00091E009F490E09093A80169E2811165E342
:103FB00080EA91E00E94E6050E94C10E94CA063193
:103FC000ECE71E0749F58091A801811137CD89E200
:103FD000E2EAF1E028EA31E09191891303C0DF01C0
:103FE00011971C922E173F07B9F7E6CFF801FE573D
:103FF000EE30F10508F029CBE751F14D0C94C12AC0
:104000000737FCE71F0709F41BCD08372CE7120719
:1040100009F023CD82E015CD07373CE7130709F4FB
:1040200013CD08374CE7140709F029CD82E00DCDF8
:10403000B0E0A0E0EEE1F0E20C94D92A8091C50155
:10404000807F09F051C08091C401882309F44CC0DD
:10405000E091920287E0D82E809159028E1709F4E0
:1040600043C00E2F10E0ED9DF0011124E65AFD4FE4
:1040700084818823F1F1D09EE001D19ED00D1124DE
:10408000FE01E65AFD4F91818091C001981331C025
:1040900090818091BF0198132CC08581811129C026
:1040A000E280F3808091C1019091C201E81AF90A7F
:1040B00060E08FEB91E00E94A30D0E940F04E816D0
:1040C000F906B8F48091C5018F7080618093C501B5
:1040D000C05ADD4F88818F70806188838FEB91E0BB
:1040E0000E94C6190E944909CDB7DEB7E7E00C94DB
:1040F000F52AF8013196E770AFCFA4E1B0E0E3E82C
:10410000F0E20C94D12A8C0186E0F801DE011F96C2
:1041100001900D928A95E1F7F801F480E5808FEB2C
:10412000882E81E0982E8091C30181112AC0F11060
:1041300003C0FF24F3941CC0EE20F9F0C8010E94D4
:10414000800DF82E8823C9F087E0F801AFEBB1E0CD
:1041500001900D928A95E1F78091C301813031F48D
:104160008091BF019091C0010E94730D0E941820A0
:104170008F2D6496EFE00C94ED2AC8010E94C619B9
:10418000D8CFC280D380B090C4018091C1019091FA
:10419000C2013601681A790ABB2009F4F9C05080BF
:1041A000A18060E08FEB91E00E94A30D0E940F04BC
:1041B0006816790608F0A5C0FF2009F4BACF8091EF
:1041C000C501382F307F2091C001F8019181311154
:1041D00058C0FE2C291314C02091BF0190812913CF
:1041E0000FC0E11047C08F7080618093C5018FEBD5
:1041F00091E00E94C6198091C501F8018683B8CF6D
:10420000E11038C06A2D852D0E9421046A2D852D6C
:104210000E942104E82E8111ABCF5F86A88A8F858A
:1042200098890E94730D292F22952F70243058F4FD
:104230009F70223088F0992399F0F8019681907F41
:1042400079F4FE2C95CF2A5F2F70223068F0C801D8
:104250000E94C619EB2CF5CF992311F0882389F31E
:10426000805E883070F3F3CF803F58F3815F8330F6
:1042700070F7E7CF8091C50181608093C501F12C73
:1042800077CF291315C02091BF019081291310C049
:10429000E1100EC08683C8010E94C61987E0F801AC
:1042A000AFEBB1E001900D928A95E1F7FB2C60CF66
:1042B000C8010E94800D882309F45FCFEE2009F425
:1042C0005CCF8091C501803288F02091BF01309190
:1042D000C00139872887DB86CA869091C3019C87F5
:1042E0001D868E87CE0108960E94C61987E0F801C8
:1042F000AFEBB1E001900D928A95E1F70E94182092
:1043000018CF8091C501982F907F51F48FEB91E0E9
:104310000E94C61987E0F40111928A95E9F7AFCFA0
:10432000FF2009F406CF2091C001F80191812913E3
:1043300011C02091BF01908129130CC0E1100AC067
:104340008683C8010E94C61987E0F40111928A95FC
:10435000E9F7ACCFC8010E94800D882309F40DCF86
:10436000EE2009F40ACF8091C501803208F4BECF57
:104370002091BF013091C0013A832983DC82CB8236
:104380009091C3019D831E828F83CE010196ACCF95
:1043900060E08FEB91E00E94A30D0E940F0468166D
:1043A000790608F0B7CFFF2009F4C3CEFE2CEE202B
:1043B00009F4E3CE9091C001F801818198132DC0DA
:1043C0009091BF018081981328C08091C101909184
:1043D000C201C81AD90AF8ECCF16D104A8F49091FA
:1043E000C50190FD11C0907F79F08091C501F80161
:1043F0008683903F31F0982F907F905F8F70892B4C
:104400008683C8010E94C61987E0F801AFEBB1E0CE
:1044100001900D928A95E1F7ABCEC8010E94800D04
:10442000811164CF8091C50181608093C501C8016D
:104430000E94C6199DCEABE1B0E0E1E2F2E20C943D
:10444000DD2A4E8B5F8B688F798F8A8F9B8F9111BE
:104450001092C8011D8A86E0FE017696DE011F9645
:1044600001900D928A95E1F78B89882329F061E00C
:10447000CE010F960E94A30D87E0FE013F96DE015C
:10448000189601900D928A95E1F7CE0108960E9448
:104490007D2081110CC087E0FE013896DE01119667
:1044A00001900D928A95E1F78C8581110BC017E080
:1044B0008091920290915902891331C06B96E3E08A
:1044C0000C94F92A2091590230E0C90101968770B5
:1044D0009927409192024817190699F097E0929F08
:1044E000D001939FB00D1124A65ABD4FFE01319605
:1044F00001900D929A95E1F7809359020E94490923
:10450000D6CF0E947914109259021092920287E03D
:10451000EFEBF1E0DF011D928A95E9F7C8CF819FAB
:10452000C0011124865A9D4F0E947D20882331F2BC
:104530008091920290E00196877099278093920271
:10454000B7CFA8E0B0E0E7EAF2E20C94D22A8E01FD
:104550000F5F1F4F88E0F80111928A95E9F795E403
:10456000E92E91E0F92E680166246394712C35E5FB
:10457000832E31E0932EF70181917F018F3F09F463
:1045800045C0F894E82FE295EF70F0E021A18F701C
:10459000A30102C0440F551F8A95E2F7CA01922F6A
:1045A000982B91A392A18095892382A3789400C02F
:1045B000E9E4F1E021E030E0B12CA12C41914F3F42
:1045C00009F454C0A42FA295AF70B0E090968C91DE
:1045D00090E04F7002C0959587954A95E2F780FD6F
:1045E00045C0C901A82AB92A220F331F8E169F067B
:1045F00029F7F701319780818F3F11F00E941C0746
:1046000050EA5A95F1F7F601B182A082F2E0CF0E9E
:10461000D11C49E4E41641E0F40609F0ACCF48E0CF
:1046200050E0B80187ED91E00E948D2E892B99F121
:1046300088E0F801A7EDB1E001900D928A95E1F7CD
:1046400081E08093D6010E94B7139093D5018093A7
:10465000D40110E02091950227708091E001811132
:104660000AC0222381F01092100210C090E080E076
:10467000B9CF10E02FC090E002C0959587952A959C
:10468000E2F780FFF0CF81E080931002812F28961F
:10469000EEE00C94EE2A1091D6011123D1F2809114
:1046A000D4019091D5010E949E05059790F248E0B3
:1046B00050E067ED71E082EF91E00E948D2E892B32
:1046C000C1F288E0E7EDF1E0A2EFB1E001900D92D8
:1046D0008A95E1F71092D601BDCFA6E0B0E0E3E7FE
:1046E000F3E20C94DC2A0E94B7138C018091D20172
:1046F0009091D3018017910781F019821A820E944C
:10470000B713682F49815A81792F80E090E00E9489
:104710001B221093D3010093D2012696E4E00C945F
:10472000F82A1F921FB61F9211248F939F93AF9365
:10473000BF9380913902811113C080913A02909108
:104740003B02A0913C02B0913D024196A11DB11DDA
:1047500080933A0290933B02A0933C02B0933D02B7
:10476000BF91AF919F918F911F901FBE1F90189581
:10477000CDB7DEB7E4970FB6F894DEBF0FBECDBF5E
:1047800085B7806885BF85B7806885BF84B7877F18
:1047900084BF0FB6F894A8958091600088618093DB
:1047A0006000109260000FBE80E890E00FB6F894B1
:1047B00080936100909361000FBE8AE69AE0909327
:1047C0009F0180939E010E9440040E94E104809119
:1047D000E20084608093E200789480914E02882306
:1047E000A1F01091E9001F709091EC00892F817069
:1047F00090FD80E8182B1092E9008091E80083FD7D
:104800000E94A0141F701093E90082E084BD93E021
:1048100095BD9AEF97BD80936E000E94A40C811104
:1048200002C00E94940CEAE1F2E088E0DF011D92F0
:104830008A95E9F782E08093EF0160E080E00E94D2
:10484000D10661E080E00E94D10660E081E00E9434
:10485000D10661E081E00E94D106EFE8F1E03197F6
:10486000F1F700C0000010E08091EF01181708F484
:10487000DBC086EC0E941C0786EF0E941C0787EFB6
:104880000E941C0787E60E941C0709E411E0D8017A
:104890008D918D018F3F11F00E941C07B1E005350D
:1048A0001B07A9F788E0E2EFF1E0DF01282F1D9256
:1048B0002A95E9F7E7EDF1E0DF011D928A95E9F726
:1048C0008FE090E00E940D2B60939302709394020E
:1048D000809395029093960290E080E00E94132BC3
:1048E000853E9E4F21F40E94A40C811176C065EE96
:1048F0007EEF90E080E00E94472B60E082E090E055
:104900000E94292B81E08093DF0161E083E090E049
:104910000E94292B60E074E184E090E00E94472B24
:1049200060E086E090E00E94292B60E087E090E064
:104930000E94292B40E050E0BA0188E090E00E94FC
:104940003B2B60E083E290E00E94292B60E08CE04A
:1049500090E00E94292B60E08DE090E00E94292BDE
:1049600019821A821B821C821D821E821F82188657
:1049700048E050E067E170E0CE0101960E94192BFB
:1049800040E050E0BA018FE190E00E943B2B80E0D4
:104990000E94AF0B0E94940C0E94480A409193021F
:1049A0005091940260919502709196028FE090E090
:1049B0000E943B2B8FE090E00E940D2B60939302AE
:1049C00070939402809395029093960240E050E099
:1049D000BA0183E190E00E943B2B82E090E00E94CC
:1049E000052B8093250284E090E00E94132B909386
:1049F000E2018093E1010E94A122EFEFF6E721E0BE
:104A0000E150F0402040E1F700C000000E94A122E8
:104A10008091F20180FF1AC06FEF7FEF90E080E09D
:104A20000E94472B0E94290B60E0812F0E94B5064F
:104A3000082F61E0812F0E94B506E12FF0E0E351DD
:104A4000FE4F880F802B80831F5F0ECF83E090E0A6
:104A50000E94052B0E942D0A0E94690E80919302EC
:104A60008F7190E0019624E6AC01249FC001259F40
:104A7000900D11240E94190780E091E09093360276
:104A800080933502552453942224239480914E021E
:104A90008530A9F48091250280FF08C089EC92E05E
:104AA0009F938F930E9406040F900F9080914E0267
:104AB000853009F45FC00E9479140E9458060E9454
:104AC000A12223EEC22E21E0D22EA2EFB1E0BCAB98
:104AD000ABABF601219131918D919D9141E0EB3E7F
:104AE000F40709F47FC028173907A1F38091250244
:104AF00081FDBEC0912CABA9BCA90D911D91BCAB91
:104B0000ABABF601A190B1906F01A016B10659F1BF
:104B1000A026B126812CEE24E394F12CC5018E2130
:104B20009F21892BB1F08DA69EA60E94B71398AB4A
:104B30008FA729AA91E098012E213F21232B09F468
:104B400090E09AAB4DA55EA56FA578A989A90E94B2
:104B50001B228394EE0CFF1CFCE08F12DFCFF601CA
:104B6000329711830083939424E09212C4CF0E9461
:104B7000AD053EC080914E02843031F10E94770F26
:104B800010923902E8E1F0E020E40FB6F894A8951D
:104B9000E09360000FBE2093600083B7817F846044
:104BA00083BF83B7816083BF7894889583B78E7FF6
:104BB00083BF0FB6F894A8958091600088618093B8
:104BC0006000109260000FBE0E94A122E2EFF1E0AF
:104BD00081919191892B09F050C241E0EA3FF4079D
:104BE000B9F764CF2817390709F080CF0E946D23E9
:104BF0008091F001882351F01092F00180911C0205
:104C000080931D0280911A0280931B02B12C809127
:104C1000EF01B81608F474C090E04CEFF42E53E0A6
:104C2000E52E6DEFD62E72E0C72E80911D022091E9
:104C30001C02281709F43EC2E82FF0E0E25EFD4FA7
:104C4000108117FB002700F91F778F5F8370809317
:104C50001D0280911B028F5F80931B02011199C07E
:104C60000E94B71319A3FAA29CA38BA3EDA298C02C
:104C70008FEE92E09F938F930E9406040F900F9007
:104C8000A2EFEA2EA1E0FA2E10E000E0BAEE8B2EA1
:104C9000B2E09B2E87EEA82E82E0B82E91EE692E10
:104CA00092E0792E1F930F939F928F920E94060499
:104CB000BF92AF920E940604D7018C9111963C904E
:104CC000B2E0EB0EF11C0E94300A482E832D0E94A8
:104CD000300A4F928F937F926F920E940604EFEDFD
:104CE000F2E0FF93EF930E9406040F5F1F4F0FB691
:104CF000F894DEBF0FBECDBF0430110599F6FACE91
:104D000061E08B2D0E94B506182F60E08B2D0E946C
:104D1000B506E12FEE0FE82B2B2D30E0D901A35182
:104D2000BE4F9C91892F8370E81789F1990F990FD5
:104D3000E92BEC93D901AB59BE4FCC90EF70F0E06A
:104D4000EB5AFE4FA90145515E4F7A010081DA010D
:104D50008C91080F0C93002E000C110BD12C0C150C
:104D60001D0524F060E08B2D0E94F406882799270A
:104D70008C199D098017910724F061E08B2D0E940A
:104D8000F406C801B6010E94AD2AF7018083B394EE
:104D90003ECF0E94B71319A3DAA29CA38BA3CDA286
:104DA0005EA249A15AA16BA17CA18DA19EA10E94E6
:104DB0001B22002391F00E94B7131FA3D8A69AA725
:104DC00089A7CBA61CA64FA158A569A57AA58BA536
:104DD0009CA50E941B2291E028CF0E94B7131FA31D
:104DE000F8A69AA789A7EBA6EDCF50922C02BFC1D7
:104DF00050922D02C4C150922E0205C250922F0231
:104E00000AC200E210E0AE014F5F5F4F7A0180916D
:104E1000E80085FD0AC08091E8008B778093E80068
:104E20000E945F04882399F348C28091F100D70162
:104E30008D937D010150110951F73FC21A828CE018
:104E40008B831BC08A81823009F44AC228F48130E6
:104E500061F08FEF898311C08330C1F08430C9F7CE
:104E60001B821C821D821E8208C00E94AD050E940A
:104E7000C72A6B837C838D839E8340E250E0BE0112
:104E80006F5F7F4F82E00E94CC0A00CE2B81822F81
:104E900090E0FE013196225F8430910570F7DC01CD
:104EA000AA0FBB1FAE50BE4F3C9111964C9143834D
:104EB0003483019632962813EFCFDFCF8A81823078
:104EC00019F08530D1F2C5CF6B817C818D819E81B7
:104ED0000E94C72A87E290E00E94292BCECF4C8106
:104EE0006B818A810E94F60C9827892798279E83D8
:104EF0008D83C3CF2D813E813227232732274C81DA
:104F00006B818A810E94090CB8CF0E942F0CB5CF0B
:104F1000B0E1BA83B2CF5A8280ED92CF0A811B8171
:104F2000102701271027FE0131966F01EC80AF0199
:104F30004E0D511D7A01C801805D9D4FEC14FD049A
:104F400009F49BCF003D51E0150758F40E94052B52
:104F5000D60114968C930F5F1F4FFFEFCF1ADF0A15
:104F6000EACFF6011482F7CF0A811B8110270127AF
:104F70001027AE014F5F5F4F6A01EC80E00EF12E0B
:104F8000F11CC801805D9D4FE016F10609F475CF54
:104F9000003D51E0150728F4D60114966C910E944B
:104FA000292BBFEFCB1ADB0A0F5F1F4FEACF0E94FE
:104FB000C80B63CF85E08A8360CF0A811B811027ED
:104FC00001271027FE0131966F01EC80AF014E0DD5
:104FD000511D7A01C8018896EC14FD0409F44DCFE7
:104FE000003E51E0150758F40E94052BD601149697
:104FF0008C930F5F1F4FFFEFCF1ADF0AEBCFF60145
:105000001482F7CF0A811B81102701271027AE01D8
:105010004F5F5F4F6A01EC80E00EF12EF11CC8017A
:105020008896E016F10609F428CF003E51E01507F6
:1050300028F4D60114966C910E94292BBFEFCB1A4D
:10504000DB0A0F5F1F4FEBCF41E08C81811101C064
:1050500040E06B818A810E94BD0C46CF2D813E814C
:1050600032272327322741E08C81811101C040E0A3
:105070006B818A810E94D80B00CF80914D028823DA
:1050800009F414CD50E159BD82E189BD09B400FE97
:10509000FDCF8091D8008F7D8093D8008091E00073
:1050A00082608093E0008091E00081FDFCCF0E944F
:1050B0007914FCCC91110E94AD050E94770F8111EB
:1050C0000E94AD0586E0EAE2F2E0DE011196019071
:1050D0000D928A95E1F710922C0210922D021092F7
:1050E0002E0210922F028B819C81892B09F447C0DC
:1050F00080912802909129020E949E059C01909126
:105100002402992309F4FAC025313105C0F19F3FEB
:1051100019F09F5F909324021B81112359F00E9484
:1051200087069FEF11160CF491E0899F802D1124C2
:1051300080932C021C81112359F00E9487069FEF57
:1051400011160CF491E0899F802D112480932D027B
:1051500080912C02882399F010912D02112379F06F
:105160000E94A706882309F440CE80932C02812F49
:105170000E94A706882309F43BCE80932D028D81DF
:105180009E81892B09F447C08091260290912702C5
:105190000E949E059C0190912202992309F4A9C0C6
:1051A00021353105C0F19F3F19F09F5F9093220296
:1051B0001D81112359F00E9465069FEF11160CF412
:1051C00091E0899F802D112480932E021E8111234E
:1051D00059F00E9465069FEF11160CF491E0899F2B
:1051E000802D112480932F0280912E02882399F024
:1051F00010912F02112379F00E94A706882309F449
:10520000FACD80932E02812F0E94A706882309F4ED
:10521000F5CD80932F02BE016F5F7F4F8AE292E04F
:105220000E94B90581110CC080912C0290912D0231
:10523000892B90912E02892B90912F02892B11F0AE
:105240000E94C31386E0FE013196AAE2B2E001900B
:105250000D928A95E1F70E945806182F8091F1016E
:105260001817A9F01093F1010E94AD058091250255
:105270008570853061F41F921F9386E093E09F93C1
:105280008F930E9406040F900F900F900F908091C3
:105290004E02843009F0FACB83E08093E9008091DC
:1052A000E80082FFF3CB8091E80090E085FF06C024
:1052B0000E945F04882309F4A4CD91E08091E80066
:1052C0008B778093E800992309F4E0CBE981E150E2
:1052D000E53108F0BECDF0E0E950F14D0C94C12A63
:1052E00087E290E00E94052B1B821C821D828E8328
:1052F000C4CD2B30310508F058CF8DCF2B30310580
:1053000008F007CF3CCF289A219A229A23982B980D
:1053100080E58CBD089590910B019F3F09F071C00D
:105320008F3F09F46EC0611144C0109298029091B1
:105330009802423009F441C0433009F442C09460FD
:105340004130E1F141E050E042175307E0F1909124
:1053500098024031510509F452C0C0F54230510560
:1053600009F446C04830510509F446C09CB5209167
:105370009802922B9CBD90919702992319F09DB5AC
:1053800091609DBD80930B01E82FE295EF70F0E0F6
:1053900031A1282F2F7081E090E001C0880F2A955D
:1053A000EAF7382B31A392A18095892382A381E06B
:1053B000089590E290939802BACF986090939802E3
:1053C000C1CF9C60FBCF440F551FBECF4034510569
:1053D00049F04038510541F04032510539F621E09D
:1053E00020939702926001C0936090939802BECF81
:1053F00091E090939702BACF21E0209397029160B9
:10540000F4CF80E00895CF93DF938EBD0E94B71351
:10541000EC010DB407FE05C08EB590E0DF91CF9191
:1054200008950E94B7138C1B9D0B8436910588F359
:105430008EEF9FEFF3CFCF93DF931EBC0E94B71385
:10544000EC010DB407FE05C08EB590E0DF91CF9161
:1054500008950E94B7138C1B9D0B8436910588F329
:105460008EEF9FEFF3CF0F931F93CF93DF93EC015A
:105470008C01060F171FC017D10719F490E080E0C8
:1054800005C089910E94032A97FFF5CFDF91CF9144
:105490001F910F9108950F931F93CF93DF93EC010A
:1054A0008C01060F171FC017D10739F490E080E078
:1054B000DF91CF911F910F9108950E941B2A97FDB4
:1054C000F7CF8993F0CF80910B018F3F29F1E82F1F
:1054D000E295EF70F0E041A18F7021E030E0B9017A
:1054E00002C0660F771F8A95E2F7CB01942F982BA5
:1054F00091A392A1892B82A38FEF80930B018DB58D
:105500008E7F8DBD9CB580919802809589238CBD3E
:1055100010929802109297020895991B79E004C0A6
:10552000991F961708F0961B881F7A95C9F78095E2
:105530000895AA1BBB1B51E107C0AA1FBB1FA617DA
:10554000B70710F0A61BB70B881F991F5A95A9F72C
:1055500080959095BC01CD01089597FB072E16F418
:10556000009407D077FD09D00E94992A07FC05D046
:105570003EF4909581959F4F0895709561957F4F6A
:105580000895EE0FFF1F0590F491E02D099469270F
:105590009627692778278727782708952F923F92A3
:1055A0004F925F926F927F928F929F92AF92BF9233
:1055B000CF92DF92EF92FF920F931F93CF93DF93DF
:1055C000CDB7DEB7CA1BDB0B0FB6F894DEBF0FBE3C
:1055D000CDBF09942A88398848885F846E847D8489
:1055E0008C849B84AA84B984C884DF80EE80FD808B
:1055F0000C811B81AA81B981CE0FD11D0FB6F89401
:10560000DEBF0FBECDBFED010895F999FECF92BD6B
:1056100081BDF89A992780B50895A6E1B0E044E0ED
:1056200050E00C944F2BA8E1B0E042E050E00C9425
:105630004F2BDC01A40FB51F4150504048F0CB0167
:10564000840F951F2E910E942A2B41505040D0F775
:105650000895262FF999FECF92BD81BDF89A019742
:1056600000B4021639F01FBA20BD0FB6F894FA9AAA
:10567000F99A0FBE08950396272F0E942A2B0E94A5
:10568000292B252F0E942A2B242F0C942A2B01969C
:10569000272F0E942A2B0C94292BDC01CB01FC0123
:1056A000F999FECF06C0F2BDE1BDF89A319600B47B
:1056B0000D9241505040B8F708955058BB27AA2783
:1056C0000E94752B0C94342D0E94FB2C38F00E9404
:1056D000022D20F039F49F3F19F426F40C94F82C95
:1056E0000EF4E095E7FB0C94F22CE92F0E94592D63
:1056F00058F3BA17620773078407950720F079F407
:10570000A6F50C947B2D0EF4E0950B2EBA2FA02D50
:105710000B01B90190010C01CA01A0011124FF275E
:10572000591B99F0593F50F4503E68F11A16F04059
:10573000A22F232F342F4427585FF3CF4695379558
:105740002795A795F0405395C9F77EF41F16BA0B1D
:10575000620B730B840BBAF09150A1F0FF0FBB1FCB
:10576000661F771F881FC2F70EC0BA0F621F731F14
:10577000841F48F4879577956795B795F7959E3F71
:1057800008F0B0CF9395880F08F09927EE0F979502
:10579000879508950E940B2DE3950C94452D0E944A
:1057A000E32B0C94342D0E94022D58F00E94FB2C08
:1057B00040F029F45F3F29F00C94F22C51110C9425
:1057C0007C2D0C94F82C0E94592D68F39923B1F389
:1057D000552391F3951B550BBB27AA276217730717
:1057E000840738F09F5F5F4F220F331F441FAA1FAB
:1057F000A9F335D00E2E3AF0E0E832D09150504067
:10580000E695001CCAF72BD0FE2F29D0660F771F14
:10581000881FBB1F261737074807AB07B0E809F0FA
:10582000BB0B802DBF01FF2793585F4F3AF09E3F7F
:10583000510578F00C94F22C0C947C2D5F3FE4F32E
:10584000983ED4F3869577956795B795F7959F5FC2
:10585000C9F7880F911D9695879597F90895E1E00E
:10586000660F771F881FBB1F621773078407BA076D
:1058700020F0621B730B840BBA0BEE1F88F7E095C8
:1058800008950E94482C6894B1110C947C2D0895C1
:105890000E94612D88F09F5798F0B92F9927B75132
:1058A000B0F0E1F0660F771F881F991F1AF0BA95C4
:1058B000C9F714C0B13091F00E947B2DB1E008957A
:1058C0000C947B2D672F782F8827B85F39F0B93F6C
:1058D000CCF3869577956795B395D9F73EF4909577
:1058E0008095709561957F4F8F4F9F4F0895E894F5
:1058F00009C097FB3EF490958095709561957F4F18
:105900008F4F9F4F9923A9F0F92F96E9BB279395C5
:10591000F695879577956795B795F111F8CFFAF4D5
:10592000BB0F11F460FF1BC06F5F7F4F8F4F9F4F06
:1059300016C0882311F096E911C0772321F09EE864
:10594000872F762F05C0662371F096E8862F70E0CA
:1059500060E02AF09A95660F771F881FDAF7880FA4
:105960009695879597F90895990FBB0B550FAA0B3C
:10597000E0E8FEEF16161706E807F90770F01216B2
:105980001306E407F50760F0BA173CF049F4621714
:10599000730784079507A7951BF4B901CA01BA2FAD
:1059A000B69597950895990FBB0B550FAA0BE0E894
:1059B000FEEF16161706E807F90770F01216130621
:1059C000E407F50760F0BA1754F031F426173707EB
:1059D00048075907A7951BF4B901CA01BA2FB69514
:1059E0009795089597F99F6780E870E060E00895C3
:1059F0009FEF80EC089500240A94161617061806E7
:105A00000906089500240A941216130614060506C2
:105A100008950C94F82C0E94612DD8F3E894E0E0EE
:105A2000BB279F57F0F02AED3FE049EC06C0EE0F90
:105A3000BB0F661F771F881F28F0B23A62077307F3
:105A4000840728F0B25A620B730B840BE3959A9586
:105A500072F7803830F49A95BB0F661F771F881F46
:105A6000D2F790480C943F2E092E0394000C11F4A9
:105A7000882352F0BB0F40F4BF2B11F460FF04C029
:105A80006F5F7F4F8F4F9F4F0895EF93E0FF07C0E9
:105A9000A2EA2AED3FE049EC5FEB0E94752B0E94E1
:105AA000342D0F90039401FC9058ECEAF0E00C9434
:105AB000522E57FD9058440F551F59F05F3F71F01B
:105AC0004795880F97FB991F61F09F3F79F0879565
:105AD0000895121613061406551FF2CF4695F1DFEE
